{
  "_format": "hh-sol-artifact-1",
  "contractName": "WalletBundler",
  "sourceName": "contracts/WalletBundler.sol",
  "abi": [
    {
      "inputs": [],
      "stateMutability": "nonpayable",
      "type": "constructor"
    },
    {
      "inputs": [],
      "name": "CallFailed",
      "type": "error"
    },
    {
      "inputs": [],
      "name": "Unauthorized",
      "type": "error"
    },
    {
      "inputs": [
        {
          "internalType": "address",
          "name": "fromToken",
          "type": "address"
        },
        {
          "internalType": "uint256",
          "name": "fromAmount",
          "type": "uint256"
        },
        {
          "internalType": "address",
          "name": "toToken",
          "type": "address"
        },
        {
          "internalType": "address[]",
          "name": "encoderTargets",
          "type": "address[]"
        },
        {
          "internalType": "bytes[]",
          "name": "encoderData",
          "type": "bytes[]"
        },
        {
          "internalType": "uint8[]",
          "name": "wrapOperations",
          "type": "uint8[]"
        }
      ],
      "name": "encodeAndExecuteaaaaaYops",
      "outputs": [
        {
          "internalType": "bool[]",
          "name": "results",
          "type": "bool[]"
        }
      ],
      "stateMutability": "payable",
      "type": "function"
    },
    {
      "inputs": [],
      "name": "owner",
      "outputs": [
        {
          "internalType": "address",
          "name": "",
          "type": "address"
        }
      ],
      "stateMutability": "view",
      "type": "function"
    },
    {
      "inputs": [
        {
          "internalType": "address",
          "name": "token",
          "type": "address"
        }
      ],
      "name": "withdraw",
      "outputs": [],
      "stateMutability": "nonpayable",
      "type": "function"
    },
    {
      "stateMutability": "payable",
      "type": "receive"
    }
  ],
  "bytecode": "0x60c060405234801561001057600080fd5b50336080523060a05260408051631e7f29df60e31b81529051734df4b688d6f7954f6f53787b2e2778720bab5d289163f3f94ef891600480830192600092919082900301818387803b15801561006557600080fd5b505af1158015610079573d6000803e3d6000fd5b5050505060805160a05161130f6101096000396000818161015c015281816102a201528181610320015281816103d6015281816105f40152818161065201528181610706015281816107620152610af801526000818160a10152818160e80152818161013b015281816105d30152818161062d01528181610695015281816106e5015261073d015261130f6000f3fe6080604052600436106100385760003560e01c806330ace1b11461004457806351cff8d91461006d5780638da5cb5b1461008f57600080fd5b3661003f57005b600080fd5b610057610052366004610f42565b6100db565b604051610064919061100d565b60405180910390f35b34801561007957600080fd5b5061008d610088366004611053565b61068a565b005b34801561009b57600080fd5b506100c37f000000000000000000000000000000000000000000000000000000000000000081565b6040516001600160a01b039091168152602001610064565b6060336001600160a01b037f00000000000000000000000000000000000000000000000000000000000000001614610125576040516282b42960e81b815260040160405180910390fd5b856001600160a01b038b1615610181576101818b7f00000000000000000000000000000000000000000000000000000000000000007f00000000000000000000000000000000000000000000000000000000000000008d610786565b8067ffffffffffffffff81111561019a5761019a611070565b6040519080825280602002602001820160405280156101c3578160200160208202803683370190505b50915060005b818110156105c05760008585838181106101e5576101e5611086565b90506020020160208101906101fa919061109c565b90506000806000806102558e8e8881811061021757610217611086565b905060200201602081019061022c9190611053565b8d8d8981811061023e5761023e611086565b905060200281019061025091906110bf565b6108f2565b93509350935093508460ff1660010361027657610271826109a0565b61028a565b8460ff1660030361028a5761028a82610a03565b6001600160a01b0381166102df576001600160a01b037f00000000000000000000000000000000000000000000000000000000000000001631828110156102d9578083036102d781610a03565b505b5061035e565b73c02aaa39b223fe8d0a0e5c4f27ead9083c756cc1196001600160a01b0382160161035e57600061034473c02aaa39b223fe8d0a0e5c4f27ead9083c756cc27f0000000000000000000000000000000000000000000000000000000000000000610a6b565b90508281101561035c5780830361035a816109a0565b505b505b6001600160a01b0381161561049f57836000610389836e22d473030f116ddee9f6b43ac78ba3610ae1565b9050722cd76fe086b93ce2f768a00b22a000000000008110156103bf576103bf836e22d473030f116ddee9f6b43ac78ba3610b3b565b60405163927da10560e01b81526001600160a01b037f0000000000000000000000000000000000000000000000000000000000000000811660048301528085166024830152831660448201526000906e22d473030f116ddee9f6b43ac78ba39063927da10590606401606060405180830381865afa158015610445573d6000803e3d6000fd5b505050506040513d601f19601f820116820180604052508101906104699190611121565b50509050722cd76fe086b93ce2f768a00b22a00000000000816001600160a01b0316101561049b5761049b8484610c8b565b5050505b60006001600160a01b038216156104b75760006104b9565b825b9050600080866001600160a01b031683876040516104d7919061118a565b60006040518083038185875af1925050503d8060008114610514576040519150601f19603f3d011682016040523d82523d6000602084013e610519565b606091505b50915091508161054c578051156105335780518082602001fd5b604051633204506f60e01b815260040160405180910390fd5b818b8a8151811061055f5761055f611086565b91151560209283029190910182015281516000911161057f575060208101515b8860ff1660020361059857610593816109a0565b6105ac565b8860ff166004036105ac576105ac81610a03565b8960010199505050505050505050506101c9565b6001600160a01b038a16610627576106227f00000000000000000000000000000000000000000000000000000000000000007f00000000000000000000000000000000000000000000000000000000000000006001600160a01b031631610cf5565b61067b565b61067b8a7f00000000000000000000000000000000000000000000000000000000000000006106768d7f0000000000000000000000000000000000000000000000000000000000000000610a6b565b610d93565b50509998505050505050505050565b336001600160a01b037f000000000000000000000000000000000000000000000000000000000000000016146106d2576040516282b42960e81b815260040160405180910390fd5b6001600160a01b038116610737576107347f00000000000000000000000000000000000000000000000000000000000000007f00000000000000000000000000000000000000000000000000000000000000006001600160a01b031631610cf5565b50565b610734817f0000000000000000000000000000000000000000000000000000000000000000610676847f0000000000000000000000000000000000000000000000000000000000000000610a6b565b604080516001600160a01b0385811660248301528481166044830152606480830185905283518084039091018152608490920183526020820180516001600160e01b03166323b872dd60e01b17905291516000928392908816916107ea919061118a565b6000604051808303816000865af19150503d8060008114610827576040519150601f19603f3d011682016040523d82523d6000602084013e61082c565b606091505b5091509150816108835760405162461bcd60e51b815260206004820152601860248201527f5472616e7366657246726f6d2063616c6c206661696c6564000000000000000060448201526064015b60405180910390fd5b8051156108ea578080602001905181019061089e91906111a6565b6108ea5760405162461bcd60e51b815260206004820152601b60248201527f5472616e7366657246726f6d2072657475726e65642066616c73650000000000604482015260640161087a565b505050505050565b60006060600080600080886001600160a01b031688886040516109169291906111c8565b600060405180830381855afa9150503d8060008114610951576040519150601f19603f3d011682016040523d82523d6000602084013e610956565b606091505b50915091508161097957604051633204506f60e01b815260040160405180910390fd5b8080602001905181019061098d91906111e3565b929c919b50995090975095505050505050565b73c02aaa39b223fe8d0a0e5c4f27ead9083c756cc26001600160a01b031663d0e30db0826040518263ffffffff1660e01b81526004016000604051808303818588803b1580156109ef57600080fd5b505af11580156108ea573d6000803e3d6000fd5b604051632e1a7d4d60e01b81526004810182905273c02aaa39b223fe8d0a0e5c4f27ead9083c756cc290632e1a7d4d90602401600060405180830381600087803b158015610a5057600080fd5b505af1158015610a64573d6000803e3d6000fd5b5050505050565b6040516370a0823160e01b81526001600160a01b038281166004830152600091908416906370a08231906024015b602060405180830381865afa158015610ab6573d6000803e3d6000fd5b505050506040513d601f19601f82011682018060405250810190610ada91906112c0565b9392505050565b604051636eb1769f60e11b81526001600160a01b037f00000000000000000000000000000000000000000000000000000000000000008116600483015282811660248301526000919084169063dd62ed3e90604401610a99565b604080516001600160a01b03838116602483015260001960448084019190915283518084039091018152606490920183526020820180516001600160e01b031663095ea7b360e01b1790529151600092839290861691610b9b919061118a565b6000604051808303816000865af19150503d8060008114610bd8576040519150601f19603f3d011682016040523d82523d6000602084013e610bdd565b606091505b509150915081610c255760405162461bcd60e51b8152602060048201526013602482015272105c1c1c9bdd994818d85b1b0819985a5b1959606a1b604482015260640161087a565b805115610c855780806020019051810190610c4091906111a6565b610c855760405162461bcd60e51b8152602060048201526016602482015275417070726f76652072657475726e65642066616c736560501b604482015260640161087a565b50505050565b6040516387517c4560e01b81526001600160a01b0380841660048301528083166024830152604482015265ffffffffffff60648201526e22d473030f116ddee9f6b43ac78ba3906387517c4590608401600060405180830381600087803b1580156109ef57600080fd5b6000826001600160a01b03168260405160006040518083038185875af1925050503d8060008114610d42576040519150601f19603f3d011682016040523d82523d6000602084013e610d47565b606091505b5050905080610d8e5760405162461bcd60e51b8152602060048201526013602482015272115512081d1c985b9cd9995c8819985a5b1959606a1b604482015260640161087a565b505050565b604080516001600160a01b038481166024830152604480830185905283518084039091018152606490920183526020820180516001600160e01b031663a9059cbb60e01b1790529151600092839290871691610def919061118a565b6000604051808303816000865af19150503d8060008114610e2c576040519150601f19603f3d011682016040523d82523d6000602084013e610e31565b606091505b509150915081610e7a5760405162461bcd60e51b8152602060048201526014602482015273151c985b9cd9995c8818d85b1b0819985a5b195960621b604482015260640161087a565b805115610a645780806020019051810190610e9591906111a6565b610a645760405162461bcd60e51b815260206004820152601760248201527f5472616e736665722072657475726e65642066616c7365000000000000000000604482015260640161087a565b6001600160a01b038116811461073457600080fd5b60008083601f840112610f0857600080fd5b50813567ffffffffffffffff811115610f2057600080fd5b6020830191508360208260051b8501011115610f3b57600080fd5b9250929050565b600080600080600080600080600060c08a8c031215610f6057600080fd5b8935610f6b81610ee1565b985060208a0135975060408a0135610f8281610ee1565b965060608a013567ffffffffffffffff80821115610f9f57600080fd5b610fab8d838e01610ef6565b909850965060808c0135915080821115610fc457600080fd5b610fd08d838e01610ef6565b909650945060a08c0135915080821115610fe957600080fd5b50610ff68c828d01610ef6565b915080935050809150509295985092959850929598565b6020808252825182820181905260009190848201906040850190845b81811015611047578351151583529284019291840191600101611029565b50909695505050505050565b60006020828403121561106557600080fd5b8135610ada81610ee1565b634e487b7160e01b600052604160045260246000fd5b634e487b7160e01b600052603260045260246000fd5b6000602082840312156110ae57600080fd5b813560ff81168114610ada57600080fd5b6000808335601e198436030181126110d657600080fd5b83018035915067ffffffffffffffff8211156110f157600080fd5b602001915036819003821315610f3b57600080fd5b805165ffffffffffff8116811461111c57600080fd5b919050565b60008060006060848603121561113657600080fd5b835161114181610ee1565b925061114f60208501611106565b915061115d60408501611106565b90509250925092565b60005b83811015611181578181015183820152602001611169565b50506000910152565b6000825161119c818460208701611166565b9190910192915050565b6000602082840312156111b857600080fd5b81518015158114610ada57600080fd5b8183823760009101908152919050565b805161111c81610ee1565b600080600080608085870312156111f957600080fd5b845161120481610ee1565b602086015190945067ffffffffffffffff8082111561122257600080fd5b818701915087601f83011261123657600080fd5b81518181111561124857611248611070565b604051601f8201601f19908116603f0116810190838211818310171561127057611270611070565b816040528281528a602084870101111561128957600080fd5b61129a836020830160208801611166565b8097505050505050604085015191506112b5606086016111d8565b905092959194509250565b6000602082840312156112d257600080fd5b505191905056fea2646970667358221220616464cf8bf1f26b0ccf428ebdc523657ec14944546702bea02cc24d6424bd3464736f6c63430008140033",
  "linkReferences": {},
  "deployedLinkReferences": {}
}