{
  "_format": "hh-sol-artifact-1",
  "contractName": "WalletBundler",
  "sourceName": "contracts/WalletBundler.sol",
  "abi": [
    {
      "inputs": [],
      "stateMutability": "nonpayable",
      "type": "constructor"
    },
    {
      "inputs": [],
      "name": "CallFailed",
      "type": "error"
    },
    {
      "inputs": [],
      "name": "Unauthorized",
      "type": "error"
    },
    {
      "inputs": [
        {
          "internalType": "address",
          "name": "fromToken",
          "type": "address"
        },
        {
          "internalType": "uint256",
          "name": "fromAmount",
          "type": "uint256"
        },
        {
          "internalType": "address",
          "name": "toToken",
          "type": "address"
        },
        {
          "internalType": "address[]",
          "name": "encoderTargets",
          "type": "address[]"
        },
        {
          "internalType": "bytes[]",
          "name": "encoderData",
          "type": "bytes[]"
        },
        {
          "internalType": "uint8[]",
          "name": "wrapOperations",
          "type": "uint8[]"
        }
      ],
      "name": "encodeAndExecute",
      "outputs": [
        {
          "internalType": "bool[]",
          "name": "results",
          "type": "bool[]"
        }
      ],
      "stateMutability": "payable",
      "type": "function"
    },
    {
      "inputs": [],
      "name": "owner",
      "outputs": [
        {
          "internalType": "address",
          "name": "",
          "type": "address"
        }
      ],
      "stateMutability": "view",
      "type": "function"
    },
    {
      "inputs": [
        {
          "internalType": "address",
          "name": "token",
          "type": "address"
        }
      ],
      "name": "withdraw",
      "outputs": [],
      "stateMutability": "nonpayable",
      "type": "function"
    },
    {
      "stateMutability": "payable",
      "type": "receive"
    }
  ],
  "bytecode": "0x60c060405234801561001057600080fd5b50336080523060a05260805160a051610dbf6100a5600039600081816101530152818161018a015281816101d00152818161027a015281816104320152818161072801528181610761015281816107a7015261099701526000818160780152818160e201528181610132015281816101ab01528181610206015281816102590152818161070701526107820152610dbf6000f3fe6080604052600436106100385760003560e01c806351cff8d9146100445780638da5cb5b14610066578063dd76f8f1146100b757600080fd5b3661003f57005b600080fd5b34801561005057600080fd5b5061006461005f366004610a35565b6100d7565b005b34801561007257600080fd5b5061009a7f000000000000000000000000000000000000000000000000000000000000000081565b6040516001600160a01b0390911681526020015b60405180910390f35b6100ca6100c5366004610aa5565b6101f9565b6040516100ae9190610b70565b336001600160a01b037f0000000000000000000000000000000000000000000000000000000000000000161461011f576040516282b42960e81b815260040160405180910390fd5b6001600160a01b038116610184576101817f00000000000000000000000000000000000000000000000000000000000000007f00000000000000000000000000000000000000000000000000000000000000006001600160a01b0316316107da565b50565b610181817f00000000000000000000000000000000000000000000000000000000000000007f00000000000000000000000000000000000000000000000000000000000000006101f4857f00000000000000000000000000000000000000000000000000000000000000006107f3565b610824565b6060336001600160a01b037f00000000000000000000000000000000000000000000000000000000000000001614610243576040516282b42960e81b815260040160405180910390fd5b856001600160a01b038b161561029f5761029f8b7f00000000000000000000000000000000000000000000000000000000000000007f00000000000000000000000000000000000000000000000000000000000000008d610824565b8067ffffffffffffffff8111156102b8576102b8610bb6565b6040519080825280602002602001820160405280156102e1578160200160208202803683370190505b50915060005b818110156106f457600085858381811061030357610303610bcc565b90506020020160208101906103189190610be2565b90506000806000806103738e8e8881811061033557610335610bcc565b905060200201602081019061034a9190610a35565b8d8d8981811061035c5761035c610bcc565b905060200281019061036e9190610c05565b61086b565b93509350935093508460ff166001036103945761038f82610919565b6103a8565b8460ff166003036103a8576103a882610954565b6001600160a01b038116156105c7577366a9893cc07d91d95644aedd05d03f95e1dba8ae196001600160a01b038516016105455760006103f7826e22d473030f116ddee9f6b43ac78ba3610992565b9050722cd76fe086b93ce2f768a00b22a0000000000081101561042d5761042d826e22d473030f116ddee9f6b43ac78ba36109ee565b6000807f0000000000000000000000000000000000000000000000000000000000000000905060405163927da10560e01b81528160048201528460248201527366a9893cc07d91d95644aedd05d03f95e1dba8af60448201526060816064836e22d473030f116ddee9f6b43ac78ba35afa80156104a957815193505b5050722cd76fe086b93ce2f768a00b22a0000000000082101561053d576040516387517c4560e01b81528460048201527366a9893cc07d91d95644aedd05d03f95e1dba8af60248201526fffffffffffffffffffffffffffffffff6044820152635e0be1004201606482015260008060848360006e22d473030f116ddee9f6b43ac78ba35af190508061053b57600080fd5b505b5050506105c7565b73ba12222222228d8ba445958a75a0704d566bf2c7196001600160a01b038516016105c757600061058a8273ba12222222228d8ba445958a75a0704d566bf2c8610992565b9050722cd76fe086b93ce2f768a00b22a000000000008110156105c5576105c58273ba12222222228d8ba445958a75a0704d566bf2c86109ee565b505b60006001600160a01b038216156105df5760006105e1565b825b9050600080866001600160a01b031683876040516105ff9190610c70565b60006040518083038185875af1925050503d806000811461063c576040519150601f19603f3d011682016040523d82523d6000602084013e610641565b606091505b5091509150818b8a8151811061065957610659610bcc565b911515602092830291909101909101528161068757604051633204506f60e01b815260040160405180910390fd5b60006020825110610699575060208101515b8860ff1660021480156106ac5750600081115b156106bf576106ba81610919565b6106e0565b8860ff1660041480156106d25750600081115b156106e0576106e081610954565b8960010199505050505050505050506102e7565b6001600160a01b038a1661075b576107567f00000000000000000000000000000000000000000000000000000000000000007f00000000000000000000000000000000000000000000000000000000000000006001600160a01b0316316107da565b6107cb565b6107cb8a7f00000000000000000000000000000000000000000000000000000000000000007f00000000000000000000000000000000000000000000000000000000000000006101f48e7f00000000000000000000000000000000000000000000000000000000000000006107f3565b50509998505050505050505050565b60008060008084865af1806107ee57600080fd5b505050565b60006040516370a0823160e01b8152826004820152602081602483875afa8061081b57600080fd5b50519392505050565b6040516323b872dd60e01b81528360048201528260248201528160448201526020816064836000895af18061085857600080fd5b50518061086457600080fd5b5050505050565b60006060600080600080886001600160a01b0316888860405161088f929190610c8c565b600060405180830381855afa9150503d80600081146108ca576040519150601f19603f3d011682016040523d82523d6000602084013e6108cf565b606091505b5091509150816108f257604051633204506f60e01b815260040160405180910390fd5b808060200190518101906109069190610cac565b929c919b50995090975095505050505050565b604051630d0e30db60e41b81526000806004838573c02aaa39b223fe8d0a0e5c4f27ead9083c756cc25af190508061095057600080fd5b5050565b604051632e1a7d4d60e01b8152816004820152600080602483600073c02aaa39b223fe8d0a0e5c4f27ead9083c756cc25af190508061095057600080fd5b6000807f00000000000000000000000000000000000000000000000000000000000000009050604051636eb1769f60e11b8152816004820152836024820152602081604483885afa80156109e557815193505b50505092915050565b60405163095ea7b360e01b815281600482015260001960248201526000806044836000875af19050806107ee57600080fd5b6001600160a01b038116811461018157600080fd5b600060208284031215610a4757600080fd5b8135610a5281610a20565b9392505050565b60008083601f840112610a6b57600080fd5b50813567ffffffffffffffff811115610a8357600080fd5b6020830191508360208260051b8501011115610a9e57600080fd5b9250929050565b600080600080600080600080600060c08a8c031215610ac357600080fd5b8935610ace81610a20565b985060208a0135975060408a0135610ae581610a20565b965060608a013567ffffffffffffffff80821115610b0257600080fd5b610b0e8d838e01610a59565b909850965060808c0135915080821115610b2757600080fd5b610b338d838e01610a59565b909650945060a08c0135915080821115610b4c57600080fd5b50610b598c828d01610a59565b915080935050809150509295985092959850929598565b6020808252825182820181905260009190848201906040850190845b81811015610baa578351151583529284019291840191600101610b8c565b50909695505050505050565b634e487b7160e01b600052604160045260246000fd5b634e487b7160e01b600052603260045260246000fd5b600060208284031215610bf457600080fd5b813560ff81168114610a5257600080fd5b6000808335601e19843603018112610c1c57600080fd5b83018035915067ffffffffffffffff821115610c3757600080fd5b602001915036819003821315610a9e57600080fd5b60005b83811015610c67578181015183820152602001610c4f565b50506000910152565b60008251610c82818460208701610c4c565b9190910192915050565b8183823760009101908152919050565b8051610ca781610a20565b919050565b60008060008060808587031215610cc257600080fd5b8451610ccd81610a20565b602086015190945067ffffffffffffffff80821115610ceb57600080fd5b818701915087601f830112610cff57600080fd5b815181811115610d1157610d11610bb6565b604051601f8201601f19908116603f01168101908382118183101715610d3957610d39610bb6565b816040528281528a6020848701011115610d5257600080fd5b610d63836020830160208801610c4c565b809750505050505060408501519150610d7e60608601610c9c565b90509295919450925056fea26469706673582212208f0034fcef1b36482e26061b634119bc4ce8392c34ea909c171c4f21a90f7e0964736f6c63430008140033",
  "linkReferences": {},
  "deployedLinkReferences": {}
}