{
  "_format": "hh-sol-artifact-1",
  "contractName": "WalletBundler",
  "sourceName": "contracts/WalletBundler.sol",
  "abi": [
    {
      "inputs": [],
      "stateMutability": "nonpayable",
      "type": "constructor"
    },
    {
      "inputs": [],
      "name": "CallFailed",
      "type": "error"
    },
    {
      "inputs": [],
      "name": "Unauthorized",
      "type": "error"
    },
    {
      "inputs": [
        {
          "internalType": "address",
          "name": "fromToken",
          "type": "address"
        },
        {
          "internalType": "uint256",
          "name": "fromAmount",
          "type": "uint256"
        },
        {
          "internalType": "address",
          "name": "toToken",
          "type": "address"
        },
        {
          "internalType": "address[]",
          "name": "encoderTargets",
          "type": "address[]"
        },
        {
          "internalType": "bytes[]",
          "name": "encoderData",
          "type": "bytes[]"
        },
        {
          "internalType": "uint8[]",
          "name": "wrapOperations",
          "type": "uint8[]"
        }
      ],
      "name": "encodeAndExecuteaaaaaYops",
      "outputs": [
        {
          "internalType": "bool[]",
          "name": "results",
          "type": "bool[]"
        }
      ],
      "stateMutability": "payable",
      "type": "function"
    },
    {
      "inputs": [],
      "name": "owner",
      "outputs": [
        {
          "internalType": "address",
          "name": "",
          "type": "address"
        }
      ],
      "stateMutability": "view",
      "type": "function"
    },
    {
      "inputs": [
        {
          "internalType": "address",
          "name": "token",
          "type": "address"
        }
      ],
      "name": "withdraw",
      "outputs": [],
      "stateMutability": "nonpayable",
      "type": "function"
    },
    {
      "stateMutability": "payable",
      "type": "receive"
    }
  ],
  "bytecode": "0x60c060405234801561001057600080fd5b50336080523060a05260408051631e7f29df60e31b81529051734df4b688d6f7954f6f53787b2e2778720bab5d289163f3f94ef891600480830192600092919082900301818387803b15801561006557600080fd5b505af1158015610079573d6000803e3d6000fd5b5050505060805160a051610e216101096000396000818161015c015281816102a2015281816103200152818161037201528181610654015281816106b201528181610766015281816107c2015261099a01526000818160a10152818160e80152818161013b015281816106330152818161068d015281816106f501528181610745015261079d0152610e216000f3fe6080604052600436106100385760003560e01c806330ace1b11461004457806351cff8d91461006d5780638da5cb5b1461008f57600080fd5b3661003f57005b600080fd5b610057610052366004610ae3565b6100db565b6040516100649190610bae565b60405180910390f35b34801561007957600080fd5b5061008d610088366004610bf4565b6106ea565b005b34801561009b57600080fd5b506100c37f000000000000000000000000000000000000000000000000000000000000000081565b6040516001600160a01b039091168152602001610064565b6060336001600160a01b037f00000000000000000000000000000000000000000000000000000000000000001614610125576040516282b42960e81b815260040160405180910390fd5b856001600160a01b038b1615610181576101818b7f00000000000000000000000000000000000000000000000000000000000000007f00000000000000000000000000000000000000000000000000000000000000008d6107e6565b8067ffffffffffffffff81111561019a5761019a610c18565b6040519080825280602002602001820160405280156101c3578160200160208202803683370190505b50915060005b818110156106205760008585838181106101e5576101e5610c2e565b90506020020160208101906101fa9190610c44565b90506000806000806102558e8e8881811061021757610217610c2e565b905060200201602081019061022c9190610bf4565b8d8d8981811061023e5761023e610c2e565b90506020028101906102509190610c67565b61082d565b93509350935093508460ff1660010361027657610271826108db565b61028a565b8460ff1660030361028a5761028a82610916565b6001600160a01b0381166102df576001600160a01b037f00000000000000000000000000000000000000000000000000000000000000001631828110156102d9578083036102d781610916565b505b5061035e565b73c02aaa39b223fe8d0a0e5c4f27ead9083c756cc1196001600160a01b0382160161035e57600061034473c02aaa39b223fe8d0a0e5c4f27ead9083c756cc27f0000000000000000000000000000000000000000000000000000000000000000610954565b90508281101561035c5780830361035a816108db565b505b505b6001600160a01b0381161561050f576000807f0000000000000000000000000000000000000000000000000000000000000000905060405163927da10560e01b8152816004820152836024820152866044820152608081016060816064846e22d473030f116ddee9f6b43ac78ba35afa915081156103db57805193505b5050722cd76fe086b93ce2f768a00b22a0000000000082101561050c57722cd76fe086b93ce2f768a00b22a00000000000610425846e22d473030f116ddee9f6b43ac78ba3610995565b101561044457610444836e22d473030f116ddee9f6b43ac78ba36109f7565b6040516387517c4560e01b81528360048201528660248201526001600160801b03604482015265ffffffffffff606482015260008060848360006e22d473030f116ddee9f6b43ac78ba35af190508061049c57600080fd5b5060006e04444c5dc75cb358380d2e3de08a9090506040516387517c4560e01b81528460048201528160248201526001600160801b03604482015265ffffffffffff606482015260008060848360006e22d473030f116ddee9f6b43ac78ba35af190508061050957600080fd5b50505b50505b60006001600160a01b03821615610527576000610529565b825b9050600080866001600160a01b031683876040516105479190610cd2565b60006040518083038185875af1925050503d8060008114610584576040519150601f19603f3d011682016040523d82523d6000602084013e610589565b606091505b5091509150816105ac57604051633204506f60e01b815260040160405180910390fd5b818b8a815181106105bf576105bf610c2e565b9115156020928302919091018201528151600091116105df575060208101515b8860ff166002036105f8576105f3816108db565b61060c565b8860ff1660040361060c5761060c81610916565b8960010199505050505050505050506101c9565b6001600160a01b038a16610687576106827f00000000000000000000000000000000000000000000000000000000000000007f00000000000000000000000000000000000000000000000000000000000000006001600160a01b031631610a2e565b6106db565b6106db8a7f00000000000000000000000000000000000000000000000000000000000000006106d68d7f0000000000000000000000000000000000000000000000000000000000000000610954565b610a42565b50509998505050505050505050565b336001600160a01b037f00000000000000000000000000000000000000000000000000000000000000001614610732576040516282b42960e81b815260040160405180910390fd5b6001600160a01b038116610797576107947f00000000000000000000000000000000000000000000000000000000000000007f00000000000000000000000000000000000000000000000000000000000000006001600160a01b031631610a2e565b50565b610794817f00000000000000000000000000000000000000000000000000000000000000006106d6847f0000000000000000000000000000000000000000000000000000000000000000610954565b6040516323b872dd60e01b81528360048201528260248201528160448201526020816064836000895af18061081a57600080fd5b50518061082657600080fd5b5050505050565b60006060600080600080886001600160a01b03168888604051610851929190610cee565b600060405180830381855afa9150503d806000811461088c576040519150601f19603f3d011682016040523d82523d6000602084013e610891565b606091505b5091509150816108b457604051633204506f60e01b815260040160405180910390fd5b808060200190518101906108c89190610d0e565b929c919b50995090975095505050505050565b604051630d0e30db60e41b81526000806004838573c02aaa39b223fe8d0a0e5c4f27ead9083c756cc25af190508061091257600080fd5b5050565b604051632e1a7d4d60e01b8152816004820152600080602483600073c02aaa39b223fe8d0a0e5c4f27ead9083c756cc25af190508061091257600080fd5b60006040516370a0823160e01b815282600482015260408101602081602484885afa91508161098257600080fd5b3d61098c57600080fd5b51949350505050565b6000807f00000000000000000000000000000000000000000000000000000000000000009050604051636eb1769f60e11b815281600482015283602482015260608101602081604484895afa915081156109ee57805193505b50505092915050565b60405163095ea7b360e01b815281600482015260001960248201526000806044836000875af1905080610a2957600080fd5b505050565b60008060008084865af180610a2957600080fd5b60405163a9059cbb60e01b81528260048201528160248201526020816044836000885af180610a7057600080fd5b505180610a7c57600080fd5b50505050565b6001600160a01b038116811461079457600080fd5b60008083601f840112610aa957600080fd5b50813567ffffffffffffffff811115610ac157600080fd5b6020830191508360208260051b8501011115610adc57600080fd5b9250929050565b600080600080600080600080600060c08a8c031215610b0157600080fd5b8935610b0c81610a82565b985060208a0135975060408a0135610b2381610a82565b965060608a013567ffffffffffffffff80821115610b4057600080fd5b610b4c8d838e01610a97565b909850965060808c0135915080821115610b6557600080fd5b610b718d838e01610a97565b909650945060a08c0135915080821115610b8a57600080fd5b50610b978c828d01610a97565b915080935050809150509295985092959850929598565b6020808252825182820181905260009190848201906040850190845b81811015610be8578351151583529284019291840191600101610bca565b50909695505050505050565b600060208284031215610c0657600080fd5b8135610c1181610a82565b9392505050565b634e487b7160e01b600052604160045260246000fd5b634e487b7160e01b600052603260045260246000fd5b600060208284031215610c5657600080fd5b813560ff81168114610c1157600080fd5b6000808335601e19843603018112610c7e57600080fd5b83018035915067ffffffffffffffff821115610c9957600080fd5b602001915036819003821315610adc57600080fd5b60005b83811015610cc9578181015183820152602001610cb1565b50506000910152565b60008251610ce4818460208701610cae565b9190910192915050565b8183823760009101908152919050565b8051610d0981610a82565b919050565b60008060008060808587031215610d2457600080fd5b8451610d2f81610a82565b602086015190945067ffffffffffffffff80821115610d4d57600080fd5b818701915087601f830112610d6157600080fd5b815181811115610d7357610d73610c18565b604051601f8201601f19908116603f01168101908382118183101715610d9b57610d9b610c18565b816040528281528a6020848701011115610db457600080fd5b610dc5836020830160208801610cae565b809750505050505060408501519150610de060608601610cfe565b90509295919450925056fea2646970667358221220b181cfcecccd87bc99a79f7e11da701cd3128295caee55ebd57ea50a341259b264736f6c63430008140033",
  "linkReferences": {},
  "deployedLinkReferences": {}
}