{
  "_format": "hh-sol-artifact-1",
  "contractName": "WalletBundler",
  "sourceName": "contracts/WalletBundler.sol",
  "abi": [
    {
      "inputs": [],
      "stateMutability": "nonpayable",
      "type": "constructor"
    },
    {
      "inputs": [],
      "name": "CallFailed",
      "type": "error"
    },
    {
      "inputs": [],
      "name": "Unauthorized",
      "type": "error"
    },
    {
      "inputs": [
        {
          "internalType": "address",
          "name": "fromToken",
          "type": "address"
        },
        {
          "internalType": "uint256",
          "name": "fromAmount",
          "type": "uint256"
        },
        {
          "internalType": "address",
          "name": "toToken",
          "type": "address"
        },
        {
          "internalType": "address[]",
          "name": "encoderTargets",
          "type": "address[]"
        },
        {
          "internalType": "bytes[]",
          "name": "encoderData",
          "type": "bytes[]"
        },
        {
          "internalType": "uint8[]",
          "name": "wrapOperations",
          "type": "uint8[]"
        }
      ],
      "name": "encodeAndExecute",
      "outputs": [
        {
          "internalType": "bool[]",
          "name": "results",
          "type": "bool[]"
        }
      ],
      "stateMutability": "payable",
      "type": "function"
    },
    {
      "inputs": [],
      "name": "owner",
      "outputs": [
        {
          "internalType": "address",
          "name": "",
          "type": "address"
        }
      ],
      "stateMutability": "view",
      "type": "function"
    },
    {
      "inputs": [
        {
          "internalType": "address",
          "name": "token",
          "type": "address"
        }
      ],
      "name": "withdraw",
      "outputs": [],
      "stateMutability": "nonpayable",
      "type": "function"
    },
    {
      "stateMutability": "payable",
      "type": "receive"
    }
  ],
  "bytecode": "0x60c060405234801561001057600080fd5b50336080523060a05260805160a051610d866100a5600039600081816101530152818161018a015281816101d00152818161027a015281816103e1015281816106ef015281816107280152818161076e015261099001526000818160780152818160e201528181610132015281816101ab0152818161020601528181610259015281816106ce01526107490152610d866000f3fe6080604052600436106100385760003560e01c806351cff8d9146100445780638da5cb5b14610066578063dd76f8f1146100b757600080fd5b3661003f57005b600080fd5b34801561005057600080fd5b5061006461005f3660046109fc565b6100d7565b005b34801561007257600080fd5b5061009a7f000000000000000000000000000000000000000000000000000000000000000081565b6040516001600160a01b0390911681526020015b60405180910390f35b6100ca6100c5366004610a6c565b6101f9565b6040516100ae9190610b37565b336001600160a01b037f0000000000000000000000000000000000000000000000000000000000000000161461011f576040516282b42960e81b815260040160405180910390fd5b6001600160a01b038116610184576101817f00000000000000000000000000000000000000000000000000000000000000007f00000000000000000000000000000000000000000000000000000000000000006001600160a01b0316316107a1565b50565b610181817f00000000000000000000000000000000000000000000000000000000000000007f00000000000000000000000000000000000000000000000000000000000000006101f4857f00000000000000000000000000000000000000000000000000000000000000006107ba565b6107eb565b6060336001600160a01b037f00000000000000000000000000000000000000000000000000000000000000001614610243576040516282b42960e81b815260040160405180910390fd5b856001600160a01b038b161561029f5761029f8b7f00000000000000000000000000000000000000000000000000000000000000007f00000000000000000000000000000000000000000000000000000000000000008d6107eb565b8067ffffffffffffffff8111156102b8576102b8610b7d565b6040519080825280602002602001820160405280156102e1578160200160208202803683370190505b50915060005b818110156106bb57600085858381811061030357610303610b93565b90506020020160208101906103189190610ba9565b90506000806000806103738e8e8881811061033557610335610b93565b905060200201602081019061034a91906109fc565b8d8d8981811061035c5761035c610b93565b905060200281019061036e9190610bcc565b610832565b93509350935093508460ff166001036103945761038f826108e0565b6103a8565b8460ff166003036103a8576103a88261091b565b6001600160a01b0381161561058e577366a9893cc07d91d95644aedd05d03f95e1dba8ae196001600160a01b0385160161050c576000807f0000000000000000000000000000000000000000000000000000000000000000905060405163927da10560e01b81528160048201528360248201527366a9893cc07d91d95644aedd05d03f95e1dba8af60448201526060816064836e22d473030f116ddee9f6b43ac78ba35afa801561045857815193505b5050722cd76fe086b93ce2f768a00b22a000000000008210156105055761048e836e22d473030f116ddee9f6b43ac78ba3610959565b6040516387517c4560e01b81528360048201527366a9893cc07d91d95644aedd05d03f95e1dba8af60248201526fffffffffffffffffffffffffffffffff6044820152635e0be1004201606482015260008060848360006e22d473030f116ddee9f6b43ac78ba35af190508061050357600080fd5b505b505061058e565b73ba12222222228d8ba445958a75a0704d566bf2c7196001600160a01b0385160161058e5760006105518273ba12222222228d8ba445958a75a0704d566bf2c861098b565b9050722cd76fe086b93ce2f768a00b22a0000000000081101561058c5761058c8273ba12222222228d8ba445958a75a0704d566bf2c8610959565b505b60006001600160a01b038216156105a65760006105a8565b825b9050600080866001600160a01b031683876040516105c69190610c37565b60006040518083038185875af1925050503d8060008114610603576040519150601f19603f3d011682016040523d82523d6000602084013e610608565b606091505b5091509150818b8a8151811061062057610620610b93565b911515602092830291909101909101528161064e57604051633204506f60e01b815260040160405180910390fd5b60006020825110610660575060208101515b8860ff1660021480156106735750600081115b1561068657610681816108e0565b6106a7565b8860ff1660041480156106995750600081115b156106a7576106a78161091b565b8960010199505050505050505050506102e7565b6001600160a01b038a166107225761071d7f00000000000000000000000000000000000000000000000000000000000000007f00000000000000000000000000000000000000000000000000000000000000006001600160a01b0316316107a1565b610792565b6107928a7f00000000000000000000000000000000000000000000000000000000000000007f00000000000000000000000000000000000000000000000000000000000000006101f48e7f00000000000000000000000000000000000000000000000000000000000000006107ba565b50509998505050505050505050565b60008060008084865af1806107b557600080fd5b505050565b60006040516370a0823160e01b8152826004820152602081602483875afa806107e257600080fd5b50519392505050565b6040516323b872dd60e01b81528360048201528260248201528160448201526020816064836000895af18061081f57600080fd5b50518061082b57600080fd5b5050505050565b60006060600080600080886001600160a01b03168888604051610856929190610c53565b600060405180830381855afa9150503d8060008114610891576040519150601f19603f3d011682016040523d82523d6000602084013e610896565b606091505b5091509150816108b957604051633204506f60e01b815260040160405180910390fd5b808060200190518101906108cd9190610c73565b929c919b50995090975095505050505050565b604051630d0e30db60e41b81526000806004838573c02aaa39b223fe8d0a0e5c4f27ead9083c756cc25af190508061091757600080fd5b5050565b604051632e1a7d4d60e01b8152816004820152600080602483600073c02aaa39b223fe8d0a0e5c4f27ead9083c756cc25af190508061091757600080fd5b60405163095ea7b360e01b815281600482015260001960248201526000806044836000875af19050806107b557600080fd5b6000807f00000000000000000000000000000000000000000000000000000000000000009050604051636eb1769f60e11b8152816004820152836024820152602081604483885afa80156109de57815193505b50505092915050565b6001600160a01b038116811461018157600080fd5b600060208284031215610a0e57600080fd5b8135610a19816109e7565b9392505050565b60008083601f840112610a3257600080fd5b50813567ffffffffffffffff811115610a4a57600080fd5b6020830191508360208260051b8501011115610a6557600080fd5b9250929050565b600080600080600080600080600060c08a8c031215610a8a57600080fd5b8935610a95816109e7565b985060208a0135975060408a0135610aac816109e7565b965060608a013567ffffffffffffffff80821115610ac957600080fd5b610ad58d838e01610a20565b909850965060808c0135915080821115610aee57600080fd5b610afa8d838e01610a20565b909650945060a08c0135915080821115610b1357600080fd5b50610b208c828d01610a20565b915080935050809150509295985092959850929598565b6020808252825182820181905260009190848201906040850190845b81811015610b71578351151583529284019291840191600101610b53565b50909695505050505050565b634e487b7160e01b600052604160045260246000fd5b634e487b7160e01b600052603260045260246000fd5b600060208284031215610bbb57600080fd5b813560ff81168114610a1957600080fd5b6000808335601e19843603018112610be357600080fd5b83018035915067ffffffffffffffff821115610bfe57600080fd5b602001915036819003821315610a6557600080fd5b60005b83811015610c2e578181015183820152602001610c16565b50506000910152565b60008251610c49818460208701610c13565b9190910192915050565b8183823760009101908152919050565b8051610c6e816109e7565b919050565b60008060008060808587031215610c8957600080fd5b8451610c94816109e7565b602086015190945067ffffffffffffffff80821115610cb257600080fd5b818701915087601f830112610cc657600080fd5b815181811115610cd857610cd8610b7d565b604051601f8201601f19908116603f01168101908382118183101715610d0057610d00610b7d565b816040528281528a6020848701011115610d1957600080fd5b610d2a836020830160208801610c13565b809750505050505060408501519150610d4560608601610c63565b90509295919450925056fea2646970667358221220c2b9a84cb90e2a97b89e9c5ba9b0455e2d9c43600a9c1017bd1c8a657ef965a064736f6c63430008140033",
  "linkReferences": {},
  "deployedLinkReferences": {}
}