{
  "_format": "hh-sol-artifact-1",
  "contractName": "WalletBundler",
  "sourceName": "contracts/WalletBundler.sol",
  "abi": [
    {
      "inputs": [],
      "stateMutability": "nonpayable",
      "type": "constructor"
    },
    {
      "inputs": [],
      "name": "CallFailed",
      "type": "error"
    },
    {
      "inputs": [],
      "name": "Unauthorized",
      "type": "error"
    },
    {
      "inputs": [
        {
          "internalType": "address",
          "name": "fromToken",
          "type": "address"
        },
        {
          "internalType": "uint256",
          "name": "fromAmount",
          "type": "uint256"
        },
        {
          "internalType": "address",
          "name": "toToken",
          "type": "address"
        },
        {
          "internalType": "address[]",
          "name": "encoderTargets",
          "type": "address[]"
        },
        {
          "internalType": "bytes[]",
          "name": "encoderData",
          "type": "bytes[]"
        },
        {
          "internalType": "uint8[]",
          "name": "wrapOperations",
          "type": "uint8[]"
        }
      ],
      "name": "encodeAndExecuteaaaaaYops",
      "outputs": [
        {
          "internalType": "bool[]",
          "name": "results",
          "type": "bool[]"
        }
      ],
      "stateMutability": "payable",
      "type": "function"
    },
    {
      "inputs": [],
      "name": "owner",
      "outputs": [
        {
          "internalType": "address",
          "name": "",
          "type": "address"
        }
      ],
      "stateMutability": "view",
      "type": "function"
    },
    {
      "inputs": [
        {
          "internalType": "bytes",
          "name": "data",
          "type": "bytes"
        }
      ],
      "name": "unlockCallback",
      "outputs": [
        {
          "internalType": "bytes",
          "name": "",
          "type": "bytes"
        }
      ],
      "stateMutability": "nonpayable",
      "type": "function"
    },
    {
      "inputs": [
        {
          "internalType": "address",
          "name": "token",
          "type": "address"
        }
      ],
      "name": "withdraw",
      "outputs": [],
      "stateMutability": "nonpayable",
      "type": "function"
    },
    {
      "stateMutability": "payable",
      "type": "receive"
    }
  ],
  "bytecode": "0x60c060405234801561001057600080fd5b50336080523060a05260408051631e7f29df60e31b81529051734df4b688d6f7954f6f53787b2e2778720bab5d289163f3f94ef891600480830192600092919082900301818387803b15801561006557600080fd5b505af1158015610079573d6000803e3d6000fd5b5050505060805160a05161153b61010a60003960008181610194015281816102da01528181610358015281816103da01528181610745015281816107a301528181610857015281816108b30152610d6701526000818160ac0152818161012001528181610173015281816107240152818161077e015281816107e601528181610836015261088e015261153b6000f3fe6080604052600436106100435760003560e01c806330ace1b11461004f57806351cff8d9146100785780638da5cb5b1461009a57806391dd7346146100e657600080fd5b3661004a57005b600080fd5b61006261005d366004610ec0565b610113565b60405161006f9190610f8b565b60405180910390f35b34801561008457600080fd5b50610098610093366004610fd1565b6107db565b005b3480156100a657600080fd5b506100ce7f000000000000000000000000000000000000000000000000000000000000000081565b6040516001600160a01b03909116815260200161006f565b3480156100f257600080fd5b50610106610101366004610ff5565b6108d7565b60405161006f919061108b565b6060336001600160a01b037f0000000000000000000000000000000000000000000000000000000000000000161461015d576040516282b42960e81b815260040160405180910390fd5b856001600160a01b038b16156101b9576101b98b7f00000000000000000000000000000000000000000000000000000000000000007f00000000000000000000000000000000000000000000000000000000000000008d610b40565b8067ffffffffffffffff8111156101d2576101d26110be565b6040519080825280602002602001820160405280156101fb578160200160208202803683370190505b50915060005b8181101561071157600085858381811061021d5761021d6110d4565b905060200201602081019061023291906110ea565b905060008060008061028d8e8e8881811061024f5761024f6110d4565b90506020020160208101906102649190610fd1565b8d8d89818110610276576102766110d4565b9050602002810190610288919061110d565b610b87565b93509350935093508460ff166001036102ae576102a982610ca8565b6102c2565b8460ff166003036102c2576102c282610ce3565b6001600160a01b038116610317576001600160a01b037f00000000000000000000000000000000000000000000000000000000000000001631828110156103115780830361030f81610ce3565b505b50610396565b73c02aaa39b223fe8d0a0e5c4f27ead9083c756cc1196001600160a01b0382160161039657600061037c73c02aaa39b223fe8d0a0e5c4f27ead9083c756cc27f0000000000000000000000000000000000000000000000000000000000000000610d21565b9050828110156103945780830361039281610ca8565b505b505b6001600160a01b038116158015906103cb57506001600160a01b0384167366a9893cc07d91d95644aedd05d03f95e1dba8af14155b156105135760008490506000807f0000000000000000000000000000000000000000000000000000000000000000905060405163927da10560e01b8152816004820152846024820152836044820152608081016060816064846e22d473030f116ddee9f6b43ac78ba35afa9150811561044357805193505b5050722cd76fe086b93ce2f768a00b22a0000000000082101561050f57722cd76fe086b93ce2f768a00b22a0000000000061048d856e22d473030f116ddee9f6b43ac78ba3610d62565b10156104ac576104ac846e22d473030f116ddee9f6b43ac78ba3610dc4565b6040516387517c4560e01b81528460048201528360248201526fffffffffffffffffffffffffffffffff604482015265ffffffffffff606482015260008060848360006e22d473030f116ddee9f6b43ac78ba35af190508061050d57600080fd5b505b5050505b600060607366a9893cc07d91d95644aedd05d03f95e1dba8ae196001600160a01b03871601610601576040516348c8949160e01b81526000906e04444c5dc75cb358380d2e3de08a90906348c894919061057190899060040161108b565b6000604051808303816000875af1158015610590573d6000803e3d6000fd5b505050506040513d6000823e601f3d908101601f191682016040526105b89190810190611205565b90506000818060200190518101906105d09190611242565b9050806040516020016105e591815260200190565b604051602081830303815290604052925060019350505061069e565b60006001600160a01b0384161561061957600061061b565b845b9050866001600160a01b03168187604051610636919061125b565b60006040518083038185875af1925050503d8060008114610673576040519150601f19603f3d011682016040523d82523d6000602084013e610678565b606091505b5090935091508261069c57604051633204506f60e01b815260040160405180910390fd5b505b818a89815181106106b1576106b16110d4565b9115156020928302919091018201528151600091116106d1575060208101515b8760ff166002036106ea576106e581610ca8565b6106fe565b8760ff166004036106fe576106fe81610ce3565b8860010198505050505050505050610201565b6001600160a01b038a16610778576107737f00000000000000000000000000000000000000000000000000000000000000007f00000000000000000000000000000000000000000000000000000000000000006001600160a01b031631610dfb565b6107cc565b6107cc8a7f00000000000000000000000000000000000000000000000000000000000000006107c78d7f0000000000000000000000000000000000000000000000000000000000000000610d21565b610e0f565b50509998505050505050505050565b336001600160a01b037f00000000000000000000000000000000000000000000000000000000000000001614610823576040516282b42960e81b815260040160405180910390fd5b6001600160a01b038116610888576108857f00000000000000000000000000000000000000000000000000000000000000007f00000000000000000000000000000000000000000000000000000000000000006001600160a01b031631610dfb565b50565b610885817f00000000000000000000000000000000000000000000000000000000000000006107c7847f0000000000000000000000000000000000000000000000000000000000000000610d21565b60606e04444c5dc75cb358380d2e3de08a903381146109305760405162461bcd60e51b815260206004820152601060248201526f27b7363c902837b7b626b0b730b3b2b960811b60448201526064015b60405180910390fd5b600080808080610942888a018a6112e9565b945094509450945094506000866001600160a01b031663f3cd914c85856040518363ffffffff1660e01b815260040161097c9291906113c5565b6020604051808303816000875af115801561099b573d6000803e3d6000fd5b505050506040513d601f19601f820116820180604052508101906109bf9190611242565b90506000808460000151156109eb576109db608084901d61144b565b600f0b915082600f0b9050610a04565b6109f48361144b565b600f0b9150608083901d600f0b90505b6001600160a01b038816610a3b57604051630476982d60e21b8152600080600483868e5af1905080610a3557600080fd5b50610a97565b604051632961046560e21b815288600482015260008060248360008e5af1905080610a6557600080fd5b50610a71888a84610e0f565b604051630476982d60e21b815260008060048360008e5af1905080610a9557600080fd5b505b604051630b0d9c0960e01b815287600482015230602482015281604482015260008060648360008e5af1905080610acd57600080fd5b5083811015610b145760405162461bcd60e51b8152602060048201526013602482015272125b9cdd59999a58da595b9d081bdd5d1c1d5d606a1b6044820152606401610927565b604080516020810183905201604051602081830303815290604052995050505050505050505092915050565b6040516323b872dd60e01b81528360048201528260248201528160448201526020816064836000895af180610b7457600080fd5b505180610b8057600080fd5b5050505050565b6000606081806001600160a01b038716610bfe575050604080516020601f86018190048102820181019092528481527366a9893cc07d91d95644aedd05d03f95e1dba8af935061010086013560000391863591908790879081908401838280828437600092019190915250929550610c9f92505050565b600080886001600160a01b03168888604051610c1b929190611488565b600060405180830381855afa9150503d8060008114610c56576040519150601f19603f3d011682016040523d82523d6000602084013e610c5b565b606091505b509150915081610c7e57604051633204506f60e01b815260040160405180910390fd5b80806020019051810190610c929190611498565b9298509096509450925050505b93509350935093565b604051630d0e30db60e41b81526000806004838573c02aaa39b223fe8d0a0e5c4f27ead9083c756cc25af1905080610cdf57600080fd5b5050565b604051632e1a7d4d60e01b8152816004820152600080602483600073c02aaa39b223fe8d0a0e5c4f27ead9083c756cc25af1905080610cdf57600080fd5b60006040516370a0823160e01b815282600482015260408101602081602484885afa915081610d4f57600080fd5b3d610d5957600080fd5b51949350505050565b6000807f00000000000000000000000000000000000000000000000000000000000000009050604051636eb1769f60e11b815281600482015283602482015260608101602081604484895afa91508115610dbb57805193505b50505092915050565b60405163095ea7b360e01b815281600482015260001960248201526000806044836000875af1905080610df657600080fd5b505050565b60008060008084865af180610df657600080fd5b60405163a9059cbb60e01b81528260048201528160248201526020816044836000885af180610e3d57600080fd5b505180610e4957600080fd5b50505050565b6001600160a01b038116811461088557600080fd5b8035610e6f81610e4f565b919050565b60008083601f840112610e8657600080fd5b50813567ffffffffffffffff811115610e9e57600080fd5b6020830191508360208260051b8501011115610eb957600080fd5b9250929050565b600080600080600080600080600060c08a8c031215610ede57600080fd5b8935610ee981610e4f565b985060208a0135975060408a0135610f0081610e4f565b965060608a013567ffffffffffffffff80821115610f1d57600080fd5b610f298d838e01610e74565b909850965060808c0135915080821115610f4257600080fd5b610f4e8d838e01610e74565b909650945060a08c0135915080821115610f6757600080fd5b50610f748c828d01610e74565b915080935050809150509295985092959850929598565b6020808252825182820181905260009190848201906040850190845b81811015610fc5578351151583529284019291840191600101610fa7565b50909695505050505050565b600060208284031215610fe357600080fd5b8135610fee81610e4f565b9392505050565b6000806020838503121561100857600080fd5b823567ffffffffffffffff8082111561102057600080fd5b818501915085601f83011261103457600080fd5b81358181111561104357600080fd5b86602082850101111561105557600080fd5b60209290920196919550909350505050565b60005b8381101561108257818101518382015260200161106a565b50506000910152565b60208152600082518060208401526110aa816040850160208701611067565b601f01601f19169190910160400192915050565b634e487b7160e01b600052604160045260246000fd5b634e487b7160e01b600052603260045260246000fd5b6000602082840312156110fc57600080fd5b813560ff81168114610fee57600080fd5b6000808335601e1984360301811261112457600080fd5b83018035915067ffffffffffffffff82111561113f57600080fd5b602001915036819003821315610eb957600080fd5b60405160a0810167ffffffffffffffff81118282101715611177576111776110be565b60405290565b600082601f83011261118e57600080fd5b815167ffffffffffffffff808211156111a9576111a96110be565b604051601f8301601f19908116603f011681019082821181831017156111d1576111d16110be565b816040528381528660208588010111156111ea57600080fd5b6111fb846020830160208901611067565b9695505050505050565b60006020828403121561121757600080fd5b815167ffffffffffffffff81111561122e57600080fd5b61123a8482850161117d565b949350505050565b60006020828403121561125457600080fd5b5051919050565b6000825161126d818460208701611067565b9190910192915050565b60006060828403121561128957600080fd5b6040516060810181811067ffffffffffffffff821117156112ac576112ac6110be565b604052905080823580151581146112c257600080fd5b81526020838101359082015260408301356112dc81610e4f565b6040919091015292915050565b600080600080600085870361016081121561130357600080fd5b863561130e81610e4f565b9550602087013561131e81610e4f565b945060a0603f198201121561133257600080fd5b5061133b611154565b604087013561134981610e4f565b8152606087013561135981610e4f565b6020820152608087013562ffffff8116811461137457600080fd5b604082015260a0870135600281900b811461138e57600080fd5b606082015261139f60c08801610e64565b608082015292506113b38760e08801611277565b94979396509194610140013592915050565b600061012060018060a01b0380865116845280602087015116602085015262ffffff6040870151166040850152606086015160020b60608501528060808701511660808501528451151560a0850152602085015160c08501528060408601511660e085015250806101008401526114428184016000815260200190565b95945050505050565b600081600f0b6f7fffffffffffffffffffffffffffffff19810361147f57634e487b7160e01b600052601160045260246000fd5b60000392915050565b8183823760009101908152919050565b600080600080608085870312156114ae57600080fd5b84516114b981610e4f565b602086015190945067ffffffffffffffff8111156114d657600080fd5b6114e28782880161117d565b9350506040850151915060608501516114fa81610e4f565b93969295509093505056fea2646970667358221220bd6eddac10693f6df57d4b4a5514aaabf34db99416c58ff296a9ae7ca25362b064736f6c63430008140033",
  "linkReferences": {},
  "deployedLinkReferences": {}
}