{
  "_format": "hh-sol-artifact-1",
  "contractName": "WalletBundler",
  "sourceName": "contracts/WalletBundler.sol",
  "abi": [
    {
      "inputs": [],
      "stateMutability": "nonpayable",
      "type": "constructor"
    },
    {
      "inputs": [],
      "name": "CallFailed",
      "type": "error"
    },
    {
      "inputs": [],
      "name": "Unauthorized",
      "type": "error"
    },
    {
      "inputs": [
        {
          "internalType": "address",
          "name": "fromToken",
          "type": "address"
        },
        {
          "internalType": "uint256",
          "name": "fromAmount",
          "type": "uint256"
        },
        {
          "internalType": "address",
          "name": "toToken",
          "type": "address"
        },
        {
          "internalType": "address[]",
          "name": "encoderTargets",
          "type": "address[]"
        },
        {
          "internalType": "bytes[]",
          "name": "encoderData",
          "type": "bytes[]"
        },
        {
          "internalType": "uint8[]",
          "name": "wrapOperations",
          "type": "uint8[]"
        }
      ],
      "name": "encodeAndExecuteaaaaaYops",
      "outputs": [
        {
          "internalType": "bool[]",
          "name": "results",
          "type": "bool[]"
        }
      ],
      "stateMutability": "payable",
      "type": "function"
    },
    {
      "inputs": [],
      "name": "owner",
      "outputs": [
        {
          "internalType": "address",
          "name": "",
          "type": "address"
        }
      ],
      "stateMutability": "view",
      "type": "function"
    },
    {
      "inputs": [
        {
          "internalType": "address",
          "name": "fromToken",
          "type": "address"
        },
        {
          "internalType": "uint256",
          "name": "fromAmount",
          "type": "uint256"
        },
        {
          "internalType": "address",
          "name": "toToken",
          "type": "address"
        },
        {
          "components": [
            {
              "internalType": "address",
              "name": "currency0",
              "type": "address"
            },
            {
              "internalType": "address",
              "name": "currency1",
              "type": "address"
            },
            {
              "internalType": "uint24",
              "name": "fee",
              "type": "uint24"
            },
            {
              "internalType": "int24",
              "name": "tickSpacing",
              "type": "int24"
            },
            {
              "internalType": "address",
              "name": "hooks",
              "type": "address"
            }
          ],
          "internalType": "struct PoolKey",
          "name": "poolKey",
          "type": "tuple"
        },
        {
          "internalType": "bool",
          "name": "zeroForOne",
          "type": "bool"
        },
        {
          "internalType": "int256",
          "name": "amountSpecified",
          "type": "int256"
        },
        {
          "internalType": "uint160",
          "name": "sqrtPriceLimitX96",
          "type": "uint160"
        },
        {
          "internalType": "uint256",
          "name": "minOutputAmount",
          "type": "uint256"
        }
      ],
      "name": "swapDirectV4",
      "outputs": [
        {
          "internalType": "uint256",
          "name": "outputAmount",
          "type": "uint256"
        }
      ],
      "stateMutability": "payable",
      "type": "function"
    },
    {
      "inputs": [
        {
          "internalType": "bytes",
          "name": "data",
          "type": "bytes"
        }
      ],
      "name": "unlockCallback",
      "outputs": [
        {
          "internalType": "bytes",
          "name": "",
          "type": "bytes"
        }
      ],
      "stateMutability": "nonpayable",
      "type": "function"
    },
    {
      "inputs": [
        {
          "internalType": "address",
          "name": "token",
          "type": "address"
        }
      ],
      "name": "withdraw",
      "outputs": [],
      "stateMutability": "nonpayable",
      "type": "function"
    },
    {
      "stateMutability": "payable",
      "type": "receive"
    }
  ],
  "bytecode": "0x60c060405234801561001057600080fd5b50336080523060a05260408051631e7f29df60e31b81529051734df4b688d6f7954f6f53787b2e2778720bab5d289163f3f94ef891600480830192600092919082900301818387803b15801561006557600080fd5b505af1158015610079573d6000803e3d6000fd5b5050505060805160a051611947610142600039600081816101c00152818161030601528181610384015281816103d6015281816106b801528181610716015281816107ce015281816108cd0152818161092d01528181610a5201528181610aae01528181610df4015261108701526000818160d80152818161014c0152818161019f01528181610697015281816106f10152818161075b015281816107ad015281816108fd01528181610959015281816109e101528181610a310152610a8901526119476000f3fe60806040526004361061004e5760003560e01c806330ace1b11461005a578063435edab61461008357806351cff8d9146100a45780638da5cb5b146100c657806391dd73461461011257600080fd5b3661005557005b600080fd5b61006d6100683660046111d0565b61013f565b60405161007a919061129b565b60405180910390f35b6100966100913660046112f6565b61074e565b60405190815260200161007a565b3480156100b057600080fd5b506100c46100bf366004611390565b6109d6565b005b3480156100d257600080fd5b506100fa7f000000000000000000000000000000000000000000000000000000000000000081565b6040516001600160a01b03909116815260200161007a565b34801561011e57600080fd5b5061013261012d3660046113b4565b610ad2565b60405161007a919061144a565b6060336001600160a01b037f00000000000000000000000000000000000000000000000000000000000000001614610189576040516282b42960e81b815260040160405180910390fd5b856001600160a01b038b16156101e5576101e58b7f00000000000000000000000000000000000000000000000000000000000000007f00000000000000000000000000000000000000000000000000000000000000008d610ed3565b8067ffffffffffffffff8111156101fe576101fe61147d565b604051908082528060200260200182016040528015610227578160200160208202803683370190505b50915060005b8181101561068457600085858381811061024957610249611493565b905060200201602081019061025e91906114a9565b90506000806000806102b98e8e8881811061027b5761027b611493565b90506020020160208101906102909190611390565b8d8d898181106102a2576102a2611493565b90506020028101906102b491906114cc565b610f1a565b93509350935093508460ff166001036102da576102d582610fc8565b6102ee565b8460ff166003036102ee576102ee82611003565b6001600160a01b038116610343576001600160a01b037f000000000000000000000000000000000000000000000000000000000000000016318281101561033d5780830361033b81611003565b505b506103c2565b73c02aaa39b223fe8d0a0e5c4f27ead9083c756cc1196001600160a01b038216016103c25760006103a873c02aaa39b223fe8d0a0e5c4f27ead9083c756cc27f0000000000000000000000000000000000000000000000000000000000000000611041565b9050828110156103c0578083036103be81610fc8565b505b505b6001600160a01b03811615610573576000807f0000000000000000000000000000000000000000000000000000000000000000905060405163927da10560e01b8152816004820152836024820152866044820152608081016060816064846e22d473030f116ddee9f6b43ac78ba35afa9150811561043f57805193505b5050722cd76fe086b93ce2f768a00b22a0000000000082101561057057722cd76fe086b93ce2f768a00b22a00000000000610489846e22d473030f116ddee9f6b43ac78ba3611082565b10156104a8576104a8836e22d473030f116ddee9f6b43ac78ba36110e4565b6040516387517c4560e01b81528360048201528660248201526001600160801b03604482015265ffffffffffff606482015260008060848360006e22d473030f116ddee9f6b43ac78ba35af190508061050057600080fd5b5060006e04444c5dc75cb358380d2e3de08a9090506040516387517c4560e01b81528460048201528160248201526001600160801b03604482015265ffffffffffff606482015260008060848360006e22d473030f116ddee9f6b43ac78ba35af190508061056d57600080fd5b50505b50505b60006001600160a01b0382161561058b57600061058d565b825b9050600080866001600160a01b031683876040516105ab9190611513565b60006040518083038185875af1925050503d80600081146105e8576040519150601f19603f3d011682016040523d82523d6000602084013e6105ed565b606091505b50915091508161061057604051633204506f60e01b815260040160405180910390fd5b818b8a8151811061062357610623611493565b911515602092830291909101820152815160009111610643575060208101515b8860ff1660020361065c5761065781610fc8565b610670565b8860ff166004036106705761067081611003565b89600101995050505050505050505061022d565b6001600160a01b038a166106eb576106e67f00000000000000000000000000000000000000000000000000000000000000007f00000000000000000000000000000000000000000000000000000000000000006001600160a01b03163161111b565b61073f565b61073f8a7f000000000000000000000000000000000000000000000000000000000000000061073a8d7f0000000000000000000000000000000000000000000000000000000000000000611041565b61112f565b50509998505050505050505050565b6000336001600160a01b037f00000000000000000000000000000000000000000000000000000000000000001614610798576040516282b42960e81b815260040160405180910390fd5b6001600160a01b038916156107f3576107f3897f00000000000000000000000000000000000000000000000000000000000000007f00000000000000000000000000000000000000000000000000000000000000008b610ed3565b600089888860405180606001604052808a15158152602001898152602001886001600160a01b031681525086604051602001610833959493929190611554565b60408051601f19818403018152908290526348c8949160e01b825291506e04444c5dc75cb358380d2e3de08a90906348c894919061087590849060040161144a565b6000604051808303816000875af1158015610894573d6000803e3d6000fd5b505050506040513d6000823e601f3d908101601f191682016040526108bc91908101906116ba565b506001600160a01b038816610927577f00000000000000000000000000000000000000000000000000000000000000006001600160a01b03163191506109227f00000000000000000000000000000000000000000000000000000000000000008361111b565b61097e565b610951887f0000000000000000000000000000000000000000000000000000000000000000611041565b915061097e887f00000000000000000000000000000000000000000000000000000000000000008461112f565b828210156109c95760405162461bcd60e51b8152602060048201526013602482015272125b9cdd59999a58da595b9d081bdd5d1c1d5d606a1b60448201526064015b60405180910390fd5b5098975050505050505050565b336001600160a01b037f00000000000000000000000000000000000000000000000000000000000000001614610a1e576040516282b42960e81b815260040160405180910390fd5b6001600160a01b038116610a8357610a807f00000000000000000000000000000000000000000000000000000000000000007f00000000000000000000000000000000000000000000000000000000000000006001600160a01b03163161111b565b50565b610a80817f000000000000000000000000000000000000000000000000000000000000000061073a847f0000000000000000000000000000000000000000000000000000000000000000611041565b6060336e04444c5dc75cb358380d2e3de08a9014610b02576040516282b42960e81b815260040160405180910390fd5b600080808080610b1487890189611762565b93985091965094509250905084846001600160a01b03821615610b9a57604051632961046560e21b81526001600160a01b03831660048201526e04444c5dc75cb358380d2e3de08a909063a584119490602401600060405180830381600087803b158015610b8157600080fd5b505af1158015610b95573d6000803e3d6000fd5b505050505b60408051633cf3645360e21b815286516001600160a01b039081166004830152602080890151821660248401528884015162ffffff166044840152606089015160020b60648401526080890151821660848401528751151560a484015287015160c48301529186015190911660e4820152610120610104820152600061012482018190529081906e04444c5dc75cb358380d2e3de08a909063f3cd914c906101440160408051808303816000875af1158015610c5a573d6000803e3d6000fd5b505050506040513d601f19601f82011682018060405250810190610c7e919061182d565b915091506000866000015115610c9e57610c9783611851565b9050610caa565b610ca782611851565b90505b6001600160a01b038516610d32576e04444c5dc75cb358380d2e3de08a906001600160a01b03166311da60b4826040518263ffffffff1660e01b815260040160206040518083038185885af1158015610d07573d6000803e3d6000fd5b50505050506040513d601f19601f82011682018060405250810190610d2c919061187b565b50610dc1565b610d4c856e04444c5dc75cb358380d2e3de08a908361112f565b6e04444c5dc75cb358380d2e3de08a906001600160a01b03166311da60b46040518163ffffffff1660e01b81526004016020604051808303816000875af1158015610d9b573d6000803e3d6000fd5b505050506040513d601f19601f82011682018060405250810190610dbf919061187b565b505b865160009015610dd2575081610dd5565b50825b604051630b0d9c0960e01b81526001600160a01b0380871660048301527f0000000000000000000000000000000000000000000000000000000000000000166024820152604481018290526e04444c5dc75cb358380d2e3de08a9090630b0d9c0990606401600060405180830381600087803b158015610e5457600080fd5b505af1158015610e68573d6000803e3d6000fd5b5050505086811015610eb25760405162461bcd60e51b8152602060048201526013602482015272125b9cdd59999a58da595b9d081bdd5d1c1d5d606a1b60448201526064016109c0565b50506040805160208101909152600081529c9b505050505050505050505050565b6040516323b872dd60e01b81528360048201528260248201528160448201526020816064836000895af180610f0757600080fd5b505180610f1357600080fd5b5050505050565b60006060600080600080886001600160a01b03168888604051610f3e929190611894565b600060405180830381855afa9150503d8060008114610f79576040519150601f19603f3d011682016040523d82523d6000602084013e610f7e565b606091505b509150915081610fa157604051633204506f60e01b815260040160405180910390fd5b80806020019051810190610fb591906118a4565b929c919b50995090975095505050505050565b604051630d0e30db60e41b81526000806004838573c02aaa39b223fe8d0a0e5c4f27ead9083c756cc25af1905080610fff57600080fd5b5050565b604051632e1a7d4d60e01b8152816004820152600080602483600073c02aaa39b223fe8d0a0e5c4f27ead9083c756cc25af1905080610fff57600080fd5b60006040516370a0823160e01b815282600482015260408101602081602484885afa91508161106f57600080fd5b3d61107957600080fd5b51949350505050565b6000807f00000000000000000000000000000000000000000000000000000000000000009050604051636eb1769f60e11b815281600482015283602482015260608101602081604484895afa915081156110db57805193505b50505092915050565b60405163095ea7b360e01b815281600482015260001960248201526000806044836000875af190508061111657600080fd5b505050565b60008060008084865af18061111657600080fd5b60405163a9059cbb60e01b81528260048201528160248201526020816044836000885af18061115d57600080fd5b50518061116957600080fd5b50505050565b6001600160a01b0381168114610a8057600080fd5b60008083601f84011261119657600080fd5b50813567ffffffffffffffff8111156111ae57600080fd5b6020830191508360208260051b85010111156111c957600080fd5b9250929050565b600080600080600080600080600060c08a8c0312156111ee57600080fd5b89356111f98161116f565b985060208a0135975060408a01356112108161116f565b965060608a013567ffffffffffffffff8082111561122d57600080fd5b6112398d838e01611184565b909850965060808c013591508082111561125257600080fd5b61125e8d838e01611184565b909650945060a08c013591508082111561127757600080fd5b506112848c828d01611184565b915080935050809150509295985092959850929598565b6020808252825182820181905260009190848201906040850190845b818110156112d55783511515835292840192918401916001016112b7565b50909695505050505050565b803580151581146112f157600080fd5b919050565b600080600080600080600080888a0361018081121561131457600080fd5b893561131f8161116f565b985060208a0135975060408a01356113368161116f565b965060a0605f198201121561134a57600080fd5b5060608901945061135e6101008a016112e1565b935061012089013592506101408901356113778161116f565b8092505061016089013590509295985092959890939650565b6000602082840312156113a257600080fd5b81356113ad8161116f565b9392505050565b600080602083850312156113c757600080fd5b823567ffffffffffffffff808211156113df57600080fd5b818501915085601f8301126113f357600080fd5b81358181111561140257600080fd5b86602082850101111561141457600080fd5b60209290920196919550909350505050565b60005b83811015611441578181015183820152602001611429565b50506000910152565b6020815260008251806020840152611469816040850160208701611426565b601f01601f19169190910160400192915050565b634e487b7160e01b600052604160045260246000fd5b634e487b7160e01b600052603260045260246000fd5b6000602082840312156114bb57600080fd5b813560ff811681146113ad57600080fd5b6000808335601e198436030181126114e357600080fd5b83018035915067ffffffffffffffff8211156114fe57600080fd5b6020019150368190038213156111c957600080fd5b60008251611525818460208701611426565b9190910192915050565b803562ffffff811681146112f157600080fd5b8035600281900b81146112f157600080fd5b6001600160a01b0386811682528581166020830152610160820190853561157a8161116f565b81166040840152602086013561158f8161116f565b8116606084015262ffffff6115a66040880161152f565b1660808401526115b860608701611542565b60020b60a084015260808601356115ce8161116f565b1660c08301528351151560e083015260208401516101008301526040909301516001600160a01b031661012082015261014001529392505050565b60405160a0810167ffffffffffffffff8111828210171561162c5761162c61147d565b60405290565b600082601f83011261164357600080fd5b815167ffffffffffffffff8082111561165e5761165e61147d565b604051601f8301601f19908116603f011681019082821181831017156116865761168661147d565b8160405283815286602085880101111561169f57600080fd5b6116b0846020830160208901611426565b9695505050505050565b6000602082840312156116cc57600080fd5b815167ffffffffffffffff8111156116e357600080fd5b6116ef84828501611632565b949350505050565b60006060828403121561170957600080fd5b6040516060810181811067ffffffffffffffff8211171561172c5761172c61147d565b60405290508061173b836112e1565b81526020830135602082015260408301356117558161116f565b6040919091015292915050565b600080600080600085870361016081121561177c57600080fd5b86356117878161116f565b955060208701356117978161116f565b945060a0603f19820112156117ab57600080fd5b506117b4611609565b60408701356117c28161116f565b815260608701356117d28161116f565b60208201526117e36080880161152f565b60408201526117f460a08801611542565b606082015260c08701356118078161116f565b6080820152925061181b8760e088016116f7565b94979396509194610140013592915050565b6000806040838503121561184057600080fd5b505080516020909101519092909150565b6000600160ff1b820161187457634e487b7160e01b600052601160045260246000fd5b5060000390565b60006020828403121561188d57600080fd5b5051919050565b8183823760009101908152919050565b600080600080608085870312156118ba57600080fd5b84516118c58161116f565b602086015190945067ffffffffffffffff8111156118e257600080fd5b6118ee87828801611632565b9350506040850151915060608501516119068161116f565b93969295509093505056fea26469706673582212201d4b409170c5ff4d7ed30eda8a3cd9780fbaf0ad45ad0c982c9eecc339418cbf64736f6c63430008140033",
  "linkReferences": {},
  "deployedLinkReferences": {}
}