{
  "_format": "hh-sol-artifact-1",
  "contractName": "WalletBundler",
  "sourceName": "contracts/WalletBundler.sol",
  "abi": [
    {
      "inputs": [],
      "stateMutability": "nonpayable",
      "type": "constructor"
    },
    {
      "inputs": [],
      "name": "CallFailed",
      "type": "error"
    },
    {
      "inputs": [],
      "name": "Unauthorized",
      "type": "error"
    },
    {
      "inputs": [
        {
          "internalType": "address",
          "name": "fromToken",
          "type": "address"
        },
        {
          "internalType": "uint256",
          "name": "fromAmount",
          "type": "uint256"
        },
        {
          "internalType": "address",
          "name": "toToken",
          "type": "address"
        },
        {
          "internalType": "address[]",
          "name": "encoderTargets",
          "type": "address[]"
        },
        {
          "internalType": "bytes[]",
          "name": "encoderData",
          "type": "bytes[]"
        },
        {
          "internalType": "uint8[]",
          "name": "wrapOperations",
          "type": "uint8[]"
        }
      ],
      "name": "encodeAndExecuteaaaaaYops",
      "outputs": [
        {
          "internalType": "bool[]",
          "name": "results",
          "type": "bool[]"
        }
      ],
      "stateMutability": "payable",
      "type": "function"
    },
    {
      "inputs": [],
      "name": "owner",
      "outputs": [
        {
          "internalType": "address",
          "name": "",
          "type": "address"
        }
      ],
      "stateMutability": "view",
      "type": "function"
    },
    {
      "inputs": [
        {
          "internalType": "bytes",
          "name": "data",
          "type": "bytes"
        }
      ],
      "name": "unlockCallback",
      "outputs": [
        {
          "internalType": "bytes",
          "name": "",
          "type": "bytes"
        }
      ],
      "stateMutability": "nonpayable",
      "type": "function"
    },
    {
      "inputs": [
        {
          "internalType": "address",
          "name": "token",
          "type": "address"
        }
      ],
      "name": "withdraw",
      "outputs": [],
      "stateMutability": "nonpayable",
      "type": "function"
    },
    {
      "stateMutability": "payable",
      "type": "receive"
    }
  ],
  "bytecode": "0x60c060405234801561001057600080fd5b50336080523060a05260408051631e7f29df60e31b81529051734df4b688d6f7954f6f53787b2e2778720bab5d289163f3f94ef891600480830192600092919082900301818387803b15801561006557600080fd5b505af1158015610079573d6000803e3d6000fd5b5050505060805160a05161119461010a60003960008181610194015281816102da015281816103580152818161045501528181610699015281816106f7015281816107ab015281816108070152610b1c01526000818160ac015281816101200152818161017301528181610678015281816106d20152818161073a0152818161078a01526107e201526111946000f3fe6080604052600436106100435760003560e01c806330ace1b11461004f57806351cff8d9146100785780638da5cb5b1461009a57806391dd7346146100e657600080fd5b3661004a57005b600080fd5b61006261005d366004610c5f565b610113565b60405161006f9190610d2a565b60405180910390f35b34801561008457600080fd5b50610098610093366004610d70565b61072f565b005b3480156100a657600080fd5b506100ce7f000000000000000000000000000000000000000000000000000000000000000081565b6040516001600160a01b03909116815260200161006f565b3480156100f257600080fd5b50610106610101366004610d94565b61082b565b60405161006f9190610e56565b6060336001600160a01b037f0000000000000000000000000000000000000000000000000000000000000000161461015d576040516282b42960e81b815260040160405180910390fd5b856001600160a01b038b16156101b9576101b98b7f00000000000000000000000000000000000000000000000000000000000000007f00000000000000000000000000000000000000000000000000000000000000008d610978565b8067ffffffffffffffff8111156101d2576101d2610e69565b6040519080825280602002602001820160405280156101fb578160200160208202803683370190505b50915060005b8181101561066557600085858381811061021d5761021d610e7f565b90506020020160208101906102329190610e95565b905060008060008061028d8e8e8881811061024f5761024f610e7f565b90506020020160208101906102649190610d70565b8d8d8981811061027657610276610e7f565b90506020028101906102889190610eb8565b6109bf565b93509350935093508460ff166001036102ae576102a982610a6d565b6102c2565b8460ff166003036102c2576102c282610aa8565b6001600160a01b038116610317576001600160a01b037f00000000000000000000000000000000000000000000000000000000000000001631828110156103115780830361030f81610aa8565b505b50610396565b73c02aaa39b223fe8d0a0e5c4f27ead9083c756cc1196001600160a01b0382160161039657600061037c73c02aaa39b223fe8d0a0e5c4f27ead9083c756cc27f0000000000000000000000000000000000000000000000000000000000000000610ae6565b9050828110156103945780830361039281610a6d565b505b505b6001600160a01b038116156105545773ba1333333333a1ba1108e8412f11850a5c319ba8196001600160a01b0385160161042b5760006103ea8273ba1333333333a1ba1108e8412f11850a5c319ba9610b17565b9050722cd76fe086b93ce2f768a00b22a00000000000811015610425576104258273ba1333333333a1ba1108e8412f11850a5c319ba9610b73565b50610554565b7366a9893cc07d91d95644aedd05d03f95e1dba8ae196001600160a01b03851601610554576000807f0000000000000000000000000000000000000000000000000000000000000000905060405163927da10560e01b81528160048201528360248201528660448201526060816064836e22d473030f116ddee9f6b43ac78ba35afa80156104b857815193505b5050722cd76fe086b93ce2f768a00b22a00000000000821015610551576104ee836e22d473030f116ddee9f6b43ac78ba3610b73565b6040516387517c4560e01b81528360048201528660248201526fffffffffffffffffffffffffffffffff604482015265ffffffffffff606482015260008060848360006e22d473030f116ddee9f6b43ac78ba35af190508061054f57600080fd5b505b50505b60006001600160a01b0382161561056c57600061056e565b825b9050600080866001600160a01b0316838760405161058c9190610eff565b60006040518083038185875af1925050503d80600081146105c9576040519150601f19603f3d011682016040523d82523d6000602084013e6105ce565b606091505b5091509150816105f157604051633204506f60e01b815260040160405180910390fd5b818b8a8151811061060457610604610e7f565b911515602092830291909101820152815160009111610624575060208101515b8860ff1660020361063d5761063881610a6d565b610651565b8860ff166004036106515761065181610aa8565b896001019950505050505050505050610201565b6001600160a01b038a166106cc576106c77f00000000000000000000000000000000000000000000000000000000000000007f00000000000000000000000000000000000000000000000000000000000000006001600160a01b031631610baa565b610720565b6107208a7f000000000000000000000000000000000000000000000000000000000000000061071b8d7f0000000000000000000000000000000000000000000000000000000000000000610ae6565b610bbe565b50509998505050505050505050565b336001600160a01b037f00000000000000000000000000000000000000000000000000000000000000001614610777576040516282b42960e81b815260040160405180910390fd5b6001600160a01b0381166107dc576107d97f00000000000000000000000000000000000000000000000000000000000000007f00000000000000000000000000000000000000000000000000000000000000006001600160a01b031631610baa565b50565b6107d9817f000000000000000000000000000000000000000000000000000000000000000061071b847f0000000000000000000000000000000000000000000000000000000000000000610ae6565b60603373ba1333333333a1ba1108e8412f11850a5c319ba914610860576040516282b42960e81b815260040160405180910390fd5b60008080808061087287890189610f1b565b9450945094509450945060006040518060e001604052806000600181111561089c5761089c610f76565b8152602001876001600160a01b03168152602001866001600160a01b03168152602001856001600160a01b0316815260200184815260200183815260200160405180602001604052806000815250815250905073ba1333333333a1ba1108e8412f11850a5c319ba96001600160a01b0316632bfb780c826040518263ffffffff1660e01b815260040161092f9190610f8c565b6060604051808303816000875af115801561094e573d6000803e3d6000fd5b505050506040513d601f19601f820116820180604052508101906109729190611033565b60206060f35b6040516323b872dd60e01b81528360048201528260248201528160448201526020816064836000895af1806109ac57600080fd5b5051806109b857600080fd5b5050505050565b60006060600080600080886001600160a01b031688886040516109e3929190611061565b600060405180830381855afa9150503d8060008114610a1e576040519150601f19603f3d011682016040523d82523d6000602084013e610a23565b606091505b509150915081610a4657604051633204506f60e01b815260040160405180910390fd5b80806020019051810190610a5a9190611081565b929c919b50995090975095505050505050565b604051630d0e30db60e41b81526000806004838573c02aaa39b223fe8d0a0e5c4f27ead9083c756cc25af1905080610aa457600080fd5b5050565b604051632e1a7d4d60e01b8152816004820152600080602483600073c02aaa39b223fe8d0a0e5c4f27ead9083c756cc25af1905080610aa457600080fd5b60006040516370a0823160e01b8152826004820152602081602483875afa80610b0e57600080fd5b50519392505050565b6000807f00000000000000000000000000000000000000000000000000000000000000009050604051636eb1769f60e11b8152816004820152836024820152602081604483885afa8015610b6a57815193505b50505092915050565b60405163095ea7b360e01b815281600482015260001960248201526000806044836000875af1905080610ba557600080fd5b505050565b60008060008084865af180610ba557600080fd5b60405163a9059cbb60e01b81528260048201528160248201526020816044836000885af180610bec57600080fd5b505180610bf857600080fd5b50505050565b6001600160a01b03811681146107d957600080fd5b60008083601f840112610c2557600080fd5b50813567ffffffffffffffff811115610c3d57600080fd5b6020830191508360208260051b8501011115610c5857600080fd5b9250929050565b600080600080600080600080600060c08a8c031215610c7d57600080fd5b8935610c8881610bfe565b985060208a0135975060408a0135610c9f81610bfe565b965060608a013567ffffffffffffffff80821115610cbc57600080fd5b610cc88d838e01610c13565b909850965060808c0135915080821115610ce157600080fd5b610ced8d838e01610c13565b909650945060a08c0135915080821115610d0657600080fd5b50610d138c828d01610c13565b915080935050809150509295985092959850929598565b6020808252825182820181905260009190848201906040850190845b81811015610d64578351151583529284019291840191600101610d46565b50909695505050505050565b600060208284031215610d8257600080fd5b8135610d8d81610bfe565b9392505050565b60008060208385031215610da757600080fd5b823567ffffffffffffffff80821115610dbf57600080fd5b818501915085601f830112610dd357600080fd5b813581811115610de257600080fd5b866020828501011115610df457600080fd5b60209290920196919550909350505050565b60005b83811015610e21578181015183820152602001610e09565b50506000910152565b60008151808452610e42816020860160208601610e06565b601f01601f19169290920160200192915050565b602081526000610d8d6020830184610e2a565b634e487b7160e01b600052604160045260246000fd5b634e487b7160e01b600052603260045260246000fd5b600060208284031215610ea757600080fd5b813560ff81168114610d8d57600080fd5b6000808335601e19843603018112610ecf57600080fd5b83018035915067ffffffffffffffff821115610eea57600080fd5b602001915036819003821315610c5857600080fd5b60008251610f11818460208701610e06565b9190910192915050565b600080600080600060a08688031215610f3357600080fd5b8535610f3e81610bfe565b94506020860135610f4e81610bfe565b93506040860135610f5e81610bfe565b94979396509394606081013594506080013592915050565b634e487b7160e01b600052602160045260246000fd5b602081526000825160028110610fb257634e487b7160e01b600052602160045260246000fd5b806020840152506020830151610fd360408401826001600160a01b03169052565b5060408301516001600160a01b03811660608401525060608301516001600160a01b038116608084015250608083015160a083015260a083015160c083015260c083015160e08084015261102b610100840182610e2a565b949350505050565b60008060006060848603121561104857600080fd5b8351925060208401519150604084015190509250925092565b8183823760009101908152919050565b805161107c81610bfe565b919050565b6000806000806080858703121561109757600080fd5b84516110a281610bfe565b602086015190945067ffffffffffffffff808211156110c057600080fd5b818701915087601f8301126110d457600080fd5b8151818111156110e6576110e6610e69565b604051601f8201601f19908116603f0116810190838211818310171561110e5761110e610e69565b816040528281528a602084870101111561112757600080fd5b611138836020830160208801610e06565b80975050505050506040850151915061115360608601611071565b90509295919450925056fea2646970667358221220b52ce9574ce3388c6631c968d863c70946e2545b755fdde349a89cc98269a85064736f6c63430008140033",
  "linkReferences": {},
  "deployedLinkReferences": {}
}