{"contracts/WalletBundler.sol":{"WalletBundler":{"abi":[{"inputs":[],"stateMutability":"nonpayable","type":"constructor"},{"inputs":[],"name":"CallFailed","type":"error"},{"inputs":[],"name":"Unauthorized","type":"error"},{"inputs":[{"internalType":"address","name":"fromToken","type":"address"},{"internalType":"uint256","name":"fromAmount","type":"uint256"},{"internalType":"address","name":"toToken","type":"address"},{"internalType":"address[]","name":"encoderTargets","type":"address[]"},{"internalType":"bytes[]","name":"encoderData","type":"bytes[]"},{"internalType":"uint8[]","name":"wrapOperations","type":"uint8[]"}],"name":"encodeAndExecute","outputs":[{"internalType":"bool[]","name":"results","type":"bool[]"}],"stateMutability":"payable","type":"function"},{"inputs":[],"name":"owner","outputs":[{"internalType":"address","name":"","type":"address"}],"stateMutability":"view","type":"function"},{"inputs":[{"internalType":"address","name":"token","type":"address"}],"name":"withdraw","outputs":[],"stateMutability":"nonpayable","type":"function"},{"stateMutability":"payable","type":"receive"}],"evm":{"bytecode":{"linkReferences":{},"object":"60c060405234801561001057600080fd5b50336080523060a05260805160a051610dbf6100a5600039600081816101530152818161018a015281816101d00152818161027a015281816104320152818161072801528181610761015281816107a7015261099701526000818160780152818160e201528181610132015281816101ab01528181610206015281816102590152818161070701526107820152610dbf6000f3fe6080604052600436106100385760003560e01c806351cff8d9146100445780638da5cb5b14610066578063dd76f8f1146100b757600080fd5b3661003f57005b600080fd5b34801561005057600080fd5b5061006461005f366004610a35565b6100d7565b005b34801561007257600080fd5b5061009a7f000000000000000000000000000000000000000000000000000000000000000081565b6040516001600160a01b0390911681526020015b60405180910390f35b6100ca6100c5366004610aa5565b6101f9565b6040516100ae9190610b70565b336001600160a01b037f0000000000000000000000000000000000000000000000000000000000000000161461011f576040516282b42960e81b815260040160405180910390fd5b6001600160a01b038116610184576101817f00000000000000000000000000000000000000000000000000000000000000007f00000000000000000000000000000000000000000000000000000000000000006001600160a01b0316316107da565b50565b610181817f00000000000000000000000000000000000000000000000000000000000000007f00000000000000000000000000000000000000000000000000000000000000006101f4857f00000000000000000000000000000000000000000000000000000000000000006107f3565b610824565b6060336001600160a01b037f00000000000000000000000000000000000000000000000000000000000000001614610243576040516282b42960e81b815260040160405180910390fd5b856001600160a01b038b161561029f5761029f8b7f00000000000000000000000000000000000000000000000000000000000000007f00000000000000000000000000000000000000000000000000000000000000008d610824565b8067ffffffffffffffff8111156102b8576102b8610bb6565b6040519080825280602002602001820160405280156102e1578160200160208202803683370190505b50915060005b818110156106f457600085858381811061030357610303610bcc565b90506020020160208101906103189190610be2565b90506000806000806103738e8e8881811061033557610335610bcc565b905060200201602081019061034a9190610a35565b8d8d8981811061035c5761035c610bcc565b905060200281019061036e9190610c05565b61086b565b93509350935093508460ff166001036103945761038f82610919565b6103a8565b8460ff166003036103a8576103a882610954565b6001600160a01b038116156105c7577366a9893cc07d91d95644aedd05d03f95e1dba8ae196001600160a01b038516016105455760006103f7826e22d473030f116ddee9f6b43ac78ba3610992565b9050722cd76fe086b93ce2f768a00b22a0000000000081101561042d5761042d826e22d473030f116ddee9f6b43ac78ba36109ee565b6000807f0000000000000000000000000000000000000000000000000000000000000000905060405163927da10560e01b81528160048201528460248201527366a9893cc07d91d95644aedd05d03f95e1dba8af60448201526060816064836e22d473030f116ddee9f6b43ac78ba35afa80156104a957815193505b5050722cd76fe086b93ce2f768a00b22a0000000000082101561053d576040516387517c4560e01b81528460048201527366a9893cc07d91d95644aedd05d03f95e1dba8af60248201526fffffffffffffffffffffffffffffffff6044820152635e0be1004201606482015260008060848360006e22d473030f116ddee9f6b43ac78ba35af190508061053b57600080fd5b505b5050506105c7565b73ba12222222228d8ba445958a75a0704d566bf2c7196001600160a01b038516016105c757600061058a8273ba12222222228d8ba445958a75a0704d566bf2c8610992565b9050722cd76fe086b93ce2f768a00b22a000000000008110156105c5576105c58273ba12222222228d8ba445958a75a0704d566bf2c86109ee565b505b60006001600160a01b038216156105df5760006105e1565b825b9050600080866001600160a01b031683876040516105ff9190610c70565b60006040518083038185875af1925050503d806000811461063c576040519150601f19603f3d011682016040523d82523d6000602084013e610641565b606091505b5091509150818b8a8151811061065957610659610bcc565b911515602092830291909101909101528161068757604051633204506f60e01b815260040160405180910390fd5b60006020825110610699575060208101515b8860ff1660021480156106ac5750600081115b156106bf576106ba81610919565b6106e0565b8860ff1660041480156106d25750600081115b156106e0576106e081610954565b8960010199505050505050505050506102e7565b6001600160a01b038a1661075b576107567f00000000000000000000000000000000000000000000000000000000000000007f00000000000000000000000000000000000000000000000000000000000000006001600160a01b0316316107da565b6107cb565b6107cb8a7f00000000000000000000000000000000000000000000000000000000000000007f00000000000000000000000000000000000000000000000000000000000000006101f48e7f00000000000000000000000000000000000000000000000000000000000000006107f3565b50509998505050505050505050565b60008060008084865af1806107ee57600080fd5b505050565b60006040516370a0823160e01b8152826004820152602081602483875afa8061081b57600080fd5b50519392505050565b6040516323b872dd60e01b81528360048201528260248201528160448201526020816064836000895af18061085857600080fd5b50518061086457600080fd5b5050505050565b60006060600080600080886001600160a01b0316888860405161088f929190610c8c565b600060405180830381855afa9150503d80600081146108ca576040519150601f19603f3d011682016040523d82523d6000602084013e6108cf565b606091505b5091509150816108f257604051633204506f60e01b815260040160405180910390fd5b808060200190518101906109069190610cac565b929c919b50995090975095505050505050565b604051630d0e30db60e41b81526000806004838573c02aaa39b223fe8d0a0e5c4f27ead9083c756cc25af190508061095057600080fd5b5050565b604051632e1a7d4d60e01b8152816004820152600080602483600073c02aaa39b223fe8d0a0e5c4f27ead9083c756cc25af190508061095057600080fd5b6000807f00000000000000000000000000000000000000000000000000000000000000009050604051636eb1769f60e11b8152816004820152836024820152602081604483885afa80156109e557815193505b50505092915050565b60405163095ea7b360e01b815281600482015260001960248201526000806044836000875af19050806107ee57600080fd5b6001600160a01b038116811461018157600080fd5b600060208284031215610a4757600080fd5b8135610a5281610a20565b9392505050565b60008083601f840112610a6b57600080fd5b50813567ffffffffffffffff811115610a8357600080fd5b6020830191508360208260051b8501011115610a9e57600080fd5b9250929050565b600080600080600080600080600060c08a8c031215610ac357600080fd5b8935610ace81610a20565b985060208a0135975060408a0135610ae581610a20565b965060608a013567ffffffffffffffff80821115610b0257600080fd5b610b0e8d838e01610a59565b909850965060808c0135915080821115610b2757600080fd5b610b338d838e01610a59565b909650945060a08c0135915080821115610b4c57600080fd5b50610b598c828d01610a59565b915080935050809150509295985092959850929598565b6020808252825182820181905260009190848201906040850190845b81811015610baa578351151583529284019291840191600101610b8c565b50909695505050505050565b634e487b7160e01b600052604160045260246000fd5b634e487b7160e01b600052603260045260246000fd5b600060208284031215610bf457600080fd5b813560ff81168114610a5257600080fd5b6000808335601e19843603018112610c1c57600080fd5b83018035915067ffffffffffffffff821115610c3757600080fd5b602001915036819003821315610a9e57600080fd5b60005b83811015610c67578181015183820152602001610c4f565b50506000910152565b60008251610c82818460208701610c4c565b9190910192915050565b8183823760009101908152919050565b8051610ca781610a20565b919050565b60008060008060808587031215610cc257600080fd5b8451610ccd81610a20565b602086015190945067ffffffffffffffff80821115610ceb57600080fd5b818701915087601f830112610cff57600080fd5b815181811115610d1157610d11610bb6565b604051601f8201601f19908116603f01168101908382118183101715610d3957610d39610bb6565b816040528281528a6020848701011115610d5257600080fd5b610d63836020830160208801610c4c565b809750505050505060408501519150610d7e60608601610c9c565b90509295919450925056fea26469706673582212208f0034fcef1b36482e26061b634119bc4ce8392c34ea909c171c4f21a90f7e0964736f6c63430008140033","opcodes":"PUSH1 0xC0 PUSH1 0x40 MSTORE CALLVALUE DUP1 ISZERO PUSH2 0x10 JUMPI PUSH1 0x0 DUP1 REVERT JUMPDEST POP CALLER PUSH1 0x80 MSTORE ADDRESS PUSH1 0xA0 MSTORE PUSH1 0x80 MLOAD PUSH1 0xA0 MLOAD PUSH2 0xDBF PUSH2 0xA5 PUSH1 0x0 CODECOPY PUSH1 0x0 DUP2 DUP2 PUSH2 0x153 ADD MSTORE DUP2 DUP2 PUSH2 0x18A ADD MSTORE DUP2 DUP2 PUSH2 0x1D0 ADD MSTORE DUP2 DUP2 PUSH2 0x27A ADD MSTORE DUP2 DUP2 PUSH2 0x432 ADD MSTORE DUP2 DUP2 PUSH2 0x728 ADD MSTORE DUP2 DUP2 PUSH2 0x761 ADD MSTORE DUP2 DUP2 PUSH2 0x7A7 ADD MSTORE PUSH2 0x997 ADD MSTORE PUSH1 0x0 DUP2 DUP2 PUSH1 0x78 ADD MSTORE DUP2 DUP2 PUSH1 0xE2 ADD MSTORE DUP2 DUP2 PUSH2 0x132 ADD MSTORE DUP2 DUP2 PUSH2 0x1AB ADD MSTORE DUP2 DUP2 PUSH2 0x206 ADD MSTORE DUP2 DUP2 PUSH2 0x259 ADD MSTORE DUP2 DUP2 PUSH2 0x707 ADD MSTORE PUSH2 0x782 ADD MSTORE PUSH2 0xDBF PUSH1 0x0 RETURN INVALID PUSH1 0x80 PUSH1 0x40 MSTORE PUSH1 0x4 CALLDATASIZE LT PUSH2 0x38 JUMPI PUSH1 0x0 CALLDATALOAD PUSH1 0xE0 SHR DUP1 PUSH4 0x51CFF8D9 EQ PUSH2 0x44 JUMPI DUP1 PUSH4 0x8DA5CB5B EQ PUSH2 0x66 JUMPI DUP1 PUSH4 0xDD76F8F1 EQ PUSH2 0xB7 JUMPI PUSH1 0x0 DUP1 REVERT JUMPDEST CALLDATASIZE PUSH2 0x3F JUMPI STOP JUMPDEST PUSH1 0x0 DUP1 REVERT JUMPDEST CALLVALUE DUP1 ISZERO PUSH2 0x50 JUMPI PUSH1 0x0 DUP1 REVERT JUMPDEST POP PUSH2 0x64 PUSH2 0x5F CALLDATASIZE PUSH1 0x4 PUSH2 0xA35 JUMP JUMPDEST PUSH2 0xD7 JUMP JUMPDEST STOP JUMPDEST CALLVALUE DUP1 ISZERO PUSH2 0x72 JUMPI PUSH1 0x0 DUP1 REVERT JUMPDEST POP PUSH2 0x9A PUSH32 0x0 DUP2 JUMP JUMPDEST PUSH1 0x40 MLOAD PUSH1 0x1 PUSH1 0x1 PUSH1 0xA0 SHL SUB SWAP1 SWAP2 AND DUP2 MSTORE PUSH1 0x20 ADD JUMPDEST PUSH1 0x40 MLOAD DUP1 SWAP2 SUB SWAP1 RETURN JUMPDEST PUSH2 0xCA PUSH2 0xC5 CALLDATASIZE PUSH1 0x4 PUSH2 0xAA5 JUMP JUMPDEST PUSH2 0x1F9 JUMP JUMPDEST PUSH1 0x40 MLOAD PUSH2 0xAE SWAP2 SWAP1 PUSH2 0xB70 JUMP JUMPDEST CALLER PUSH1 0x1 PUSH1 0x1 PUSH1 0xA0 SHL SUB PUSH32 0x0 AND EQ PUSH2 0x11F JUMPI PUSH1 0x40 MLOAD PUSH3 0x82B429 PUSH1 0xE8 SHL DUP2 MSTORE PUSH1 0x4 ADD PUSH1 0x40 MLOAD DUP1 SWAP2 SUB SWAP1 REVERT JUMPDEST PUSH1 0x1 PUSH1 0x1 PUSH1 0xA0 SHL SUB DUP2 AND PUSH2 0x184 JUMPI PUSH2 0x181 PUSH32 0x0 PUSH32 0x0 PUSH1 0x1 PUSH1 0x1 PUSH1 0xA0 SHL SUB AND BALANCE PUSH2 0x7DA JUMP JUMPDEST POP JUMP JUMPDEST PUSH2 0x181 DUP2 PUSH32 0x0 PUSH32 0x0 PUSH2 0x1F4 DUP6 PUSH32 0x0 PUSH2 0x7F3 JUMP JUMPDEST PUSH2 0x824 JUMP JUMPDEST PUSH1 0x60 CALLER PUSH1 0x1 PUSH1 0x1 PUSH1 0xA0 SHL SUB PUSH32 0x0 AND EQ PUSH2 0x243 JUMPI PUSH1 0x40 MLOAD PUSH3 0x82B429 PUSH1 0xE8 SHL DUP2 MSTORE PUSH1 0x4 ADD PUSH1 0x40 MLOAD DUP1 SWAP2 SUB SWAP1 REVERT JUMPDEST DUP6 PUSH1 0x1 PUSH1 0x1 PUSH1 0xA0 SHL SUB DUP12 AND ISZERO PUSH2 0x29F JUMPI PUSH2 0x29F DUP12 PUSH32 0x0 PUSH32 0x0 DUP14 PUSH2 0x824 JUMP JUMPDEST DUP1 PUSH8 0xFFFFFFFFFFFFFFFF DUP2 GT ISZERO PUSH2 0x2B8 JUMPI PUSH2 0x2B8 PUSH2 0xBB6 JUMP JUMPDEST PUSH1 0x40 MLOAD SWAP1 DUP1 DUP3 MSTORE DUP1 PUSH1 0x20 MUL PUSH1 0x20 ADD DUP3 ADD PUSH1 0x40 MSTORE DUP1 ISZERO PUSH2 0x2E1 JUMPI DUP2 PUSH1 0x20 ADD PUSH1 0x20 DUP3 MUL DUP1 CALLDATASIZE DUP4 CALLDATACOPY ADD SWAP1 POP JUMPDEST POP SWAP2 POP PUSH1 0x0 JUMPDEST DUP2 DUP2 LT ISZERO PUSH2 0x6F4 JUMPI PUSH1 0x0 DUP6 DUP6 DUP4 DUP2 DUP2 LT PUSH2 0x303 JUMPI PUSH2 0x303 PUSH2 0xBCC JUMP JUMPDEST SWAP1 POP PUSH1 0x20 MUL ADD PUSH1 0x20 DUP2 ADD SWAP1 PUSH2 0x318 SWAP2 SWAP1 PUSH2 0xBE2 JUMP JUMPDEST SWAP1 POP PUSH1 0x0 DUP1 PUSH1 0x0 DUP1 PUSH2 0x373 DUP15 DUP15 DUP9 DUP2 DUP2 LT PUSH2 0x335 JUMPI PUSH2 0x335 PUSH2 0xBCC JUMP JUMPDEST SWAP1 POP PUSH1 0x20 MUL ADD PUSH1 0x20 DUP2 ADD SWAP1 PUSH2 0x34A SWAP2 SWAP1 PUSH2 0xA35 JUMP JUMPDEST DUP14 DUP14 DUP10 DUP2 DUP2 LT PUSH2 0x35C JUMPI PUSH2 0x35C PUSH2 0xBCC JUMP JUMPDEST SWAP1 POP PUSH1 0x20 MUL DUP2 ADD SWAP1 PUSH2 0x36E SWAP2 SWAP1 PUSH2 0xC05 JUMP JUMPDEST PUSH2 0x86B JUMP JUMPDEST SWAP4 POP SWAP4 POP SWAP4 POP SWAP4 POP DUP5 PUSH1 0xFF AND PUSH1 0x1 SUB PUSH2 0x394 JUMPI PUSH2 0x38F DUP3 PUSH2 0x919 JUMP JUMPDEST PUSH2 0x3A8 JUMP JUMPDEST DUP5 PUSH1 0xFF AND PUSH1 0x3 SUB PUSH2 0x3A8 JUMPI PUSH2 0x3A8 DUP3 PUSH2 0x954 JUMP JUMPDEST PUSH1 0x1 PUSH1 0x1 PUSH1 0xA0 SHL SUB DUP2 AND ISZERO PUSH2 0x5C7 JUMPI PUSH20 0x66A9893CC07D91D95644AEDD05D03F95E1DBA8AE NOT PUSH1 0x1 PUSH1 0x1 PUSH1 0xA0 SHL SUB DUP6 AND ADD PUSH2 0x545 JUMPI PUSH1 0x0 PUSH2 0x3F7 DUP3 PUSH15 0x22D473030F116DDEE9F6B43AC78BA3 PUSH2 0x992 JUMP JUMPDEST SWAP1 POP PUSH19 0x2CD76FE086B93CE2F768A00B22A00000000000 DUP2 LT ISZERO PUSH2 0x42D JUMPI PUSH2 0x42D DUP3 PUSH15 0x22D473030F116DDEE9F6B43AC78BA3 PUSH2 0x9EE JUMP JUMPDEST PUSH1 0x0 DUP1 PUSH32 0x0 SWAP1 POP PUSH1 0x40 MLOAD PUSH4 0x927DA105 PUSH1 0xE0 SHL DUP2 MSTORE DUP2 PUSH1 0x4 DUP3 ADD MSTORE DUP5 PUSH1 0x24 DUP3 ADD MSTORE PUSH20 0x66A9893CC07D91D95644AEDD05D03F95E1DBA8AF PUSH1 0x44 DUP3 ADD MSTORE PUSH1 0x60 DUP2 PUSH1 0x64 DUP4 PUSH15 0x22D473030F116DDEE9F6B43AC78BA3 GAS STATICCALL DUP1 ISZERO PUSH2 0x4A9 JUMPI DUP2 MLOAD SWAP4 POP JUMPDEST POP POP PUSH19 0x2CD76FE086B93CE2F768A00B22A00000000000 DUP3 LT ISZERO PUSH2 0x53D JUMPI PUSH1 0x40 MLOAD PUSH4 0x87517C45 PUSH1 0xE0 SHL DUP2 MSTORE DUP5 PUSH1 0x4 DUP3 ADD MSTORE PUSH20 0x66A9893CC07D91D95644AEDD05D03F95E1DBA8AF PUSH1 0x24 DUP3 ADD MSTORE PUSH16 0xFFFFFFFFFFFFFFFFFFFFFFFFFFFFFFFF PUSH1 0x44 DUP3 ADD MSTORE PUSH4 0x5E0BE100 TIMESTAMP ADD PUSH1 0x64 DUP3 ADD MSTORE PUSH1 0x0 DUP1 PUSH1 0x84 DUP4 PUSH1 0x0 PUSH15 0x22D473030F116DDEE9F6B43AC78BA3 GAS CALL SWAP1 POP DUP1 PUSH2 0x53B JUMPI PUSH1 0x0 DUP1 REVERT JUMPDEST POP JUMPDEST POP POP POP PUSH2 0x5C7 JUMP JUMPDEST PUSH20 0xBA12222222228D8BA445958A75A0704D566BF2C7 NOT PUSH1 0x1 PUSH1 0x1 PUSH1 0xA0 SHL SUB DUP6 AND ADD PUSH2 0x5C7 JUMPI PUSH1 0x0 PUSH2 0x58A DUP3 PUSH20 0xBA12222222228D8BA445958A75A0704D566BF2C8 PUSH2 0x992 JUMP JUMPDEST SWAP1 POP PUSH19 0x2CD76FE086B93CE2F768A00B22A00000000000 DUP2 LT ISZERO PUSH2 0x5C5 JUMPI PUSH2 0x5C5 DUP3 PUSH20 0xBA12222222228D8BA445958A75A0704D566BF2C8 PUSH2 0x9EE JUMP JUMPDEST POP JUMPDEST PUSH1 0x0 PUSH1 0x1 PUSH1 0x1 PUSH1 0xA0 SHL SUB DUP3 AND ISZERO PUSH2 0x5DF JUMPI PUSH1 0x0 PUSH2 0x5E1 JUMP JUMPDEST DUP3 JUMPDEST SWAP1 POP PUSH1 0x0 DUP1 DUP7 PUSH1 0x1 PUSH1 0x1 PUSH1 0xA0 SHL SUB AND DUP4 DUP8 PUSH1 0x40 MLOAD PUSH2 0x5FF SWAP2 SWAP1 PUSH2 0xC70 JUMP JUMPDEST PUSH1 0x0 PUSH1 0x40 MLOAD DUP1 DUP4 SUB DUP2 DUP6 DUP8 GAS CALL SWAP3 POP POP POP RETURNDATASIZE DUP1 PUSH1 0x0 DUP2 EQ PUSH2 0x63C JUMPI PUSH1 0x40 MLOAD SWAP2 POP PUSH1 0x1F NOT PUSH1 0x3F RETURNDATASIZE ADD AND DUP3 ADD PUSH1 0x40 MSTORE RETURNDATASIZE DUP3 MSTORE RETURNDATASIZE PUSH1 0x0 PUSH1 0x20 DUP5 ADD RETURNDATACOPY PUSH2 0x641 JUMP JUMPDEST PUSH1 0x60 SWAP2 POP JUMPDEST POP SWAP2 POP SWAP2 POP DUP2 DUP12 DUP11 DUP2 MLOAD DUP2 LT PUSH2 0x659 JUMPI PUSH2 0x659 PUSH2 0xBCC JUMP JUMPDEST SWAP2 ISZERO ISZERO PUSH1 0x20 SWAP3 DUP4 MUL SWAP2 SWAP1 SWAP2 ADD SWAP1 SWAP2 ADD MSTORE DUP2 PUSH2 0x687 JUMPI PUSH1 0x40 MLOAD PUSH4 0x3204506F PUSH1 0xE0 SHL DUP2 MSTORE PUSH1 0x4 ADD PUSH1 0x40 MLOAD DUP1 SWAP2 SUB SWAP1 REVERT JUMPDEST PUSH1 0x0 PUSH1 0x20 DUP3 MLOAD LT PUSH2 0x699 JUMPI POP PUSH1 0x20 DUP2 ADD MLOAD JUMPDEST DUP9 PUSH1 0xFF AND PUSH1 0x2 EQ DUP1 ISZERO PUSH2 0x6AC JUMPI POP PUSH1 0x0 DUP2 GT JUMPDEST ISZERO PUSH2 0x6BF JUMPI PUSH2 0x6BA DUP2 PUSH2 0x919 JUMP JUMPDEST PUSH2 0x6E0 JUMP JUMPDEST DUP9 PUSH1 0xFF AND PUSH1 0x4 EQ DUP1 ISZERO PUSH2 0x6D2 JUMPI POP PUSH1 0x0 DUP2 GT JUMPDEST ISZERO PUSH2 0x6E0 JUMPI PUSH2 0x6E0 DUP2 PUSH2 0x954 JUMP JUMPDEST DUP10 PUSH1 0x1 ADD SWAP10 POP POP POP POP POP POP POP POP POP POP PUSH2 0x2E7 JUMP JUMPDEST PUSH1 0x1 PUSH1 0x1 PUSH1 0xA0 SHL SUB DUP11 AND PUSH2 0x75B JUMPI PUSH2 0x756 PUSH32 0x0 PUSH32 0x0 PUSH1 0x1 PUSH1 0x1 PUSH1 0xA0 SHL SUB AND BALANCE PUSH2 0x7DA JUMP JUMPDEST PUSH2 0x7CB JUMP JUMPDEST PUSH2 0x7CB DUP11 PUSH32 0x0 PUSH32 0x0 PUSH2 0x1F4 DUP15 PUSH32 0x0 PUSH2 0x7F3 JUMP JUMPDEST POP POP SWAP10 SWAP9 POP POP POP POP POP POP POP POP POP JUMP JUMPDEST PUSH1 0x0 DUP1 PUSH1 0x0 DUP1 DUP5 DUP7 GAS CALL DUP1 PUSH2 0x7EE JUMPI PUSH1 0x0 DUP1 REVERT JUMPDEST POP POP POP JUMP JUMPDEST PUSH1 0x0 PUSH1 0x40 MLOAD PUSH4 0x70A08231 PUSH1 0xE0 SHL DUP2 MSTORE DUP3 PUSH1 0x4 DUP3 ADD MSTORE PUSH1 0x20 DUP2 PUSH1 0x24 DUP4 DUP8 GAS STATICCALL DUP1 PUSH2 0x81B JUMPI PUSH1 0x0 DUP1 REVERT JUMPDEST POP MLOAD SWAP4 SWAP3 POP POP POP JUMP JUMPDEST PUSH1 0x40 MLOAD PUSH4 0x23B872DD PUSH1 0xE0 SHL DUP2 MSTORE DUP4 PUSH1 0x4 DUP3 ADD MSTORE DUP3 PUSH1 0x24 DUP3 ADD MSTORE DUP2 PUSH1 0x44 DUP3 ADD MSTORE PUSH1 0x20 DUP2 PUSH1 0x64 DUP4 PUSH1 0x0 DUP10 GAS CALL DUP1 PUSH2 0x858 JUMPI PUSH1 0x0 DUP1 REVERT JUMPDEST POP MLOAD DUP1 PUSH2 0x864 JUMPI PUSH1 0x0 DUP1 REVERT JUMPDEST POP POP POP POP POP JUMP JUMPDEST PUSH1 0x0 PUSH1 0x60 PUSH1 0x0 DUP1 PUSH1 0x0 DUP1 DUP9 PUSH1 0x1 PUSH1 0x1 PUSH1 0xA0 SHL SUB AND DUP9 DUP9 PUSH1 0x40 MLOAD PUSH2 0x88F SWAP3 SWAP2 SWAP1 PUSH2 0xC8C JUMP JUMPDEST PUSH1 0x0 PUSH1 0x40 MLOAD DUP1 DUP4 SUB DUP2 DUP6 GAS STATICCALL SWAP2 POP POP RETURNDATASIZE DUP1 PUSH1 0x0 DUP2 EQ PUSH2 0x8CA JUMPI PUSH1 0x40 MLOAD SWAP2 POP PUSH1 0x1F NOT PUSH1 0x3F RETURNDATASIZE ADD AND DUP3 ADD PUSH1 0x40 MSTORE RETURNDATASIZE DUP3 MSTORE RETURNDATASIZE PUSH1 0x0 PUSH1 0x20 DUP5 ADD RETURNDATACOPY PUSH2 0x8CF JUMP JUMPDEST PUSH1 0x60 SWAP2 POP JUMPDEST POP SWAP2 POP SWAP2 POP DUP2 PUSH2 0x8F2 JUMPI PUSH1 0x40 MLOAD PUSH4 0x3204506F PUSH1 0xE0 SHL DUP2 MSTORE PUSH1 0x4 ADD PUSH1 0x40 MLOAD DUP1 SWAP2 SUB SWAP1 REVERT JUMPDEST DUP1 DUP1 PUSH1 0x20 ADD SWAP1 MLOAD DUP2 ADD SWAP1 PUSH2 0x906 SWAP2 SWAP1 PUSH2 0xCAC JUMP JUMPDEST SWAP3 SWAP13 SWAP2 SWAP12 POP SWAP10 POP SWAP1 SWAP8 POP SWAP6 POP POP POP POP POP POP JUMP JUMPDEST PUSH1 0x40 MLOAD PUSH4 0xD0E30DB PUSH1 0xE4 SHL DUP2 MSTORE PUSH1 0x0 DUP1 PUSH1 0x4 DUP4 DUP6 PUSH20 0xC02AAA39B223FE8D0A0E5C4F27EAD9083C756CC2 GAS CALL SWAP1 POP DUP1 PUSH2 0x950 JUMPI PUSH1 0x0 DUP1 REVERT JUMPDEST POP POP JUMP JUMPDEST PUSH1 0x40 MLOAD PUSH4 0x2E1A7D4D PUSH1 0xE0 SHL DUP2 MSTORE DUP2 PUSH1 0x4 DUP3 ADD MSTORE PUSH1 0x0 DUP1 PUSH1 0x24 DUP4 PUSH1 0x0 PUSH20 0xC02AAA39B223FE8D0A0E5C4F27EAD9083C756CC2 GAS CALL SWAP1 POP DUP1 PUSH2 0x950 JUMPI PUSH1 0x0 DUP1 REVERT JUMPDEST PUSH1 0x0 DUP1 PUSH32 0x0 SWAP1 POP PUSH1 0x40 MLOAD PUSH4 0x6EB1769F PUSH1 0xE1 SHL DUP2 MSTORE DUP2 PUSH1 0x4 DUP3 ADD MSTORE DUP4 PUSH1 0x24 DUP3 ADD MSTORE PUSH1 0x20 DUP2 PUSH1 0x44 DUP4 DUP9 GAS STATICCALL DUP1 ISZERO PUSH2 0x9E5 JUMPI DUP2 MLOAD SWAP4 POP JUMPDEST POP POP POP SWAP3 SWAP2 POP POP JUMP JUMPDEST PUSH1 0x40 MLOAD PUSH4 0x95EA7B3 PUSH1 0xE0 SHL DUP2 MSTORE DUP2 PUSH1 0x4 DUP3 ADD MSTORE PUSH1 0x0 NOT PUSH1 0x24 DUP3 ADD MSTORE PUSH1 0x0 DUP1 PUSH1 0x44 DUP4 PUSH1 0x0 DUP8 GAS CALL SWAP1 POP DUP1 PUSH2 0x7EE JUMPI PUSH1 0x0 DUP1 REVERT JUMPDEST PUSH1 0x1 PUSH1 0x1 PUSH1 0xA0 SHL SUB DUP2 AND DUP2 EQ PUSH2 0x181 JUMPI PUSH1 0x0 DUP1 REVERT JUMPDEST PUSH1 0x0 PUSH1 0x20 DUP3 DUP5 SUB SLT ISZERO PUSH2 0xA47 JUMPI PUSH1 0x0 DUP1 REVERT JUMPDEST DUP2 CALLDATALOAD PUSH2 0xA52 DUP2 PUSH2 0xA20 JUMP JUMPDEST SWAP4 SWAP3 POP POP POP JUMP JUMPDEST PUSH1 0x0 DUP1 DUP4 PUSH1 0x1F DUP5 ADD SLT PUSH2 0xA6B JUMPI PUSH1 0x0 DUP1 REVERT JUMPDEST POP DUP2 CALLDATALOAD PUSH8 0xFFFFFFFFFFFFFFFF DUP2 GT ISZERO PUSH2 0xA83 JUMPI PUSH1 0x0 DUP1 REVERT JUMPDEST PUSH1 0x20 DUP4 ADD SWAP2 POP DUP4 PUSH1 0x20 DUP3 PUSH1 0x5 SHL DUP6 ADD ADD GT ISZERO PUSH2 0xA9E JUMPI PUSH1 0x0 DUP1 REVERT JUMPDEST SWAP3 POP SWAP3 SWAP1 POP JUMP JUMPDEST PUSH1 0x0 DUP1 PUSH1 0x0 DUP1 PUSH1 0x0 DUP1 PUSH1 0x0 DUP1 PUSH1 0x0 PUSH1 0xC0 DUP11 DUP13 SUB SLT ISZERO PUSH2 0xAC3 JUMPI PUSH1 0x0 DUP1 REVERT JUMPDEST DUP10 CALLDATALOAD PUSH2 0xACE DUP2 PUSH2 0xA20 JUMP JUMPDEST SWAP9 POP PUSH1 0x20 DUP11 ADD CALLDATALOAD SWAP8 POP PUSH1 0x40 DUP11 ADD CALLDATALOAD PUSH2 0xAE5 DUP2 PUSH2 0xA20 JUMP JUMPDEST SWAP7 POP PUSH1 0x60 DUP11 ADD CALLDATALOAD PUSH8 0xFFFFFFFFFFFFFFFF DUP1 DUP3 GT ISZERO PUSH2 0xB02 JUMPI PUSH1 0x0 DUP1 REVERT JUMPDEST PUSH2 0xB0E DUP14 DUP4 DUP15 ADD PUSH2 0xA59 JUMP JUMPDEST SWAP1 SWAP9 POP SWAP7 POP PUSH1 0x80 DUP13 ADD CALLDATALOAD SWAP2 POP DUP1 DUP3 GT ISZERO PUSH2 0xB27 JUMPI PUSH1 0x0 DUP1 REVERT JUMPDEST PUSH2 0xB33 DUP14 DUP4 DUP15 ADD PUSH2 0xA59 JUMP JUMPDEST SWAP1 SWAP7 POP SWAP5 POP PUSH1 0xA0 DUP13 ADD CALLDATALOAD SWAP2 POP DUP1 DUP3 GT ISZERO PUSH2 0xB4C JUMPI PUSH1 0x0 DUP1 REVERT JUMPDEST POP PUSH2 0xB59 DUP13 DUP3 DUP14 ADD PUSH2 0xA59 JUMP JUMPDEST SWAP2 POP DUP1 SWAP4 POP POP DUP1 SWAP2 POP POP SWAP3 SWAP6 SWAP9 POP SWAP3 SWAP6 SWAP9 POP SWAP3 SWAP6 SWAP9 JUMP JUMPDEST PUSH1 0x20 DUP1 DUP3 MSTORE DUP3 MLOAD DUP3 DUP3 ADD DUP2 SWAP1 MSTORE PUSH1 0x0 SWAP2 SWAP1 DUP5 DUP3 ADD SWAP1 PUSH1 0x40 DUP6 ADD SWAP1 DUP5 JUMPDEST DUP2 DUP2 LT ISZERO PUSH2 0xBAA JUMPI DUP4 MLOAD ISZERO ISZERO DUP4 MSTORE SWAP3 DUP5 ADD SWAP3 SWAP2 DUP5 ADD SWAP2 PUSH1 0x1 ADD PUSH2 0xB8C JUMP JUMPDEST POP SWAP1 SWAP7 SWAP6 POP POP POP POP POP POP JUMP JUMPDEST PUSH4 0x4E487B71 PUSH1 0xE0 SHL PUSH1 0x0 MSTORE PUSH1 0x41 PUSH1 0x4 MSTORE PUSH1 0x24 PUSH1 0x0 REVERT JUMPDEST PUSH4 0x4E487B71 PUSH1 0xE0 SHL PUSH1 0x0 MSTORE PUSH1 0x32 PUSH1 0x4 MSTORE PUSH1 0x24 PUSH1 0x0 REVERT JUMPDEST PUSH1 0x0 PUSH1 0x20 DUP3 DUP5 SUB SLT ISZERO PUSH2 0xBF4 JUMPI PUSH1 0x0 DUP1 REVERT JUMPDEST DUP2 CALLDATALOAD PUSH1 0xFF DUP2 AND DUP2 EQ PUSH2 0xA52 JUMPI PUSH1 0x0 DUP1 REVERT JUMPDEST PUSH1 0x0 DUP1 DUP4 CALLDATALOAD PUSH1 0x1E NOT DUP5 CALLDATASIZE SUB ADD DUP2 SLT PUSH2 0xC1C JUMPI PUSH1 0x0 DUP1 REVERT JUMPDEST DUP4 ADD DUP1 CALLDATALOAD SWAP2 POP PUSH8 0xFFFFFFFFFFFFFFFF DUP3 GT ISZERO PUSH2 0xC37 JUMPI PUSH1 0x0 DUP1 REVERT JUMPDEST PUSH1 0x20 ADD SWAP2 POP CALLDATASIZE DUP2 SWAP1 SUB DUP3 SGT ISZERO PUSH2 0xA9E JUMPI PUSH1 0x0 DUP1 REVERT JUMPDEST PUSH1 0x0 JUMPDEST DUP4 DUP2 LT ISZERO PUSH2 0xC67 JUMPI DUP2 DUP2 ADD MLOAD DUP4 DUP3 ADD MSTORE PUSH1 0x20 ADD PUSH2 0xC4F JUMP JUMPDEST POP POP PUSH1 0x0 SWAP2 ADD MSTORE JUMP JUMPDEST PUSH1 0x0 DUP3 MLOAD PUSH2 0xC82 DUP2 DUP5 PUSH1 0x20 DUP8 ADD PUSH2 0xC4C JUMP JUMPDEST SWAP2 SWAP1 SWAP2 ADD SWAP3 SWAP2 POP POP JUMP JUMPDEST DUP2 DUP4 DUP3 CALLDATACOPY PUSH1 0x0 SWAP2 ADD SWAP1 DUP2 MSTORE SWAP2 SWAP1 POP JUMP JUMPDEST DUP1 MLOAD PUSH2 0xCA7 DUP2 PUSH2 0xA20 JUMP JUMPDEST SWAP2 SWAP1 POP JUMP JUMPDEST PUSH1 0x0 DUP1 PUSH1 0x0 DUP1 PUSH1 0x80 DUP6 DUP8 SUB SLT ISZERO PUSH2 0xCC2 JUMPI PUSH1 0x0 DUP1 REVERT JUMPDEST DUP5 MLOAD PUSH2 0xCCD DUP2 PUSH2 0xA20 JUMP JUMPDEST PUSH1 0x20 DUP7 ADD MLOAD SWAP1 SWAP5 POP PUSH8 0xFFFFFFFFFFFFFFFF DUP1 DUP3 GT ISZERO PUSH2 0xCEB JUMPI PUSH1 0x0 DUP1 REVERT JUMPDEST DUP2 DUP8 ADD SWAP2 POP DUP8 PUSH1 0x1F DUP4 ADD SLT PUSH2 0xCFF JUMPI PUSH1 0x0 DUP1 REVERT JUMPDEST DUP2 MLOAD DUP2 DUP2 GT ISZERO PUSH2 0xD11 JUMPI PUSH2 0xD11 PUSH2 0xBB6 JUMP JUMPDEST PUSH1 0x40 MLOAD PUSH1 0x1F DUP3 ADD PUSH1 0x1F NOT SWAP1 DUP2 AND PUSH1 0x3F ADD AND DUP2 ADD SWAP1 DUP4 DUP3 GT DUP2 DUP4 LT OR ISZERO PUSH2 0xD39 JUMPI PUSH2 0xD39 PUSH2 0xBB6 JUMP JUMPDEST DUP2 PUSH1 0x40 MSTORE DUP3 DUP2 MSTORE DUP11 PUSH1 0x20 DUP5 DUP8 ADD ADD GT ISZERO PUSH2 0xD52 JUMPI PUSH1 0x0 DUP1 REVERT JUMPDEST PUSH2 0xD63 DUP4 PUSH1 0x20 DUP4 ADD PUSH1 0x20 DUP9 ADD PUSH2 0xC4C JUMP JUMPDEST DUP1 SWAP8 POP POP POP POP POP POP PUSH1 0x40 DUP6 ADD MLOAD SWAP2 POP PUSH2 0xD7E PUSH1 0x60 DUP7 ADD PUSH2 0xC9C JUMP JUMPDEST SWAP1 POP SWAP3 SWAP6 SWAP2 SWAP5 POP SWAP3 POP JUMP INVALID LOG2 PUSH5 0x6970667358 0x22 SLT KECCAK256 DUP16 STOP CALLVALUE 0xFC 0xEF SHL CALLDATASIZE BASEFEE 0x2E 0x26 MOD SHL PUSH4 0x4119BC4C 0xE8 CODECOPY 0x2C CALLVALUE 0xEA SWAP1 SWAP13 OR SHR 0x4F 0x21 0xA9 0xF PUSH31 0x964736F6C6343000814003300000000000000000000000000000000000000 "},"methodIdentifiers":{"encodeAndExecute(address,uint256,address,address[],bytes[],uint8[])":"dd76f8f1","owner()":"8da5cb5b","withdraw(address)":"51cff8d9"}}}}}