{"abi":[{"type":"function","name":"readAddress","inputs":[{"name":"wallet","type":"address","internalType":"address"}],"outputs":[{"name":"","type":"address","internalType":"address"}],"stateMutability":"view"},{"type":"function","name":"registerBundler","inputs":[],"outputs":[],"stateMutability":"nonpayable"},{"type":"function","name":"storeAddress","inputs":[{"name":"bundler","type":"address","internalType":"address"}],"outputs":[],"stateMutability":"nonpayable"}],"bytecode":{"object":"0x608060405234801561001057600080fd5b5061017f806100206000396000f3fe608060405234801561001057600080fd5b50600436106100415760003560e01c80637128666b14610046578063cade77fa14610085578063f3f94ef8146100cd575b600080fd5b610083610054366004610119565b33600090815260208190526040902080546001600160a01b0319166001600160a01b0392909216919091179055565b005b6100b1610093366004610119565b6001600160a01b039081166000908152602081905260409020541690565b6040516001600160a01b03909116815260200160405180910390f35b610083326000818152602081905260409020546001600160a01b0316610116576001600160a01b038116600090815260208190526040902080546001600160a01b031916331790555b50565b60006020828403121561012b57600080fd5b81356001600160a01b038116811461014257600080fd5b939250505056fea2646970667358221220db07c6174aa2d6d6a18eb891ea941842cab7230818be4acc3f4a94ca9d3707e664736f6c63430008130033","linkReferences":{}},"methodIdentifiers":{"readAddress(address)":"cade77fa","registerBundler()":"f3f94ef8","storeAddress(address)":"7128666b"},"id":1}