{
  "_format": "hh-sol-artifact-1",
  "contractName": "BundlerRegistry",
  "sourceName": "contracts/BundlerRegistry.sol",
  "abi": [
    {
      "inputs": [
        {
          "internalType": "address",
          "name": "wallet",
          "type": "address"
        }
      ],
      "name": "readAddress",
      "outputs": [
        {
          "internalType": "address",
          "name": "",
          "type": "address"
        }
      ],
      "stateMutability": "view",
      "type": "function"
    },
    {
      "inputs": [],
      "name": "registerBundler",
      "outputs": [],
      "stateMutability": "nonpayable",
      "type": "function"
    },
    {
      "inputs": [
        {
          "internalType": "address",
          "name": "bundler",
          "type": "address"
        }
      ],
      "name": "storeAddress",
      "outputs": [],
      "stateMutability": "nonpayable",
      "type": "function"
    }
  ],
  "bytecode": "0x608060405234801561001057600080fd5b506101ed806100206000396000f3fe608060405234801561001057600080fd5b50600436106100415760003560e01c80637128666b14610046578063cade77fa14610085578063f3f94ef8146100cd575b600080fd5b610083610054366004610176565b33600090815260208190526040902080546001600160a01b0319166001600160a01b0392909216919091179055565b005b6100b1610093366004610176565b6001600160a01b039081166000908152602081905260409020541690565b6040516001600160a01b03909116815260200160405180910390f35b6100836000336001600160a01b0316638da5cb5b6040518163ffffffff1660e01b8152600401602060405180830381865afa158015610110573d6000803e3d6000fd5b505050506040513d601f19601f82011682018060405250810190610134919061019a565b6001600160a01b0316600090815260208190526040902080546001600160a01b0319163317905550565b6001600160a01b038116811461017357600080fd5b50565b60006020828403121561018857600080fd5b81356101938161015e565b9392505050565b6000602082840312156101ac57600080fd5b81516101938161015e56fea264697066735822122073b2e3ebc2c066355ea0dac2f8020e0b99028dd4340d4ccb76288e65a3e039be64736f6c63430008140033",
  "linkReferences": {},
  "deployedLinkReferences": {}
}