{
  "_format": "hh-sol-artifact-1",
  "contractName": "BundlerRegistry",
  "sourceName": "contracts/BundlerRegistry.sol",
  "abi": [
    {
      "inputs": [
        {
          "internalType": "address",
          "name": "wallet",
          "type": "address"
        }
      ],
      "name": "readAddress",
      "outputs": [
        {
          "internalType": "address",
          "name": "",
          "type": "address"
        }
      ],
      "stateMutability": "view",
      "type": "function"
    },
    {
      "inputs": [
        {
          "internalType": "address",
          "name": "bundler",
          "type": "address"
        }
      ],
      "name": "storeAddress",
      "outputs": [],
      "stateMutability": "nonpayable",
      "type": "function"
    }
  ],
  "bytecode": "0x608060405234801561001057600080fd5b5061011c806100206000396000f3fe6080604052348015600f57600080fd5b506004361060325760003560e01c80637128666b146037578063cade77fa146073575b600080fd5b6071604236600460b8565b33600090815260208190526040902080546001600160a01b0319166001600160a01b0392909216919091179055565b005b609c607e36600460b8565b6001600160a01b039081166000908152602081905260409020541690565b6040516001600160a01b03909116815260200160405180910390f35b60006020828403121560c957600080fd5b81356001600160a01b038116811460df57600080fd5b939250505056fea2646970667358221220abb5722ec1387c88bcf00a4fb72a151747910d7423792603af5b1b10beb5a34964736f6c63430008140033",
  "linkReferences": {},
  "deployedLinkReferences": {}
}