{
  "_format": "hh-sol-artifact-1",
  "contractName": "BalancerEncoder",
  "sourceName": "contracts/BalancerEncoder.sol",
  "abi": [
    {
      "inputs": [
        {
          "internalType": "bytes32",
          "name": "poolId",
          "type": "bytes32"
        },
        {
          "internalType": "address",
          "name": "tokenIn",
          "type": "address"
        },
        {
          "internalType": "address",
          "name": "tokenOut",
          "type": "address"
        },
        {
          "internalType": "uint256",
          "name": "amountIn",
          "type": "uint256"
        },
        {
          "internalType": "uint256",
          "name": "minAmountOut",
          "type": "uint256"
        }
      ],
      "name": "encodeSingleSwap",
      "outputs": [
        {
          "internalType": "address",
          "name": "target",
          "type": "address"
        },
        {
          "internalType": "bytes",
          "name": "callData",
          "type": "bytes"
        },
        {
          "internalType": "uint256",
          "name": "inputAmount",
          "type": "uint256"
        },
        {
          "internalType": "address",
          "name": "",
          "type": "address"
        }
      ],
      "stateMutability": "view",
      "type": "function"
    },
    {
      "inputs": [
        {
          "internalType": "bytes32",
          "name": "poolId",
          "type": "bytes32"
        },
        {
          "internalType": "address",
          "name": "tokenIn",
          "type": "address"
        },
        {
          "internalType": "address",
          "name": "tokenOut",
          "type": "address"
        },
        {
          "internalType": "uint256",
          "name": "minAmountOut",
          "type": "uint256"
        },
        {
          "internalType": "uint8",
          "name": "wrapOp",
          "type": "uint8"
        }
      ],
      "name": "encodeUseAllBalanceSwap",
      "outputs": [
        {
          "internalType": "address",
          "name": "target",
          "type": "address"
        },
        {
          "internalType": "bytes",
          "name": "callData",
          "type": "bytes"
        },
        {
          "internalType": "uint256",
          "name": "inputAmount",
          "type": "uint256"
        },
        {
          "internalType": "address",
          "name": "",
          "type": "address"
        }
      ],
      "stateMutability": "view",
      "type": "function"
    }
  ],
  "bytecode": "0x608060405234801561001057600080fd5b506105ea806100206000396000f3fe608060405234801561001057600080fd5b50600436106100365760003560e01c8063c28df4ac1461003b578063e517173c14610067575b600080fd5b61004e610049366004610369565b61007a565b60405161005e9493929190610410565b60405180910390f35b61004e61007536600461044b565b6101fa565b6000606081808760ff8616600103610094575060006100b6565b8560ff166003036100b6575073c02aaa39b223fe8d0a0e5c4f27ead9083c756cc25b60006001600160a01b038216156100d6576100d1823361031c565b6100d9565b33315b905060006040518060c001604052808d81526020016000600181111561010157610101610499565b81526020018c6001600160a01b031681526020018b6001600160a01b0316815260200183815260200160405180602001604052806000815250815250905060006040518060800160405280336001600160a01b03168152602001600015158152602001336001600160a01b031681526020016000151581525090506000426104b061018c91906104af565b905082828c836040516024016101a594939291906104d6565b60408051601f198184030181529190526020810180516001600160e01b03166352bbbe2960e01b17905273ba12222222228d8ba445958a75a0704d566bf2c89f909e50939c9b50929950505050505050505050565b6000606060008060006040518060c001604052808b81526020016000600181111561022757610227610499565b81526020018a6001600160a01b03168152602001896001600160a01b0316815260200188815260200160405180602001604052806000815250815250905060006040518060800160405280336001600160a01b03168152602001600015158152602001336001600160a01b031681526020016000151581525090506000426104b06102b291906104af565b9050828289836040516024016102cb94939291906104d6565b60408051601f198184030181529190526020810180516001600160e01b03166352bbbe2960e01b17905273ba12222222228d8ba445958a75a0704d566bf2c89d909c50989a99505050505050505050565b60006040516370a0823160e01b8152826004820152602081602483875afa8061034457600080fd5b50519392505050565b80356001600160a01b038116811461036457600080fd5b919050565b600080600080600060a0868803121561038157600080fd5b853594506103916020870161034d565b935061039f6040870161034d565b925060608601359150608086013560ff811681146103bc57600080fd5b809150509295509295909350565b6000815180845260005b818110156103f0576020818501810151868301820152016103d4565b506000602082860101526020601f19601f83011685010191505092915050565b600060018060a01b0380871683526080602084015261043260808401876103ca565b6040840195909552929092166060909101525092915050565b600080600080600060a0868803121561046357600080fd5b853594506104736020870161034d565b93506104816040870161034d565b94979396509394606081013594506080013592915050565b634e487b7160e01b600052602160045260246000fd5b808201808211156104d057634e487b7160e01b600052601160045260246000fd5b92915050565b60e08152845160e0820152600060208601516002811061050657634e487b7160e01b600052602160045260246000fd5b61010083015260408601516001600160a01b0316610120830152606086015161053b6101408401826001600160a01b03169052565b50608086015161016083015260a086015160c06101808401526105626101a08401826103ca565b9150506105a2602083018680516001600160a01b039081168352602080830151151590840152604080830151909116908301526060908101511515910152565b60a082019390935260c001529291505056fea2646970667358221220f7442cf9e50f6bebeaab0c5a2997571d2de5ccacd696f03f21ec2f938e18c6ea64736f6c63430008140033",
  "linkReferences": {},
  "deployedLinkReferences": {}
}