{
  "_format": "hh-sol-artifact-1",
  "contractName": "BalancerEncoder",
  "sourceName": "contracts/BalancerEncoder.sol",
  "abi": [
    {
      "inputs": [
        {
          "internalType": "address",
          "name": "pool",
          "type": "address"
        },
        {
          "internalType": "address",
          "name": "tokenIn",
          "type": "address"
        },
        {
          "internalType": "address",
          "name": "tokenOut",
          "type": "address"
        },
        {
          "internalType": "uint256",
          "name": "amountIn",
          "type": "uint256"
        },
        {
          "internalType": "uint256",
          "name": "minAmountOut",
          "type": "uint256"
        }
      ],
      "name": "encodeSingleSwap",
      "outputs": [
        {
          "internalType": "address",
          "name": "target",
          "type": "address"
        },
        {
          "internalType": "bytes",
          "name": "callData",
          "type": "bytes"
        },
        {
          "internalType": "uint256",
          "name": "inputAmount",
          "type": "uint256"
        },
        {
          "internalType": "address",
          "name": "",
          "type": "address"
        }
      ],
      "stateMutability": "pure",
      "type": "function"
    },
    {
      "inputs": [
        {
          "internalType": "address",
          "name": "pool",
          "type": "address"
        },
        {
          "internalType": "address",
          "name": "tokenIn",
          "type": "address"
        },
        {
          "internalType": "address",
          "name": "tokenOut",
          "type": "address"
        },
        {
          "internalType": "uint256",
          "name": "minAmountOut",
          "type": "uint256"
        },
        {
          "internalType": "uint8",
          "name": "wrapOp",
          "type": "uint8"
        }
      ],
      "name": "encodeUseAllBalanceSwap",
      "outputs": [
        {
          "internalType": "address",
          "name": "target",
          "type": "address"
        },
        {
          "internalType": "bytes",
          "name": "callData",
          "type": "bytes"
        },
        {
          "internalType": "uint256",
          "name": "inputAmount",
          "type": "uint256"
        },
        {
          "internalType": "address",
          "name": "",
          "type": "address"
        }
      ],
      "stateMutability": "view",
      "type": "function"
    }
  ],
  "bytecode": "0x608060405234801561001057600080fd5b506103c3806100206000396000f3fe608060405234801561001057600080fd5b50600436106100365760003560e01c80634bd768281461003b578063ec4dcf6b14610067575b600080fd5b61004e61004936600461020e565b61007a565b60405161005e9493929190610263565b60405180910390f35b61004e6100753660046102d3565b6100ef565b60006060600080888888888860001960006040516024016100a1979695949392919061033b565b60408051601f198184030181529190526020810180516001600160e01b0316631d40a0ef60e21b17905273ae563e3f8219521950555f5962419c8919758ea29a909950959796505050505050565b6000606081808760ff86166001036101095750600061012b565b8560ff1660030361012b575073c02aaa39b223fe8d0a0e5c4f27ead9083c756cc25b60006001600160a01b0382161561014b5761014682336101c1565b61014e565b33315b90508a8a8a838b6000196000604051602401610170979695949392919061033b565b60408051601f198184030181529190526020810180516001600160e01b0316631d40a0ef60e21b17905273ae563e3f8219521950555f5962419c8919758ea29c909b50909998509650505050505050565b60006040516370a0823160e01b8152826004820152602081602483875afa806101e957600080fd5b50519392505050565b80356001600160a01b038116811461020957600080fd5b919050565b600080600080600060a0868803121561022657600080fd5b61022f866101f2565b945061023d602087016101f2565b935061024b604087016101f2565b94979396509394606081013594506080013592915050565b600060018060a01b0380871683526020608081850152865180608086015260005b818110156102a05788810183015186820160a001528201610284565b50600060a0828701015260a0601f19601f8301168601019350505084604084015280841660608401525095945050505050565b600080600080600060a086880312156102eb57600080fd5b6102f4866101f2565b9450610302602087016101f2565b9350610310604087016101f2565b925060608601359150608086013560ff8116811461032d57600080fd5b809150509295509295909350565b6001600160a01b03978816815295871660208701529390951660408501526060840191909152608083015260a082019290925290151560c082015261010060e08201819052600090820152610120019056fea2646970667358221220fc4709f131608a89b4e4aa56565f84aa3e8d617feec6a094d179bf79052ef4ca64736f6c63430008140033",
  "linkReferences": {},
  "deployedLinkReferences": {}
}