{
  "_format": "hh-sol-artifact-1",
  "contractName": "BalancerEncoder",
  "sourceName": "contracts/BalancerEncoder.sol",
  "abi": [
    {
      "inputs": [
        {
          "internalType": "address",
          "name": "pool",
          "type": "address"
        },
        {
          "internalType": "address",
          "name": "tokenIn",
          "type": "address"
        },
        {
          "internalType": "address",
          "name": "tokenOut",
          "type": "address"
        },
        {
          "internalType": "uint256",
          "name": "amountIn",
          "type": "uint256"
        },
        {
          "internalType": "uint256",
          "name": "minAmountOut",
          "type": "uint256"
        }
      ],
      "name": "encodeSingleSwap",
      "outputs": [
        {
          "internalType": "address",
          "name": "target",
          "type": "address"
        },
        {
          "internalType": "bytes",
          "name": "callData",
          "type": "bytes"
        },
        {
          "internalType": "uint256",
          "name": "inputAmount",
          "type": "uint256"
        },
        {
          "internalType": "address",
          "name": "_tokenIn",
          "type": "address"
        }
      ],
      "stateMutability": "pure",
      "type": "function"
    },
    {
      "inputs": [
        {
          "internalType": "address",
          "name": "pool",
          "type": "address"
        },
        {
          "internalType": "address",
          "name": "tokenIn",
          "type": "address"
        },
        {
          "internalType": "address",
          "name": "tokenOut",
          "type": "address"
        },
        {
          "internalType": "uint256",
          "name": "minAmountOut",
          "type": "uint256"
        },
        {
          "internalType": "uint8",
          "name": "wrapOp",
          "type": "uint8"
        }
      ],
      "name": "encodeUseAllBalanceSwap",
      "outputs": [
        {
          "internalType": "address",
          "name": "target",
          "type": "address"
        },
        {
          "internalType": "bytes",
          "name": "callData",
          "type": "bytes"
        },
        {
          "internalType": "uint256",
          "name": "inputAmount",
          "type": "uint256"
        },
        {
          "internalType": "address",
          "name": "_tokenIn",
          "type": "address"
        }
      ],
      "stateMutability": "view",
      "type": "function"
    }
  ],
  "bytecode": "0x608060405234801561001057600080fd5b506103f0806100206000396000f3fe608060405234801561001057600080fd5b50600436106100365760003560e01c80634bd768281461003b578063ec4dcf6b14610067575b600080fd5b61004e610049366004610262565b61007a565b60405161005e94939291906102fd565b60405180910390f35b61004e610075366004610338565b610138565b604080516001600160a01b0387811660208301528681168284015285166060808301919091526080820185905260a08083018590528351808403909101815260c08301909352600092909183918291632f9e6f5b60e01b906100e090839060e4016103a0565b60408051601f198184030181529190526020810180516001600160e01b03166001600160e01b0319939093169290921790915273ba1333333333a1ba1108e8412f11850a5c319ba99b909a5096989750505050505050565b6000606060008060008560ff1660010361015457503331610161565b61015e8933610215565b90505b604080516001600160a01b038c811660208301528b8116828401528a1660608201526080810183905260a08082018a90528251808303909101815260c08201909252632f9e6f5b60e01b906101ba90839060e4016103a0565b60408051601f198184030181529190526020810180516001600160e01b03166001600160e01b0319939093169290921790915273ba1333333333a1ba1108e8412f11850a5c319ba99c909b5091999850909650505050505050565b60006040516370a0823160e01b8152826004820152602081602483875afa8061023d57600080fd5b50519392505050565b80356001600160a01b038116811461025d57600080fd5b919050565b600080600080600060a0868803121561027a57600080fd5b61028386610246565b945061029160208701610246565b935061029f60408701610246565b94979396509394606081013594506080013592915050565b6000815180845260005b818110156102dd576020818501810151868301820152016102c1565b506000602082860101526020601f19601f83011685010191505092915050565b600060018060a01b0380871683526080602084015261031f60808401876102b7565b6040840195909552929092166060909101525092915050565b600080600080600060a0868803121561035057600080fd5b61035986610246565b945061036760208701610246565b935061037560408701610246565b925060608601359150608086013560ff8116811461039257600080fd5b809150509295509295909350565b6020815260006103b360208301846102b7565b939250505056fea26469706673582212204519288583f436a1dd6053eaf72a9a5086ff98ee785287ac451cb02370129f2264736f6c63430008140033",
  "linkReferences": {},
  "deployedLinkReferences": {}
}