{
  "_format": "hh-sol-artifact-1",
  "contractName": "BalancerEncoder",
  "sourceName": "contracts/BalancerEncoder.sol",
  "abi": [
    {
      "inputs": [
        {
          "internalType": "bytes32[]",
          "name": "poolIds",
          "type": "bytes32[]"
        },
        {
          "internalType": "address[]",
          "name": "assets",
          "type": "address[]"
        },
        {
          "internalType": "uint256",
          "name": "amountIn",
          "type": "uint256"
        },
        {
          "internalType": "uint256",
          "name": "minAmountOut",
          "type": "uint256"
        }
      ],
      "name": "encodeBatchSwap",
      "outputs": [
        {
          "internalType": "address",
          "name": "target",
          "type": "address"
        },
        {
          "internalType": "bytes",
          "name": "callData",
          "type": "bytes"
        }
      ],
      "stateMutability": "view",
      "type": "function"
    },
    {
      "inputs": [
        {
          "internalType": "bytes32",
          "name": "poolId",
          "type": "bytes32"
        },
        {
          "internalType": "address",
          "name": "tokenIn",
          "type": "address"
        },
        {
          "internalType": "address",
          "name": "tokenOut",
          "type": "address"
        },
        {
          "internalType": "uint256",
          "name": "amountIn",
          "type": "uint256"
        },
        {
          "internalType": "uint256",
          "name": "minAmountOut",
          "type": "uint256"
        }
      ],
      "name": "encodeSingleSwap",
      "outputs": [
        {
          "internalType": "address",
          "name": "target",
          "type": "address"
        },
        {
          "internalType": "bytes",
          "name": "callData",
          "type": "bytes"
        },
        {
          "internalType": "uint256",
          "name": "inputAmount",
          "type": "uint256"
        },
        {
          "internalType": "address",
          "name": "",
          "type": "address"
        }
      ],
      "stateMutability": "view",
      "type": "function"
    },
    {
      "inputs": [
        {
          "internalType": "bytes32",
          "name": "poolId",
          "type": "bytes32"
        },
        {
          "internalType": "address",
          "name": "tokenIn",
          "type": "address"
        },
        {
          "internalType": "address",
          "name": "tokenOut",
          "type": "address"
        },
        {
          "internalType": "uint256",
          "name": "minAmountOut",
          "type": "uint256"
        }
      ],
      "name": "encodeUseAllBalanceSwap",
      "outputs": [
        {
          "internalType": "address",
          "name": "target",
          "type": "address"
        },
        {
          "internalType": "bytes",
          "name": "callData",
          "type": "bytes"
        },
        {
          "internalType": "uint256",
          "name": "inputAmount",
          "type": "uint256"
        },
        {
          "internalType": "address",
          "name": "",
          "type": "address"
        }
      ],
      "stateMutability": "view",
      "type": "function"
    }
  ],
  "bytecode": "0x608060405234801561001057600080fd5b50610c1d806100206000396000f3fe608060405234801561001057600080fd5b50600436106100415760003560e01c8063a614b22414610046578063e517173c14610072578063eb69aefd14610085575b600080fd5b6100596100543660046106b6565b6100a6565b6040516100699493929190610740565b60405180910390f35b61005961008036600461077b565b6101d8565b610098610093366004610815565b6102fa565b604051610069929190610893565b6000606060008060006100b98833610669565b905060006040518060c001604052808b8152602001600060018111156100e1576100e16108bf565b81526020018a6001600160a01b03168152602001896001600160a01b0316815260200183815260200160405180602001604052806000815250815250905060006040518060800160405280336001600160a01b03168152602001600015158152602001336001600160a01b031681526020016000151581525090506000426104b061016c91906108eb565b905082828a836040516024016101859493929190610926565b60408051601f198184030181529190526020810180516001600160e01b03166352bbbe2960e01b17905273ba12222222228d8ba445958a75a0704d566bf2c89d909c50939a995092975050505050505050565b6000606060008060006040518060c001604052808b815260200160006001811115610205576102056108bf565b81526020018a6001600160a01b03168152602001896001600160a01b0316815260200188815260200160405180602001604052806000815250815250905060006040518060800160405280336001600160a01b03168152602001600015158152602001336001600160a01b031681526020016000151581525090506000426104b061029091906108eb565b9050828289836040516024016102a99493929190610926565b60408051601f198184030181529190526020810180516001600160e01b03166352bbbe2960e01b17905273ba12222222228d8ba445958a75a0704d566bf2c89d909c50989a99505050505050505050565b60006060861580159061031657506103136001866109e1565b87145b6103555760405162461bcd60e51b815260206004820152600c60248201526b092dcecc2d8d2c840e0c2e8d60a31b604482015260640160405180910390fd5b60008767ffffffffffffffff811115610370576103706109f4565b6040519080825280602002602001820160405280156103d657816020015b6103c36040518060a0016040528060008019168152602001600081526020016000815260200160008152602001606081525090565b81526020019060019003908161038e5790505b5090506040518060a001604052808a8a60008181106103f7576103f7610a0a565b9050602002013581526020016000815260200160018152602001868152602001604051806020016040528060008152508152508160008151811061043d5761043d610a0a565b602090810291909101015260015b888110156104de576040518060a001604052808b8b8481811061047057610470610a0a565b90506020020135815260200182815260200182600161048f91906108eb565b815260200160008152602001604051806020016040528060008152508152508282815181106104c0576104c0610a0a565b602002602001018190525080806104d690610a20565b91505061044b565b5060008667ffffffffffffffff8111156104fa576104fa6109f4565b604051908082528060200260200182016040528015610523578160200160208202803683370190505b509050858160008151811061053a5761053a610a0a565b602090810291909101015260015b6105536001896109e1565b811015610591576001600160ff1b0382828151811061057457610574610a0a565b60209081029190910101528061058981610a20565b915050610548565b5061059b85610a39565b816105a760018a6109e1565b815181106105b7576105b7610a0a565b602090810291909101810191909152604080516080810182523380825260009382018490529181019190915260608101829052906105f7426104b06108eb565b90506000848b8b8587866040516024016106179796959493929190610acc565b60408051601f198184030181529190526020810180516001600160e01b031663945bcec960e01b17905273ba12222222228d8ba445958a75a0704d566bf2c89650945050505050965096945050505050565b60006040516370a0823160e01b8152826004820152602081602483875afa8061069157600080fd5b50519392505050565b80356001600160a01b03811681146106b157600080fd5b919050565b600080600080608085870312156106cc57600080fd5b843593506106dc6020860161069a565b92506106ea6040860161069a565b9396929550929360600135925050565b6000815180845260005b8181101561072057602081850181015186830182015201610704565b506000602082860101526020601f19601f83011685010191505092915050565b600060018060a01b0380871683526080602084015261076260808401876106fa565b6040840195909552929092166060909101525092915050565b600080600080600060a0868803121561079357600080fd5b853594506107a36020870161069a565b93506107b16040870161069a565b94979396509394606081013594506080013592915050565b60008083601f8401126107db57600080fd5b50813567ffffffffffffffff8111156107f357600080fd5b6020830191508360208260051b850101111561080e57600080fd5b9250929050565b6000806000806000806080878903121561082e57600080fd5b863567ffffffffffffffff8082111561084657600080fd5b6108528a838b016107c9565b9098509650602089013591508082111561086b57600080fd5b5061087889828a016107c9565b979a9699509760408101359660609091013595509350505050565b6001600160a01b03831681526040602082018190526000906108b7908301846106fa565b949350505050565b634e487b7160e01b600052602160045260246000fd5b634e487b7160e01b600052601160045260246000fd5b808201808211156108fe576108fe6108d5565b92915050565b6002811061092257634e487b7160e01b600052602160045260246000fd5b9052565b60e08152845160e082015260006020860151610946610100840182610904565b5060408601516001600160a01b03908116610120840152606087015116610140830152608086015161016083015260a086015160c061018084015261098f6101a08401826106fa565b9150506109cf602083018680516001600160a01b039081168352602080830151151590840152604080830151909116908301526060908101511515910152565b60a082019390935260c0015292915050565b818103818111156108fe576108fe6108d5565b634e487b7160e01b600052604160045260246000fd5b634e487b7160e01b600052603260045260246000fd5b600060018201610a3257610a326108d5565b5060010190565b6000600160ff1b8201610a4e57610a4e6108d5565b5060000390565b8183526000602080850194508260005b85811015610a91576001600160a01b03610a7e8361069a565b1687529582019590820190600101610a65565b509495945050505050565b600081518084526020808501945080840160005b83811015610a9157815187529582019590820190600101610ab0565b6000610120808301610ade848c610904565b60208481019290925289519081905261014080850192600583901b8601909101918b820160005b82811015610b685787850361013f190186528151805186528481015185870152604080820151908701526060808201519087015260809081015160a091870182905290610b54818801836106fa565b978601979650505090830190600101610b05565b505050508381036040850152610b7f81898b610a55565b915050610bbf606084018780516001600160a01b039081168352602080830151151590840152604080830151909116908301526060908101511515910152565b82810360e0840152610bd18186610a9c565b915050826101008301529897505050505050505056fea2646970667358221220f780096246e4e2d5d0b773eaf8f6d12409081f79995381a163f62121e128f0bb64736f6c63430008140033",
  "linkReferences": {},
  "deployedLinkReferences": {}
}