{
  "_format": "hh-sol-artifact-1",
  "contractName": "BalancerEncoder",
  "sourceName": "contracts/BalancerEncoder.sol",
  "abi": [
    {
      "inputs": [
        {
          "internalType": "address",
          "name": "pool",
          "type": "address"
        },
        {
          "internalType": "address",
          "name": "tokenIn",
          "type": "address"
        },
        {
          "internalType": "address",
          "name": "tokenOut",
          "type": "address"
        },
        {
          "internalType": "uint256",
          "name": "minAmountOut",
          "type": "uint256"
        },
        {
          "internalType": "uint8",
          "name": "wrapOp",
          "type": "uint8"
        }
      ],
      "name": "encodeUseAllBalanceSwap",
      "outputs": [
        {
          "internalType": "address",
          "name": "target",
          "type": "address"
        },
        {
          "internalType": "bytes",
          "name": "callData",
          "type": "bytes"
        },
        {
          "internalType": "uint256",
          "name": "inputAmount",
          "type": "uint256"
        },
        {
          "internalType": "address",
          "name": "",
          "type": "address"
        }
      ],
      "stateMutability": "view",
      "type": "function"
    }
  ],
  "bytecode": "0x608060405234801561001057600080fd5b50610294806100206000396000f3fe608060405234801561001057600080fd5b506004361061002b5760003560e01c8063ec4dcf6b14610030575b600080fd5b61004361003e366004610186565b61005c565b60405161005394939291906101ee565b60405180910390f35b6000606060008060008560ff1660010361007857503331610085565b6100828933610129565b90505b6040516001600160a01b03808c166024830152808b166044830152891660648201526084810182905260a4810188905260001960c4820152600060e482018190526101006101048301526101248201526101440160408051601f198184030181529190526020810180516001600160e01b0316631d40a0ef60e21b17905273ae563e3f8219521950555f5962419c8919758ea29b909a509098975095505050505050565b60006040516370a0823160e01b815282600482015260408101602081602484885afa91508161015757600080fd5b3d61016157600080fd5b51949350505050565b80356001600160a01b038116811461018157600080fd5b919050565b600080600080600060a0868803121561019e57600080fd5b6101a78661016a565b94506101b56020870161016a565b93506101c36040870161016a565b925060608601359150608086013560ff811681146101e057600080fd5b809150509295509295909350565b600060018060a01b0380871683526020608081850152865180608086015260005b8181101561022b5788810183015186820160a00152820161020f565b50600060a0828701015260a0601f19601f830116860101935050508460408401528084166060840152509594505050505056fea2646970667358221220d635dc1f582d6518375c3f468f925ff29660d1bfa8c32f2b84be383454918f4864736f6c63430008140033",
  "linkReferences": {},
  "deployedLinkReferences": {}
}