{
  "_format": "hh-sol-artifact-1",
  "contractName": "BalancerEncoder",
  "sourceName": "contracts/BalancerEncoder.sol",
  "abi": [
    {
      "inputs": [
        {
          "internalType": "bytes32",
          "name": "poolId",
          "type": "bytes32"
        },
        {
          "internalType": "address",
          "name": "tokenIn",
          "type": "address"
        },
        {
          "internalType": "address",
          "name": "tokenOut",
          "type": "address"
        },
        {
          "internalType": "uint256",
          "name": "amountIn",
          "type": "uint256"
        },
        {
          "internalType": "uint256",
          "name": "minAmountOut",
          "type": "uint256"
        }
      ],
      "name": "encodeSingleSwap",
      "outputs": [
        {
          "internalType": "address",
          "name": "target",
          "type": "address"
        },
        {
          "internalType": "bytes",
          "name": "callData",
          "type": "bytes"
        },
        {
          "internalType": "uint256",
          "name": "inputAmount",
          "type": "uint256"
        },
        {
          "internalType": "address",
          "name": "",
          "type": "address"
        }
      ],
      "stateMutability": "view",
      "type": "function"
    },
    {
      "inputs": [
        {
          "internalType": "bytes32",
          "name": "poolId",
          "type": "bytes32"
        },
        {
          "internalType": "address",
          "name": "tokenIn",
          "type": "address"
        },
        {
          "internalType": "address",
          "name": "tokenOut",
          "type": "address"
        },
        {
          "internalType": "uint256",
          "name": "minAmountOut",
          "type": "uint256"
        }
      ],
      "name": "encodeUseAllBalanceSwap",
      "outputs": [
        {
          "internalType": "address",
          "name": "target",
          "type": "address"
        },
        {
          "internalType": "bytes",
          "name": "callData",
          "type": "bytes"
        },
        {
          "internalType": "uint256",
          "name": "inputAmount",
          "type": "uint256"
        },
        {
          "internalType": "address",
          "name": "",
          "type": "address"
        }
      ],
      "stateMutability": "view",
      "type": "function"
    }
  ],
  "bytecode": "0x608060405234801561001057600080fd5b5061057f806100206000396000f3fe608060405234801561001057600080fd5b50600436106100365760003560e01c8063a614b2241461003b578063e517173c14610067575b600080fd5b61004e61004936600461031b565b61007a565b60405161005e94939291906103a5565b60405180910390f35b61004e6100753660046103e0565b6101ac565b60006060600080600061008d88336102ce565b905060006040518060c001604052808b8152602001600060018111156100b5576100b561042e565b81526020018a6001600160a01b03168152602001896001600160a01b0316815260200183815260200160405180602001604052806000815250815250905060006040518060800160405280336001600160a01b03168152602001600015158152602001336001600160a01b031681526020016000151581525090506000426104b06101409190610444565b905082828a83604051602401610159949392919061046b565b60408051601f198184030181529190526020810180516001600160e01b03166352bbbe2960e01b17905273ba12222222228d8ba445958a75a0704d566bf2c89d909c50939a995092975050505050505050565b6000606060008060006040518060c001604052808b8152602001600060018111156101d9576101d961042e565b81526020018a6001600160a01b03168152602001896001600160a01b0316815260200188815260200160405180602001604052806000815250815250905060006040518060800160405280336001600160a01b03168152602001600015158152602001336001600160a01b031681526020016000151581525090506000426104b06102649190610444565b90508282898360405160240161027d949392919061046b565b60408051601f198184030181529190526020810180516001600160e01b03166352bbbe2960e01b17905273ba12222222228d8ba445958a75a0704d566bf2c89d909c50989a99505050505050505050565b60006040516370a0823160e01b8152826004820152602081602483875afa806102f657600080fd5b50519392505050565b80356001600160a01b038116811461031657600080fd5b919050565b6000806000806080858703121561033157600080fd5b84359350610341602086016102ff565b925061034f604086016102ff565b9396929550929360600135925050565b6000815180845260005b8181101561038557602081850181015186830182015201610369565b506000602082860101526020601f19601f83011685010191505092915050565b600060018060a01b038087168352608060208401526103c7608084018761035f565b6040840195909552929092166060909101525092915050565b600080600080600060a086880312156103f857600080fd5b85359450610408602087016102ff565b9350610416604087016102ff565b94979396509394606081013594506080013592915050565b634e487b7160e01b600052602160045260246000fd5b8082018082111561046557634e487b7160e01b600052601160045260246000fd5b92915050565b60e08152845160e0820152600060208601516002811061049b57634e487b7160e01b600052602160045260246000fd5b61010083015260408601516001600160a01b031661012083015260608601516104d06101408401826001600160a01b03169052565b50608086015161016083015260a086015160c06101808401526104f76101a084018261035f565b915050610537602083018680516001600160a01b039081168352602080830151151590840152604080830151909116908301526060908101511515910152565b60a082019390935260c001529291505056fea26469706673582212206e71b4efbaa03feda5132badaeb8d5197568d608c76ac5a13526b0db2348447f64736f6c63430008140033",
  "linkReferences": {},
  "deployedLinkReferences": {}
}