{
  "_format": "hh-sol-artifact-1",
  "contractName": "UniswapEncoder",
  "sourceName": "contracts/UniswapEncoder.sol",
  "abi": [
    {
      "inputs": [
        {
          "components": [
            {
              "components": [
                {
                  "internalType": "address",
                  "name": "currency0",
                  "type": "address"
                },
                {
                  "internalType": "address",
                  "name": "currency1",
                  "type": "address"
                },
                {
                  "internalType": "uint24",
                  "name": "fee",
                  "type": "uint24"
                },
                {
                  "internalType": "int24",
                  "name": "tickSpacing",
                  "type": "int24"
                },
                {
                  "internalType": "address",
                  "name": "hooks",
                  "type": "address"
                }
              ],
              "internalType": "struct UniswapEncoder.PoolKey",
              "name": "poolKey",
              "type": "tuple"
            },
            {
              "internalType": "bool",
              "name": "zeroForOne",
              "type": "bool"
            },
            {
              "internalType": "uint256",
              "name": "amountIn",
              "type": "uint256"
            },
            {
              "internalType": "uint256",
              "name": "minAmountOut",
              "type": "uint256"
            },
            {
              "internalType": "address",
              "name": "tokenIn",
              "type": "address"
            }
          ],
          "internalType": "struct UniswapEncoder.SingleSwapParams",
          "name": "swapParams",
          "type": "tuple"
        }
      ],
      "name": "encodeSingleSwap",
      "outputs": [
        {
          "internalType": "address",
          "name": "target",
          "type": "address"
        },
        {
          "internalType": "bytes",
          "name": "callData",
          "type": "bytes"
        },
        {
          "internalType": "uint256",
          "name": "inputAmount",
          "type": "uint256"
        },
        {
          "internalType": "address",
          "name": "_tokenIn",
          "type": "address"
        }
      ],
      "stateMutability": "pure",
      "type": "function"
    },
    {
      "inputs": [
        {
          "components": [
            {
              "components": [
                {
                  "internalType": "address",
                  "name": "currency0",
                  "type": "address"
                },
                {
                  "internalType": "address",
                  "name": "currency1",
                  "type": "address"
                },
                {
                  "internalType": "uint24",
                  "name": "fee",
                  "type": "uint24"
                },
                {
                  "internalType": "int24",
                  "name": "tickSpacing",
                  "type": "int24"
                },
                {
                  "internalType": "address",
                  "name": "hooks",
                  "type": "address"
                }
              ],
              "internalType": "struct UniswapEncoder.PoolKey",
              "name": "poolKey",
              "type": "tuple"
            },
            {
              "internalType": "bool",
              "name": "zeroForOne",
              "type": "bool"
            },
            {
              "internalType": "uint256",
              "name": "minAmountOut",
              "type": "uint256"
            },
            {
              "internalType": "uint8",
              "name": "wrapOp",
              "type": "uint8"
            },
            {
              "internalType": "address",
              "name": "tokenIn",
              "type": "address"
            }
          ],
          "internalType": "struct UniswapEncoder.UseAllBalanceParams",
          "name": "swapParams",
          "type": "tuple"
        }
      ],
      "name": "encodeUseAllBalanceSwap",
      "outputs": [
        {
          "internalType": "address",
          "name": "target",
          "type": "address"
        },
        {
          "internalType": "bytes",
          "name": "callData",
          "type": "bytes"
        },
        {
          "internalType": "uint256",
          "name": "inputAmount",
          "type": "uint256"
        },
        {
          "internalType": "address",
          "name": "_tokenIn",
          "type": "address"
        }
      ],
      "stateMutability": "view",
      "type": "function"
    }
  ],
  "bytecode": "0x608060405234801561001057600080fd5b506109af806100206000396000f3fe608060405234801561001057600080fd5b50600436106100365760003560e01c80635247a61e1461003b578063f69df74a14610067575b600080fd5b61004e6100493660046106af565b61007a565b60405161005e9493929190610719565b60405180910390f35b61004e6100753660046106af565b610336565b60408051600380825260808201909252600091606091839182918291816020015b606081526020019060019003908161009b579050509050856100c360c0820160a08301610754565b8760c001358860e00135604051806020016040528060008152506040516020016100f1959493929190610792565b6040516020818303038152906040528160008151811061011357610113610864565b60209081029190910101526101306101208701610100880161087a565b604080516001600160a01b03909216602083015260c088013590820152600160608201526080016040516020818303038152906040528160018151811061017957610179610864565b6020908102919091010152600061019660c0880160a08901610754565b6101ac576101a7602088018861087a565b6101bc565b6101bc604088016020890161087a565b604080516001600160a01b038316602082015260e08a0135918101919091529091506060016040516020818303038152906040528260028151811061020357610203610864565b6020908102919091010152604080516001808252818301909252600091816020015b606081526020019060019003908161022557905050905060405180604001604052806003815260200162060c0f60e81b8152508360405160200161026a9291906108ea565b6040516020818303038152906040528160008151811061028c5761028c610864565b6020026020010181905250604051806040016040528060018152602001600160fc1b8152508165ffffffffffff6040516024016102cb93929190610918565b60408051601f198184030181529190526020810180516001600160e01b0316630d64d59360e21b17905295507366a9893cc07d91d95644aedd05d03f95e1dba8af8660c08a01356103246101208c016101008d0161087a565b96509650965096505050509193509193565b6000606081808061034f6101208701610100880161087a565b9050610362610100870160e08801610956565b60ff16600103610374575060006103a6565b610385610100870160e08801610956565b60ff166003036103a6575073c02aaa39b223fe8d0a0e5c4f27ead9083c756cc25b60006001600160a01b038216156103c6576103c18233610652565b6103c9565b33315b6040805160038082526080820190925291925060009190816020015b60608152602001906001900390816103e55790505090508761040d60c0820160a08301610754565b838a60c0013560405180602001604052806000815250604051602001610437959493929190610792565b6040516020818303038152906040528160008151811061045957610459610864565b6020026020010181905250828260405160200161048b9291906001600160a01b03929092168252602082015260400190565b604051602081830303815290604052816001815181106104ad576104ad610864565b602090810291909101015260006104ca60c08a0160a08b01610754565b6104e0576104db60208a018a61087a565b6104f0565b6104f060408a0160208b0161087a565b604080516001600160a01b038316602082015260c08c0135918101919091529091506060016040516020818303038152906040528260028151811061053757610537610864565b6020908102919091010152604080516001808252818301909252600091816020015b606081526020019060019003908161055957905050905060405180604001604052806003815260200162060c0f60e81b8152508360405160200161059e9291906108ea565b604051602081830303815290604052816000815181106105c0576105c0610864565b6020026020010181905250604051806040016040528060018152602001600160fc1b8152508165ffffffffffff6040516024016105ff93929190610918565b60408051601f198184030181529190526020810180516001600160e01b0316630d64d59360e21b1790527366a9893cc07d91d95644aedd05d03f95e1dba8af995097509295509293505050509193509193565b60006040516370a0823160e01b8152826004820152600080602483875afa8061067a57600080fd5b503d61068557600080fd5b60400160206000823e519392505050565b600061012082840312156106a957600080fd5b50919050565b600061012082840312156106c257600080fd5b6106cc8383610696565b9392505050565b6000815180845260005b818110156106f9576020818501810151868301820152016106dd565b506000602082860101526020601f19601f83011685010191505092915050565b600060018060a01b0380871683526080602084015261073b60808401876106d3565b6040840195909552929092166060909101525092915050565b60006020828403121561076657600080fd5b813580151581146106cc57600080fd5b80356001600160a01b038116811461078d57600080fd5b919050565b60006101206001600160a01b03806107a98a610776565b168452806107b960208b01610776565b16602085015250604088013562ffffff81168082146107d757600080fd5b6040850152506060880135600281900b81146107f257600080fd5b610801606085018260020b9052565b5061080e60808901610776565b6001600160a01b0316608084015286151560a08401526fffffffffffffffffffffffffffffffff86811660c0850152851660e08401526101008301819052610858818401856106d3565b98975050505050505050565b634e487b7160e01b600052603260045260246000fd5b60006020828403121561088c57600080fd5b6106cc82610776565b600081518084526020808501808196508360051b8101915082860160005b858110156108dd5782840389526108cb8483516106d3565b988501989350908401906001016108b3565b5091979650505050505050565b6040815260006108fd60408301856106d3565b828103602084015261090f8185610895565b95945050505050565b60608152600061092b60608301866106d3565b828103602084015261093d8186610895565b91505065ffffffffffff83166040830152949350505050565b60006020828403121561096857600080fd5b813560ff811681146106cc57600080fdfea264697066735822122088b99d34acc354a2ed8a3419c2324e4d1e11d7b2a3fa41d1f9e04fcc23a489ce64736f6c63430008140033",
  "linkReferences": {},
  "deployedLinkReferences": {}
}