{
  "_format": "hh-sol-artifact-1",
  "contractName": "UniswapEncoder",
  "sourceName": "contracts/UniswapEncoder.sol",
  "abi": [
    {
      "inputs": [
        {
          "components": [
            {
              "components": [
                {
                  "internalType": "address",
                  "name": "currency0",
                  "type": "address"
                },
                {
                  "internalType": "address",
                  "name": "currency1",
                  "type": "address"
                },
                {
                  "internalType": "uint24",
                  "name": "fee",
                  "type": "uint24"
                },
                {
                  "internalType": "int24",
                  "name": "tickSpacing",
                  "type": "int24"
                },
                {
                  "internalType": "address",
                  "name": "hooks",
                  "type": "address"
                }
              ],
              "internalType": "struct UniswapEncoder.PoolKey",
              "name": "poolKey",
              "type": "tuple"
            },
            {
              "internalType": "bool",
              "name": "zeroForOne",
              "type": "bool"
            },
            {
              "internalType": "uint256",
              "name": "minAmountOut",
              "type": "uint256"
            },
            {
              "internalType": "uint8",
              "name": "wrapOp",
              "type": "uint8"
            },
            {
              "internalType": "address",
              "name": "tokenIn",
              "type": "address"
            }
          ],
          "internalType": "struct UniswapEncoder.UseAllBalanceParams",
          "name": "swapParams",
          "type": "tuple"
        }
      ],
      "name": "encodeUseAllBalanceSwap",
      "outputs": [
        {
          "internalType": "address",
          "name": "target",
          "type": "address"
        },
        {
          "internalType": "bytes",
          "name": "callData",
          "type": "bytes"
        },
        {
          "internalType": "uint256",
          "name": "inputAmount",
          "type": "uint256"
        },
        {
          "internalType": "address",
          "name": "_tokenIn",
          "type": "address"
        }
      ],
      "stateMutability": "view",
      "type": "function"
    }
  ],
  "bytecode": "0x608060405234801561001057600080fd5b50610498806100206000396000f3fe608060405234801561001057600080fd5b506004361061002b5760003560e01c8063f69df74a14610030575b600080fd5b61004361003e366004610260565b61005c565b6040516100539493929190610279565b60405180910390f35b6000606081808061007561012087016101008801610305565b9050610088610100870160e08801610327565b60ff1660010361009a575060006100cc565b6100ab610100870160e08801610327565b60ff166003036100cc575073c02aaa39b223fe8d0a0e5c4f27ead9083c756cc25b60006001600160a01b038216156100ec576100e7823361021f565b6100ef565b33315b9050600061010360c0890160a08a0161034a565b610119576101146020890189610305565b610129565b6101296040890160208a01610305565b9050600061013d60c08a0160a08b0161034a565b61015b5773fffd8963efd1fc6a506488495d951d5263988d25610162565b6401000276a45b90506101766101208a016101008b01610305565b604080516060810190915283908b908061019660c0840160a0850161034a565b151581526020016101a68861036c565b8152602001856001600160a01b03168152508c60c001356040516020016101d1959493929190610396565b60408051601f1981840301815291905296507366a9893cc07d91d95644aedd05d03f95e1dba8af878461020c6101208d016101008e01610305565b9750975097509750505050509193509193565b60006040516370a0823160e01b815282600482015260408101602081602484885afa91508161024d57600080fd5b3d61025757600080fd5b51949350505050565b6000610120828403121561027357600080fd5b50919050565b600060018060a01b0380871683526020608081850152865180608086015260005b818110156102b65788810183015186820160a00152820161029a565b50600060a0828701015260a0601f19601f8301168601019350505084604084015280841660608401525095945050505050565b80356001600160a01b038116811461030057600080fd5b919050565b60006020828403121561031757600080fd5b610320826102e9565b9392505050565b60006020828403121561033957600080fd5b813560ff8116811461032057600080fd5b60006020828403121561035c57600080fd5b8135801515811461032057600080fd5b6000600160ff1b820161038f57634e487b7160e01b600052601160045260246000fd5b5060000390565b6001600160a01b0386811682528581166020830152610160820190806103bb876102e9565b166040840152806103ce602088016102e9565b16606084015250604085013562ffffff81168082146103ec57600080fd5b6080840152506060850135600281900b811461040757600080fd5b61041660a084018260020b9052565b50610423608086016102e9565b6001600160a01b0390811660c08401528451151560e084015260208501516101008401526040909401519093166101208201526101400152939250505056fea26469706673582212209d80936b23c0298b6a4bb692d10520e63ebcbaec871031bfe6d2afdd26c6434d64736f6c63430008140033",
  "linkReferences": {},
  "deployedLinkReferences": {}
}