{
  "_format": "hh-sol-artifact-1",
  "contractName": "UniswapEncoder",
  "sourceName": "contracts/UniswapEncoder.sol",
  "abi": [
    {
      "inputs": [
        {
          "internalType": "address",
          "name": "tokenIn",
          "type": "address"
        },
        {
          "internalType": "address",
          "name": "tokenOut",
          "type": "address"
        },
        {
          "internalType": "uint24",
          "name": "fee",
          "type": "uint24"
        },
        {
          "internalType": "uint256",
          "name": "amountIn",
          "type": "uint256"
        },
        {
          "internalType": "uint256",
          "name": "minAmountOut",
          "type": "uint256"
        }
      ],
      "name": "encodeSingleSwap",
      "outputs": [
        {
          "internalType": "address",
          "name": "target",
          "type": "address"
        },
        {
          "internalType": "bytes",
          "name": "callData",
          "type": "bytes"
        },
        {
          "internalType": "uint256",
          "name": "inputAmount",
          "type": "uint256"
        },
        {
          "internalType": "address",
          "name": "",
          "type": "address"
        }
      ],
      "stateMutability": "view",
      "type": "function"
    },
    {
      "inputs": [
        {
          "internalType": "address",
          "name": "tokenIn",
          "type": "address"
        },
        {
          "internalType": "address",
          "name": "tokenOut",
          "type": "address"
        },
        {
          "internalType": "uint24",
          "name": "fee",
          "type": "uint24"
        },
        {
          "internalType": "uint256",
          "name": "minAmountOut",
          "type": "uint256"
        }
      ],
      "name": "encodeUseAllBalanceSwap",
      "outputs": [
        {
          "internalType": "address",
          "name": "target",
          "type": "address"
        },
        {
          "internalType": "bytes",
          "name": "callData",
          "type": "bytes"
        },
        {
          "internalType": "uint256",
          "name": "inputAmount",
          "type": "uint256"
        },
        {
          "internalType": "address",
          "name": "",
          "type": "address"
        }
      ],
      "stateMutability": "view",
      "type": "function"
    }
  ],
  "bytecode": "0x608060405234801561001057600080fd5b506105c9806100206000396000f3fe608060405234801561001057600080fd5b50600436106100365760003560e01c80630dfd26fe1461003b578063c8369b8014610067575b600080fd5b61004e610049366004610383565b61007a565b60405161005e9493929190610414565b60405180910390f35b61004e61007536600461044f565b6101e0565b600060608180806001600160a01b038916610097575033316100a4565b6100a18933610323565b90505b604051600160fc1b602082015260009060210160408051808303601f1901815260e0830182526001600160a01b038d811684528c16602084015262ffffff8b16838301523360608401526080830185905260a083018a9052600060c084018190528251600180825281850190945291945091816020015b606081526020019060019003908161011b5790505090508160405160200161014391906104a4565b6040516020818303038152906040528160008151811061016557610165610502565b6020908102919091010152604051635e0be1009061018b90859084908490602401610518565b60408051601f198184030181529190526020810180516001600160e01b0316630d64d59360e21b1790527366a9893cc07d91d95644aedd05d03f95e1dba8af9e909d959c50949a509398505050505050505050565b604051600160fc1b602082015260009060609082908190819060210160408051808303601f1901815260e0830182526001600160a01b038d811684528c16602084015262ffffff8b1683830152336060840152608083018a905260a08301899052600060c084018190528251600180825281850190945291945091816020015b60608152602001906001900390816102605790505090508160405160200161028891906104a4565b604051602081830303815290604052816000815181106102aa576102aa610502565b6020908102919091010152604051635e0be100906102d090859084908490602401610518565b60408051601f198184030181529190526020810180516001600160e01b0316630d64d59360e21b1790527366a9893cc07d91d95644aedd05d03f95e1dba8af9e909d9a9c50999a50505050505050505050565b60006040516370a0823160e01b8152826004820152602081602483875afa8061034b57600080fd5b50519392505050565b80356001600160a01b038116811461036b57600080fd5b919050565b803562ffffff8116811461036b57600080fd5b6000806000806080858703121561039957600080fd5b6103a285610354565b93506103b060208601610354565b92506103be60408601610370565b9396929550929360600135925050565b6000815180845260005b818110156103f4576020818501810151868301820152016103d8565b506000602082860101526020601f19601f83011685010191505092915050565b600060018060a01b0380871683526080602084015261043660808401876103ce565b6040840195909552929092166060909101525092915050565b600080600080600060a0868803121561046757600080fd5b61047086610354565b945061047e60208701610354565b935061048c60408701610370565b94979396509394606081013594506080013592915050565b81516001600160a01b03908116825260208084015182169083015260408084015162ffffff16908301526060808401518216908301526080808401519083015260a0838101519083015260c092830151169181019190915260e00190565b634e487b7160e01b600052603260045260246000fd5b60608152600061052b60608301866103ce565b6020838203818501528186518084528284019150828160051b85010183890160005b8381101561057b57601f198784030185526105698383516103ce565b9486019492509085019060010161054d565b5050809550505050505082604083015294935050505056fea2646970667358221220f0bac3d07a4521fc219e03abfda6232648b1c71b9e94d7e84f47c919804c9ad064736f6c63430008140033",
  "linkReferences": {},
  "deployedLinkReferences": {}
}