{
  "_format": "hh-sol-artifact-1",
  "contractName": "UniswapEncoder",
  "sourceName": "contracts/UniswapEncoder.sol",
  "abi": [
    {
      "inputs": [
        {
          "internalType": "address[]",
          "name": "tokens",
          "type": "address[]"
        },
        {
          "internalType": "uint24[]",
          "name": "fees",
          "type": "uint24[]"
        }
      ],
      "name": "buildPath",
      "outputs": [
        {
          "internalType": "bytes",
          "name": "path",
          "type": "bytes"
        }
      ],
      "stateMutability": "pure",
      "type": "function"
    },
    {
      "inputs": [
        {
          "internalType": "bytes",
          "name": "path",
          "type": "bytes"
        },
        {
          "internalType": "uint256",
          "name": "amountIn",
          "type": "uint256"
        },
        {
          "internalType": "uint256",
          "name": "minAmountOut",
          "type": "uint256"
        }
      ],
      "name": "encodeMultiHopSwap",
      "outputs": [
        {
          "internalType": "address",
          "name": "target",
          "type": "address"
        },
        {
          "internalType": "bytes",
          "name": "callData",
          "type": "bytes"
        }
      ],
      "stateMutability": "view",
      "type": "function"
    },
    {
      "inputs": [
        {
          "internalType": "address",
          "name": "tokenIn",
          "type": "address"
        },
        {
          "internalType": "address",
          "name": "tokenOut",
          "type": "address"
        },
        {
          "internalType": "uint24",
          "name": "fee",
          "type": "uint24"
        },
        {
          "internalType": "uint256",
          "name": "amountIn",
          "type": "uint256"
        },
        {
          "internalType": "uint256",
          "name": "minAmountOut",
          "type": "uint256"
        }
      ],
      "name": "encodeSingleSwap",
      "outputs": [
        {
          "internalType": "address",
          "name": "target",
          "type": "address"
        },
        {
          "internalType": "bytes",
          "name": "callData",
          "type": "bytes"
        },
        {
          "internalType": "uint256",
          "name": "inputAmount",
          "type": "uint256"
        },
        {
          "internalType": "address",
          "name": "",
          "type": "address"
        }
      ],
      "stateMutability": "view",
      "type": "function"
    },
    {
      "inputs": [
        {
          "internalType": "address",
          "name": "tokenIn",
          "type": "address"
        },
        {
          "internalType": "address",
          "name": "tokenOut",
          "type": "address"
        },
        {
          "internalType": "uint24",
          "name": "fee",
          "type": "uint24"
        },
        {
          "internalType": "uint256",
          "name": "minAmountOut",
          "type": "uint256"
        }
      ],
      "name": "encodeUseAllBalanceSwap",
      "outputs": [
        {
          "internalType": "address",
          "name": "target",
          "type": "address"
        },
        {
          "internalType": "bytes",
          "name": "callData",
          "type": "bytes"
        },
        {
          "internalType": "uint256",
          "name": "inputAmount",
          "type": "uint256"
        },
        {
          "internalType": "address",
          "name": "",
          "type": "address"
        }
      ],
      "stateMutability": "view",
      "type": "function"
    }
  ],
  "bytecode": "0x608060405234801561001057600080fd5b50610bd5806100206000396000f3fe608060405234801561001057600080fd5b506004361061004c5760003560e01c80630dfd26fe146100515780632ac0c8741461007d578063c8369b801461009e578063ddd0638c146100b1575b600080fd5b61006461005f3660046106dd565b6100d1565b6040516100749493929190610778565b60405180910390f35b61009061008b3660046107b3565b610241565b604051610074929190610832565b6100646100ac36600461085e565b61039d565b6100c46100bf3660046108ff565b6104ea565b604051610074919061096b565b600060608180806001600160a01b0389166100ee575033316100fb565b6100f8893361067d565b90505b604051600160fc1b602082015260009060210160408051808303601f1901815260e0830182526001600160a01b038d811684528c16602084015262ffffff8b16838301523360608401526080830185905260a083018a9052600060c084018190528251600180825281850190945291945091816020015b60608152602001906001900390816101725790505090508160405160200161019a9190610985565b604051602081830303815290604052816000815181106101bc576101bc6109e3565b602090810291909101015260006101d5426104b0610a0f565b90508382826040516024016101ec93929190610a28565b60408051601f198184030181529190526020810180516001600160e01b0316630d64d59360e21b1790527366a9893cc07d91d95644aedd05d03f95e1dba8af9e909d959c50949a509398505050505050505050565b604051600160fc1b6020820152600090606090829060210160408051601f1981840301815260a06020601f8b01819004028401810190925260808301898152909350600092918291908b908b9081908501838280828437600092018290525093855250503360208401525060408083018a90526060909201889052815160018082528184019093529293509190816020015b60608152602001906001900390816102d3579050509050816040516020016102fb9190610aa3565b6040516020818303038152906040528160008151811061031d5761031d6109e3565b60209081029190910101526000610336426104b0610a0f565b905083828260405160240161034d93929190610a28565b60408051601f198184030181529190526020810180516001600160e01b0316630d64d59360e21b1790527366a9893cc07d91d95644aedd05d03f95e1dba8af965094505050505094509492505050565b604051600160fc1b602082015260009060609082908190819060210160408051808303601f1901815260e0830182526001600160a01b038d811684528c16602084015262ffffff8b1683830152336060840152608083018a905260a08301899052600060c084018190528251600180825281850190945291945091816020015b606081526020019060019003908161041d579050509050816040516020016104459190610985565b60405160208183030381529060405281600081518110610467576104676109e3565b60209081029190910101526000610480426104b0610a0f565b905083828260405160240161049793929190610a28565b60408051601f198184030181529190526020810180516001600160e01b0316630d64d59360e21b1790527366a9893cc07d91d95644aedd05d03f95e1dba8af9e909d9a9c50999a50505050505050505050565b606060028410156105315760405162461bcd60e51b815260206004820152600c60248201526b092dcecc2d8d2c840e0c2e8d60a31b60448201526064015b60405180910390fd5b61053c600185610af1565b82146105795760405162461bcd60e51b815260206004820152600c60248201526b496e76616c6964206665657360a01b6044820152606401610528565b8484600081811061058c5761058c6109e3565b90506020020160208101906105a19190610b04565b6040516020016105c9919060609190911b6bffffffffffffffffffffffff1916815260140190565b604051602081830303815290604052905060005b8281101561067457818484838181106105f8576105f86109e3565b905060200201602081019061060d9190610b1f565b878761061a856001610a0f565b818110610629576106296109e3565b905060200201602081019061063e9190610b04565b60405160200161065093929190610b3a565b6040516020818303038152906040529150808061066c90610b86565b9150506105dd565b50949350505050565b60006040516370a0823160e01b8152826004820152602081602483875afa806106a557600080fd5b50519392505050565b80356001600160a01b03811681146106c557600080fd5b919050565b803562ffffff811681146106c557600080fd5b600080600080608085870312156106f357600080fd5b6106fc856106ae565b935061070a602086016106ae565b9250610718604086016106ca565b9396929550929360600135925050565b60005b8381101561074357818101518382015260200161072b565b50506000910152565b60008151808452610764816020860160208601610728565b601f01601f19169290920160200192915050565b600060018060a01b0380871683526080602084015261079a608084018761074c565b6040840195909552929092166060909101525092915050565b600080600080606085870312156107c957600080fd5b843567ffffffffffffffff808211156107e157600080fd5b818701915087601f8301126107f557600080fd5b81358181111561080457600080fd5b88602082850101111561081657600080fd5b6020928301999098509187013596604001359550909350505050565b6001600160a01b03831681526040602082018190526000906108569083018461074c565b949350505050565b600080600080600060a0868803121561087657600080fd5b61087f866106ae565b945061088d602087016106ae565b935061089b604087016106ca565b94979396509394606081013594506080013592915050565b60008083601f8401126108c557600080fd5b50813567ffffffffffffffff8111156108dd57600080fd5b6020830191508360208260051b85010111156108f857600080fd5b9250929050565b6000806000806040858703121561091557600080fd5b843567ffffffffffffffff8082111561092d57600080fd5b610939888389016108b3565b9096509450602087013591508082111561095257600080fd5b5061095f878288016108b3565b95989497509550505050565b60208152600061097e602083018461074c565b9392505050565b81516001600160a01b03908116825260208084015182169083015260408084015162ffffff16908301526060808401518216908301526080808401519083015260a0838101519083015260c092830151169181019190915260e00190565b634e487b7160e01b600052603260045260246000fd5b634e487b7160e01b600052601160045260246000fd5b80820180821115610a2257610a226109f9565b92915050565b606081526000610a3b606083018661074c565b6020838203818501528186518084528284019150828160051b85010183890160005b83811015610a8b57601f19878403018552610a7983835161074c565b94860194925090850190600101610a5d565b50508095505050505050826040830152949350505050565b602081526000825160806020840152610abf60a084018261074c565b905060018060a01b03602085015116604084015260408401516060840152606084015160808401528091505092915050565b81810381811115610a2257610a226109f9565b600060208284031215610b1657600080fd5b61097e826106ae565b600060208284031215610b3157600080fd5b61097e826106ca565b60008451610b4c818460208901610728565b60e89490941b6001600160e81b0319169190930190815260609190911b6bffffffffffffffffffffffff1916600382015260170192915050565b600060018201610b9857610b986109f9565b506001019056fea26469706673582212202fee77ae2d96a057756f451408c27b378a91daf1f63d3276c8672fcf2e17532264736f6c63430008140033",
  "linkReferences": {},
  "deployedLinkReferences": {}
}