{
  "_format": "hh-sol-artifact-1",
  "contractName": "UniswapEncoder",
  "sourceName": "contracts/UniswapEncoder.sol",
  "abi": [
    {
      "inputs": [
        {
          "internalType": "address",
          "name": "tokenIn",
          "type": "address"
        },
        {
          "internalType": "address",
          "name": "tokenOut",
          "type": "address"
        },
        {
          "internalType": "uint24",
          "name": "fee",
          "type": "uint24"
        },
        {
          "internalType": "uint256",
          "name": "amountIn",
          "type": "uint256"
        },
        {
          "internalType": "uint256",
          "name": "minAmountOut",
          "type": "uint256"
        }
      ],
      "name": "encodeSingleSwap",
      "outputs": [
        {
          "internalType": "address",
          "name": "target",
          "type": "address"
        },
        {
          "internalType": "bytes",
          "name": "callData",
          "type": "bytes"
        },
        {
          "internalType": "uint256",
          "name": "inputAmount",
          "type": "uint256"
        },
        {
          "internalType": "address",
          "name": "",
          "type": "address"
        }
      ],
      "stateMutability": "view",
      "type": "function"
    },
    {
      "inputs": [
        {
          "internalType": "address",
          "name": "tokenIn",
          "type": "address"
        },
        {
          "internalType": "address",
          "name": "tokenOut",
          "type": "address"
        },
        {
          "internalType": "uint24",
          "name": "fee",
          "type": "uint24"
        },
        {
          "internalType": "uint256",
          "name": "minAmountOut",
          "type": "uint256"
        },
        {
          "internalType": "uint8",
          "name": "wrapOp",
          "type": "uint8"
        }
      ],
      "name": "encodeUseAllBalanceSwap",
      "outputs": [
        {
          "internalType": "address",
          "name": "target",
          "type": "address"
        },
        {
          "internalType": "bytes",
          "name": "callData",
          "type": "bytes"
        },
        {
          "internalType": "uint256",
          "name": "inputAmount",
          "type": "uint256"
        },
        {
          "internalType": "address",
          "name": "",
          "type": "address"
        }
      ],
      "stateMutability": "view",
      "type": "function"
    }
  ],
  "bytecode": "0x608060405234801561001057600080fd5b50610627806100206000396000f3fe608060405234801561001057600080fd5b50600436106100365760003560e01c806353dca07b1461003b578063c8369b8014610067575b600080fd5b61004e6100493660046103bc565b61007a565b60405161005e949392919061046a565b60405180910390f35b61004e6100753660046104a5565b61021c565b6000606081808860ff8616600103610094575060006100b6565b8560ff166003036100b6575073c02aaa39b223fe8d0a0e5c4f27ead9083c756cc25b60006001600160a01b038216156100d6576100d1823361035c565b6100d9565b33315b6040805160e0810182526001600160a01b038e811682528d16602082015262ffffff8c16818301523360608201526080810183905260a081018b9052600060c082018190528251600180825281850190945293945090929091816020015b60608152602001906001900390816101375790505090508160405160200161015f91906104fa565b6040516020818303038152906040528160008151811061018157610181610558565b602090810291909101810191909152604051600160fc1b9181019190915260210160408051601f19818403018152908290526101c7918390635e0be1009060240161056e565b60408051601f198184030181529190526020810180516001600160e01b0316630d64d59360e21b1790527366a9893cc07d91d95644aedd05d03f95e1dba8af9e909d939c50929a509198505050505050505050565b604051600160fc1b602082015260009060609082908190819060210160408051808303601f1901815260e0830182526001600160a01b038d811684528c16602084015262ffffff8b1683830152336060840152608083018a905260a08301899052600060c084018190528251600180825281850190945291945091816020015b606081526020019060019003908161029c579050509050816040516020016102c491906104fa565b604051602081830303815290604052816000815181106102e6576102e6610558565b60200260200101819052508281635e0be10060405160240161030a9392919061056e565b60408051601f198184030181529190526020810180516001600160e01b0316630d64d59360e21b1790527366a9893cc07d91d95644aedd05d03f95e1dba8af9d909c999b509899505050505050505050565b60006040516370a0823160e01b8152826004820152602081602483875afa8061038457600080fd5b50519392505050565b80356001600160a01b03811681146103a457600080fd5b919050565b803562ffffff811681146103a457600080fd5b600080600080600060a086880312156103d457600080fd5b6103dd8661038d565b94506103eb6020870161038d565b93506103f9604087016103a9565b925060608601359150608086013560ff8116811461041657600080fd5b809150509295509295909350565b6000815180845260005b8181101561044a5760208185018101518683018201520161042e565b506000602082860101526020601f19601f83011685010191505092915050565b600060018060a01b0380871683526080602084015261048c6080840187610424565b6040840195909552929092166060909101525092915050565b600080600080600060a086880312156104bd57600080fd5b6104c68661038d565b94506104d46020870161038d565b93506104e2604087016103a9565b94979396509394606081013594506080013592915050565b81516001600160a01b03908116825260208084015182169083015260408084015162ffffff16908301526060808401518216908301526080808401519083015260a0838101519083015260c092830151169181019190915260e00190565b634e487b7160e01b600052603260045260246000fd5b6060815260006105816060830186610424565b6020838203818501528186518084528284019150828160051b85010183890160005b838110156105d157601f198784030185526105bf838351610424565b948601949250908501906001016105a3565b5050809550505050505065ffffffffffff8316604083015294935050505056fea2646970667358221220d3b87fe22e552ac3f9517ff1aca240f324bab0414c7f00578815ac262ce3d24764736f6c63430008140033",
  "linkReferences": {},
  "deployedLinkReferences": {}
}