{"abi":[{"type":"function","name":"encodeSingleSwap","inputs":[{"name":"swapParams","type":"tuple","internalType":"struct UniswapEncoder.SingleSwapParams","components":[{"name":"poolKey","type":"tuple","internalType":"struct UniswapEncoder.PoolKey","components":[{"name":"currency0","type":"address","internalType":"address"},{"name":"currency1","type":"address","internalType":"address"},{"name":"fee","type":"uint24","internalType":"uint24"},{"name":"tickSpacing","type":"int24","internalType":"int24"},{"name":"hooks","type":"address","internalType":"address"}]},{"name":"zeroForOne","type":"bool","internalType":"bool"},{"name":"amountIn","type":"uint256","internalType":"uint256"},{"name":"minAmountOut","type":"uint256","internalType":"uint256"},{"name":"tokenIn","type":"address","internalType":"address"}]}],"outputs":[{"name":"target","type":"address","internalType":"address"},{"name":"callData","type":"bytes","internalType":"bytes"},{"name":"inputAmount","type":"uint256","internalType":"uint256"},{"name":"_tokenIn","type":"address","internalType":"address"}],"stateMutability":"pure"},{"type":"function","name":"encodeUseAllBalanceSwap","inputs":[{"name":"swapParams","type":"tuple","internalType":"struct UniswapEncoder.UseAllBalanceParams","components":[{"name":"poolKey","type":"tuple","internalType":"struct UniswapEncoder.PoolKey","components":[{"name":"currency0","type":"address","internalType":"address"},{"name":"currency1","type":"address","internalType":"address"},{"name":"fee","type":"uint24","internalType":"uint24"},{"name":"tickSpacing","type":"int24","internalType":"int24"},{"name":"hooks","type":"address","internalType":"address"}]},{"name":"zeroForOne","type":"bool","internalType":"bool"},{"name":"minAmountOut","type":"uint256","internalType":"uint256"},{"name":"wrapOp","type":"uint8","internalType":"uint8"},{"name":"tokenIn","type":"address","internalType":"address"}]}],"outputs":[{"name":"target","type":"address","internalType":"address"},{"name":"callData","type":"bytes","internalType":"bytes"},{"name":"inputAmount","type":"uint256","internalType":"uint256"},{"name":"_tokenIn","type":"address","internalType":"address"}],"stateMutability":"view"}],"bytecode":{"object":"0x608060405234801561001057600080fd5b506109a8806100206000396000f3fe608060405234801561001057600080fd5b50600436106100365760003560e01c80635247a61e1461003b578063f69df74a14610067575b600080fd5b61004e6100493660046106a8565b61007a565b60405161005e9493929190610712565b60405180910390f35b61004e6100753660046106a8565b61032f565b60408051600380825260808201909252600091606091839182918291816020015b606081526020019060019003908161009b579050509050856100c360c0820160a0830161074d565b8760c001358860e00135604051806020016040528060008152506040516020016100f195949392919061078b565b604051602081830303815290604052816000815181106101135761011361085d565b602090810291909101015261013061012087016101008801610873565b604080516001600160a01b03909216602083015260c088013590820152606001604051602081830303815290604052816001815181106101725761017261085d565b6020908102919091010152600061018f60c0880160a0890161074d565b6101a5576101a06020880188610873565b6101b5565b6101b56040880160208901610873565b604080516001600160a01b038316602082015260e08a013591810191909152909150606001604051602081830303815290604052826002815181106101fc576101fc61085d565b6020908102919091010152604080516001808252818301909252600091816020015b606081526020019060019003908161021e57905050905060405180604001604052806003815260200162060c0f60e81b815250836040516020016102639291906108e3565b604051602081830303815290604052816000815181106102855761028561085d565b6020026020010181905250604051806040016040528060018152602001600160fc1b8152508165ffffffffffff6040516024016102c493929190610911565b60408051601f198184030181529190526020810180516001600160e01b0316630d64d59360e21b17905295507366a9893cc07d91d95644aedd05d03f95e1dba8af8660c08a013561031d6101208c016101008d01610873565b96509650965096505050509193509193565b6000606081808061034861012087016101008801610873565b905061035b610100870160e0880161094f565b60ff1660010361036d5750600061039f565b61037e610100870160e0880161094f565b60ff1660030361039f575073c02aaa39b223fe8d0a0e5c4f27ead9083c756cc25b60006001600160a01b038216156103bf576103ba823361064b565b6103c2565b33315b6040805160038082526080820190925291925060009190816020015b60608152602001906001900390816103de5790505090508761040660c0820160a0830161074d565b838a60c001356040518060200160405280600081525060405160200161043095949392919061078b565b604051602081830303815290604052816000815181106104525761045261085d565b602002602001018190525082826040516020016104849291906001600160a01b03929092168252602082015260400190565b604051602081830303815290604052816001815181106104a6576104a661085d565b602090810291909101015260006104c360c08a0160a08b0161074d565b6104d9576104d460208a018a610873565b6104e9565b6104e960408a0160208b01610873565b604080516001600160a01b038316602082015260c08c013591810191909152909150606001604051602081830303815290604052826002815181106105305761053061085d565b6020908102919091010152604080516001808252818301909252600091816020015b606081526020019060019003908161055257905050905060405180604001604052806003815260200162060c0f60e81b815250836040516020016105979291906108e3565b604051602081830303815290604052816000815181106105b9576105b961085d565b6020026020010181905250604051806040016040528060018152602001600160fc1b8152508165ffffffffffff6040516024016105f893929190610911565b60408051601f198184030181529190526020810180516001600160e01b0316630d64d59360e21b1790527366a9893cc07d91d95644aedd05d03f95e1dba8af995097509295509293505050509193509193565b60006040516370a0823160e01b8152826004820152600080602483875afa8061067357600080fd5b503d61067e57600080fd5b60400160206000823e519392505050565b600061012082840312156106a257600080fd5b50919050565b600061012082840312156106bb57600080fd5b6106c5838361068f565b9392505050565b6000815180845260005b818110156106f2576020818501810151868301820152016106d6565b506000602082860101526020601f19601f83011685010191505092915050565b600060018060a01b0380871683526080602084015261073460808401876106cc565b6040840195909552929092166060909101525092915050565b60006020828403121561075f57600080fd5b813580151581146106c557600080fd5b80356001600160a01b038116811461078657600080fd5b919050565b60006101206001600160a01b03806107a28a61076f565b168452806107b260208b0161076f565b16602085015250604088013562ffffff81168082146107d057600080fd5b6040850152506060880135600281900b81146107eb57600080fd5b6107fa606085018260020b9052565b506108076080890161076f565b6001600160a01b0316608084015286151560a08401526fffffffffffffffffffffffffffffffff86811660c0850152851660e08401526101008301819052610851818401856106cc565b98975050505050505050565b634e487b7160e01b600052603260045260246000fd5b60006020828403121561088557600080fd5b6106c58261076f565b600081518084526020808501808196508360051b8101915082860160005b858110156108d65782840389526108c48483516106cc565b988501989350908401906001016108ac565b5091979650505050505050565b6040815260006108f660408301856106cc565b8281036020840152610908818561088e565b95945050505050565b60608152600061092460608301866106cc565b8281036020840152610936818661088e565b91505065ffffffffffff83166040830152949350505050565b60006020828403121561096157600080fd5b813560ff811681146106c557600080fdfea2646970667358221220c6b01491e2d340583729e024431731f63a53c67f5a7192732e46ceaf7e75c79f64736f6c63430008130033","linkReferences":{}},"methodIdentifiers":{"encodeSingleSwap(((address,address,uint24,int24,address),bool,uint256,uint256,address))":"5247a61e","encodeUseAllBalanceSwap(((address,address,uint24,int24,address),bool,uint256,uint8,address))":"f69df74a"},"id":2}